Archive member included to satisfy reference by file (symbol)

d:/martin/facu/arq 2/embeddedide/gcc-arm-embedded/bin/../lib/gcc/arm-none-eabi/6.3.1/thumb/v7e-m/fpv4-sp/hard\libgcc.a(_arm_addsubdf3.o)
                              app/out/libs/sapi/sapi_v0.5.2/external_peripherals/src/sapi_imu_mpu9250.o (__aeabi_dadd)
d:/martin/facu/arq 2/embeddedide/gcc-arm-embedded/bin/../lib/gcc/arm-none-eabi/6.3.1/thumb/v7e-m/fpv4-sp/hard\libgcc.a(_arm_truncdfsf2.o)
                              app/out/libs/sapi/sapi_v0.5.2/external_peripherals/src/sapi_imu_mpu9250.o (__aeabi_d2f)
d:/martin/facu/arq 2/embeddedide/gcc-arm-embedded/bin/../lib/gcc/arm-none-eabi/6.3.1/thumb/v7e-m/fpv4-sp/hard\libgcc.a(_aeabi_ldivmod.o)
                              app/out/libs/sapi/sapi_v0.5.2/abstract_modules/src/sapi_convert.o (__aeabi_ldivmod)
d:/martin/facu/arq 2/embeddedide/gcc-arm-embedded/bin/../lib/gcc/arm-none-eabi/6.3.1/thumb/v7e-m/fpv4-sp/hard\libgcc.a(_aeabi_uldivmod.o)
                              app/out/libs/sapi/sapi_v0.5.2/soc/peripherals/src/sapi_tick.o (__aeabi_uldivmod)
d:/martin/facu/arq 2/embeddedide/gcc-arm-embedded/bin/../lib/gcc/arm-none-eabi/6.3.1/thumb/v7e-m/fpv4-sp/hard\libgcc.a(_fixunssfdi.o)
                              app/out/libs/sapi/sapi_v0.5.2/abstract_modules/src/sapi_delay.o (__aeabi_f2ulz)
d:/martin/facu/arq 2/embeddedide/gcc-arm-embedded/bin/../lib/gcc/arm-none-eabi/6.3.1/thumb/v7e-m/fpv4-sp/hard\libgcc.a(_udivmoddi4.o)
                              d:/martin/facu/arq 2/embeddedide/gcc-arm-embedded/bin/../lib/gcc/arm-none-eabi/6.3.1/thumb/v7e-m/fpv4-sp/hard\libgcc.a(_aeabi_ldivmod.o) (__udivmoddi4)
d:/martin/facu/arq 2/embeddedide/gcc-arm-embedded/bin/../lib/gcc/arm-none-eabi/6.3.1/thumb/v7e-m/fpv4-sp/hard\libgcc.a(_dvmd_tls.o)
                              d:/martin/facu/arq 2/embeddedide/gcc-arm-embedded/bin/../lib/gcc/arm-none-eabi/6.3.1/thumb/v7e-m/fpv4-sp/hard\libgcc.a(_aeabi_ldivmod.o) (__aeabi_ldiv0)
d:/martin/facu/arq 2/embeddedide/gcc-arm-embedded/bin/../lib/gcc/arm-none-eabi/6.3.1/thumb/v7e-m/fpv4-sp/hard\libgcc.a(_arm_muldivdf3.o)
                              d:/martin/facu/arq 2/embeddedide/gcc-arm-embedded/bin/../lib/gcc/arm-none-eabi/6.3.1/thumb/v7e-m/fpv4-sp/hard\libgcc.a(_fixunssfdi.o) (__aeabi_dmul)
d:/martin/facu/arq 2/embeddedide/gcc-arm-embedded/bin/../lib/gcc/arm-none-eabi/6.3.1/thumb/v7e-m/fpv4-sp/hard\libgcc.a(_arm_fixunsdfsi.o)
                              d:/martin/facu/arq 2/embeddedide/gcc-arm-embedded/bin/../lib/gcc/arm-none-eabi/6.3.1/thumb/v7e-m/fpv4-sp/hard\libgcc.a(_fixunssfdi.o) (__aeabi_d2uiz)
d:/martin/facu/arq 2/embeddedide/gcc-arm-embedded/bin/../lib/gcc/arm-none-eabi/6.3.1/../../../../arm-none-eabi/lib/thumb/v7e-m/fpv4-sp/hard\libc_nano.a(lib_a-init.o)
                              app/out/libs/vendor_libs/lpc_startup/src/cr_startup_lpc43xx.o (__libc_init_array)
d:/martin/facu/arq 2/embeddedide/gcc-arm-embedded/bin/../lib/gcc/arm-none-eabi/6.3.1/../../../../arm-none-eabi/lib/thumb/v7e-m/fpv4-sp/hard\libc_nano.a(lib_a-memcpy-stub.o)
                              app/out/libs/vendor_libs/lpc_chip_43xx/src/ring_buffer.o (memcpy)
d:/martin/facu/arq 2/embeddedide/gcc-arm-embedded/bin/../lib/gcc/arm-none-eabi/6.3.1/../../../../arm-none-eabi/lib/thumb/v7e-m/fpv4-sp/hard\libc_nano.a(lib_a-memset.o)
                              app/out/libs/sapi/sapi_v0.5.2/soc/peripherals/usb/device/src/cdc_uart.o (memset)
d:/martin/facu/arq 2/embeddedide/gcc-arm-embedded/bin/../lib/gcc/arm-none-eabi/6.3.1/../../../../arm-none-eabi/lib/thumb/v7e-m/fpv4-sp/hard\libc_nano.a(lib_a-puts.o)
                              app/out/libs/sapi/sapi_v0.5.2/soc/peripherals/usb/device/src/sapi_usb_device.o (puts)
d:/martin/facu/arq 2/embeddedide/gcc-arm-embedded/bin/../lib/gcc/arm-none-eabi/6.3.1/../../../../arm-none-eabi/lib/thumb/v7e-m/fpv4-sp/hard\libc_nano.a(lib_a-strcpy.o)
                              app/out/libs/sapi/sapi_v0.5.2/external_peripherals/src/sapi_esp8266.o (strcpy)
d:/martin/facu/arq 2/embeddedide/gcc-arm-embedded/bin/../lib/gcc/arm-none-eabi/6.3.1/../../../../arm-none-eabi/lib/thumb/v7e-m/fpv4-sp/hard\libc_nano.a(lib_a-strlen.o)
                              app/out/libs/sapi/sapi_v0.5.2/external_peripherals/src/sapi_esp8266.o (strlen)
d:/martin/facu/arq 2/embeddedide/gcc-arm-embedded/bin/../lib/gcc/arm-none-eabi/6.3.1/../../../../arm-none-eabi/lib/thumb/v7e-m/fpv4-sp/hard\libc_nano.a(lib_a-wbuf.o)
                              d:/martin/facu/arq 2/embeddedide/gcc-arm-embedded/bin/../lib/gcc/arm-none-eabi/6.3.1/../../../../arm-none-eabi/lib/thumb/v7e-m/fpv4-sp/hard\libc_nano.a(lib_a-puts.o) (__swbuf_r)
d:/martin/facu/arq 2/embeddedide/gcc-arm-embedded/bin/../lib/gcc/arm-none-eabi/6.3.1/../../../../arm-none-eabi/lib/thumb/v7e-m/fpv4-sp/hard\libc_nano.a(lib_a-wsetup.o)
                              d:/martin/facu/arq 2/embeddedide/gcc-arm-embedded/bin/../lib/gcc/arm-none-eabi/6.3.1/../../../../arm-none-eabi/lib/thumb/v7e-m/fpv4-sp/hard\libc_nano.a(lib_a-puts.o) (__swsetup_r)
d:/martin/facu/arq 2/embeddedide/gcc-arm-embedded/bin/../lib/gcc/arm-none-eabi/6.3.1/../../../../arm-none-eabi/lib/thumb/v7e-m/fpv4-sp/hard\libc_nano.a(lib_a-fflush.o)
                              d:/martin/facu/arq 2/embeddedide/gcc-arm-embedded/bin/../lib/gcc/arm-none-eabi/6.3.1/../../../../arm-none-eabi/lib/thumb/v7e-m/fpv4-sp/hard\libc_nano.a(lib_a-wbuf.o) (_fflush_r)
d:/martin/facu/arq 2/embeddedide/gcc-arm-embedded/bin/../lib/gcc/arm-none-eabi/6.3.1/../../../../arm-none-eabi/lib/thumb/v7e-m/fpv4-sp/hard\libc_nano.a(lib_a-findfp.o)
                              d:/martin/facu/arq 2/embeddedide/gcc-arm-embedded/bin/../lib/gcc/arm-none-eabi/6.3.1/../../../../arm-none-eabi/lib/thumb/v7e-m/fpv4-sp/hard\libc_nano.a(lib_a-puts.o) (__sinit)
d:/martin/facu/arq 2/embeddedide/gcc-arm-embedded/bin/../lib/gcc/arm-none-eabi/6.3.1/../../../../arm-none-eabi/lib/thumb/v7e-m/fpv4-sp/hard\libc_nano.a(lib_a-fwalk.o)
                              d:/martin/facu/arq 2/embeddedide/gcc-arm-embedded/bin/../lib/gcc/arm-none-eabi/6.3.1/../../../../arm-none-eabi/lib/thumb/v7e-m/fpv4-sp/hard\libc_nano.a(lib_a-findfp.o) (_fwalk)
d:/martin/facu/arq 2/embeddedide/gcc-arm-embedded/bin/../lib/gcc/arm-none-eabi/6.3.1/../../../../arm-none-eabi/lib/thumb/v7e-m/fpv4-sp/hard\libc_nano.a(lib_a-impure.o)
                              d:/martin/facu/arq 2/embeddedide/gcc-arm-embedded/bin/../lib/gcc/arm-none-eabi/6.3.1/../../../../arm-none-eabi/lib/thumb/v7e-m/fpv4-sp/hard\libc_nano.a(lib_a-fflush.o) (_global_impure_ptr)
d:/martin/facu/arq 2/embeddedide/gcc-arm-embedded/bin/../lib/gcc/arm-none-eabi/6.3.1/../../../../arm-none-eabi/lib/thumb/v7e-m/fpv4-sp/hard\libc_nano.a(lib_a-makebuf.o)
                              d:/martin/facu/arq 2/embeddedide/gcc-arm-embedded/bin/../lib/gcc/arm-none-eabi/6.3.1/../../../../arm-none-eabi/lib/thumb/v7e-m/fpv4-sp/hard\libc_nano.a(lib_a-wsetup.o) (__smakebuf_r)
d:/martin/facu/arq 2/embeddedide/gcc-arm-embedded/bin/../lib/gcc/arm-none-eabi/6.3.1/../../../../arm-none-eabi/lib/thumb/v7e-m/fpv4-sp/hard\libc_nano.a(lib_a-nano-freer.o)
                              d:/martin/facu/arq 2/embeddedide/gcc-arm-embedded/bin/../lib/gcc/arm-none-eabi/6.3.1/../../../../arm-none-eabi/lib/thumb/v7e-m/fpv4-sp/hard\libc_nano.a(lib_a-wsetup.o) (_free_r)
d:/martin/facu/arq 2/embeddedide/gcc-arm-embedded/bin/../lib/gcc/arm-none-eabi/6.3.1/../../../../arm-none-eabi/lib/thumb/v7e-m/fpv4-sp/hard\libc_nano.a(lib_a-nano-mallocr.o)
                              d:/martin/facu/arq 2/embeddedide/gcc-arm-embedded/bin/../lib/gcc/arm-none-eabi/6.3.1/../../../../arm-none-eabi/lib/thumb/v7e-m/fpv4-sp/hard\libc_nano.a(lib_a-findfp.o) (_malloc_r)
d:/martin/facu/arq 2/embeddedide/gcc-arm-embedded/bin/../lib/gcc/arm-none-eabi/6.3.1/../../../../arm-none-eabi/lib/thumb/v7e-m/fpv4-sp/hard\libc_nano.a(lib_a-stdio.o)
                              d:/martin/facu/arq 2/embeddedide/gcc-arm-embedded/bin/../lib/gcc/arm-none-eabi/6.3.1/../../../../arm-none-eabi/lib/thumb/v7e-m/fpv4-sp/hard\libc_nano.a(lib_a-findfp.o) (__sread)
d:/martin/facu/arq 2/embeddedide/gcc-arm-embedded/bin/../lib/gcc/arm-none-eabi/6.3.1/../../../../arm-none-eabi/lib/thumb/v7e-m/fpv4-sp/hard\libc_nano.a(lib_a-mlock.o)
                              d:/martin/facu/arq 2/embeddedide/gcc-arm-embedded/bin/../lib/gcc/arm-none-eabi/6.3.1/../../../../arm-none-eabi/lib/thumb/v7e-m/fpv4-sp/hard\libc_nano.a(lib_a-nano-freer.o) (__malloc_lock)

Allocating common symbols
Common symbol       size              file

dht11_timeout       0x4               app/out/libs/sapi/sapi_v0.5.2/external_peripherals/src/sapi_dht11.o
dht11_timeout_max   0x4               app/out/libs/sapi/sapi_v0.5.2/external_peripherals/src/sapi_dht11.o
estadoActual        0x1               app/out/app/src/app.o
SystemCoreClock     0x4               app/out/libs/vendor_libs/lpc_chip_43xx/src/chip_18xx_43xx.o
asd                 0x1               app/out/app/src/driverDisplay7Seg.o
g_pUsbApi           0x4               app/out/libs/sapi/sapi_v0.5.2/soc/peripherals/usb/device/src/sapi_usb_device.o
tickRateMS          0x8               app/out/libs/sapi/sapi_v0.5.2/soc/peripherals/src/sapi_tick.o
operacion           0x1               app/out/app/src/app.o

Discarded input sections

 .group         0x00000000        0x8 app/out/app/src/app.o
 .group         0x00000000        0x8 app/out/app/src/app.o
 .group         0x00000000        0x8 app/out/app/src/app.o
 .group         0x00000000        0x8 app/out/app/src/app.o
 .group         0x00000000        0x8 app/out/app/src/app.o
 .group         0x00000000        0x8 app/out/app/src/app.o
 .group         0x00000000        0x8 app/out/app/src/app.o
 .group         0x00000000        0x8 app/out/app/src/app.o
 .group         0x00000000        0x8 app/out/app/src/app.o
 .group         0x00000000        0x8 app/out/app/src/app.o
 .group         0x00000000        0x8 app/out/app/src/app.o
 .group         0x00000000        0x8 app/out/app/src/app.o
 .group         0x00000000        0x8 app/out/app/src/app.o
 .group         0x00000000        0x8 app/out/app/src/app.o
 .group         0x00000000        0x8 app/out/app/src/app.o
 .group         0x00000000        0x8 app/out/app/src/app.o
 .group         0x00000000        0x8 app/out/app/src/app.o
 .group         0x00000000        0x8 app/out/app/src/app.o
Memory Configuration

Name             Origin             Length             Attributes
MFlashA512       0x1a000000         0x00080000         xr
MFlashB512       0x1b000000         0x00080000         xr
RamLoc32         0x10000000         0x00008000         xrw
RamLoc40         0x10080000         0x0000a000         xrw
RamAHB32         0x20000000         0x00008000         xrw
RamAHB16         0x20008000         0x00004000         xrw
RamAHB_ETB16     0x2000c000         0x00004000         xrw
*default*        0x00000000         0xffffffff

Linker script and memory map

LOAD app/out/app/src/app.o
LOAD app/out/app/src/driverDisplay7Seg.o
LOAD app/out/app/src/driverTecladoMatricial.o
LOAD app/out/libs/sapi/sapi_v0.5.2/base/src/sapi_datatypes.o
LOAD app/out/libs/sapi/sapi_v0.5.2/soc/core/src/sapi_cyclesCounter.o
LOAD app/out/libs/sapi/sapi_v0.5.2/soc/core/src/sapi_sleep.o
LOAD app/out/libs/sapi/sapi_v0.5.2/soc/peripherals/src/sapi_adc.o
LOAD app/out/libs/sapi/sapi_v0.5.2/soc/peripherals/src/sapi_dac.o
LOAD app/out/libs/sapi/sapi_v0.5.2/soc/peripherals/src/sapi_gpio.o
LOAD app/out/libs/sapi/sapi_v0.5.2/soc/peripherals/src/sapi_i2c.o
LOAD app/out/libs/sapi/sapi_v0.5.2/soc/peripherals/src/sapi_pwm.o
LOAD app/out/libs/sapi/sapi_v0.5.2/soc/peripherals/src/sapi_rtc.o
LOAD app/out/libs/sapi/sapi_v0.5.2/soc/peripherals/src/sapi_sct.o
LOAD app/out/libs/sapi/sapi_v0.5.2/soc/peripherals/src/sapi_spi.o
LOAD app/out/libs/sapi/sapi_v0.5.2/soc/peripherals/src/sapi_tick.o
LOAD app/out/libs/sapi/sapi_v0.5.2/soc/peripherals/src/sapi_timer.o
LOAD app/out/libs/sapi/sapi_v0.5.2/soc/peripherals/src/sapi_uart.o
LOAD app/out/libs/sapi/sapi_v0.5.2/soc/peripherals/usb/device/src/cdc_uart.o
LOAD app/out/libs/sapi/sapi_v0.5.2/soc/peripherals/usb/device/src/sapi_usb_device.o
LOAD app/out/libs/sapi/sapi_v0.5.2/soc/peripherals/usb/device/src/usbd_keyboard.o
LOAD app/out/libs/sapi/sapi_v0.5.2/board/src/sapi_board.o
LOAD app/out/libs/sapi/sapi_v0.5.2/abstract_modules/src/sapi_circularBuffer.o
LOAD app/out/libs/sapi/sapi_v0.5.2/abstract_modules/src/sapi_convert.o
LOAD app/out/libs/sapi/sapi_v0.5.2/abstract_modules/src/sapi_delay.o
LOAD app/out/libs/sapi/sapi_v0.5.2/abstract_modules/src/sapi_print.o
LOAD app/out/libs/sapi/sapi_v0.5.2/abstract_modules/src/sapi_stdio.o
LOAD app/out/libs/sapi/sapi_v0.5.2/external_peripherals/src/sapi_7_segment_display.o
LOAD app/out/libs/sapi/sapi_v0.5.2/external_peripherals/src/sapi_dht11.o
LOAD app/out/libs/sapi/sapi_v0.5.2/external_peripherals/src/sapi_esp8266.o
LOAD app/out/libs/sapi/sapi_v0.5.2/external_peripherals/src/sapi_imu_mpu9250.o
LOAD app/out/libs/sapi/sapi_v0.5.2/external_peripherals/src/sapi_keypad.o
LOAD app/out/libs/sapi/sapi_v0.5.2/external_peripherals/src/sapi_lcd.o
LOAD app/out/libs/sapi/sapi_v0.5.2/external_peripherals/src/sapi_magnetometer_hmc5883l.o
LOAD app/out/libs/sapi/sapi_v0.5.2/external_peripherals/src/sapi_magnetometer_qmc5883l.o
LOAD app/out/libs/sapi/sapi_v0.5.2/external_peripherals/src/sapi_rgb.o
LOAD app/out/libs/sapi/sapi_v0.5.2/external_peripherals/src/sapi_servo.o
LOAD app/out/libs/sapi/sapi_v0.5.2/external_peripherals/src/sapi_ultrasonic_hcsr04.o
LOAD app/out/libs/vendor_libs/lpc_board_ciaa_edu_4337/src/board.o
LOAD app/out/libs/vendor_libs/lpc_board_ciaa_edu_4337/src/board_sysinit.o
LOAD app/out/libs/vendor_libs/lpc_board_ciaa_edu_4337/src/sysinit.o
LOAD app/out/libs/vendor_libs/lpc_board_ciaa_edu_4337/src/system.o
LOAD app/out/libs/vendor_libs/lpc_chip_43xx/src/adc_18xx_43xx.o
LOAD app/out/libs/vendor_libs/lpc_chip_43xx/src/aes_18xx_43xx.o
LOAD app/out/libs/vendor_libs/lpc_chip_43xx/src/atimer_18xx_43xx.o
LOAD app/out/libs/vendor_libs/lpc_chip_43xx/src/ccan_18xx_43xx.o
LOAD app/out/libs/vendor_libs/lpc_chip_43xx/src/chip_18xx_43xx.o
LOAD app/out/libs/vendor_libs/lpc_chip_43xx/src/clock_18xx_43xx.o
LOAD app/out/libs/vendor_libs/lpc_chip_43xx/src/dac_18xx_43xx.o
LOAD app/out/libs/vendor_libs/lpc_chip_43xx/src/eeprom_18xx_43xx.o
LOAD app/out/libs/vendor_libs/lpc_chip_43xx/src/emc_18xx_43xx.o
LOAD app/out/libs/vendor_libs/lpc_chip_43xx/src/enet_18xx_43xx.o
LOAD app/out/libs/vendor_libs/lpc_chip_43xx/src/evrt_18xx_43xx.o
LOAD app/out/libs/vendor_libs/lpc_chip_43xx/src/fpu_init.o
LOAD app/out/libs/vendor_libs/lpc_chip_43xx/src/gpdma_18xx_43xx.o
LOAD app/out/libs/vendor_libs/lpc_chip_43xx/src/gpio_18xx_43xx.o
LOAD app/out/libs/vendor_libs/lpc_chip_43xx/src/gpiogroup_18xx_43xx.o
LOAD app/out/libs/vendor_libs/lpc_chip_43xx/src/i2c_18xx_43xx.o
LOAD app/out/libs/vendor_libs/lpc_chip_43xx/src/i2cm_18xx_43xx.o
LOAD app/out/libs/vendor_libs/lpc_chip_43xx/src/i2s_18xx_43xx.o
LOAD app/out/libs/vendor_libs/lpc_chip_43xx/src/iap_18xx_43xx.o
LOAD app/out/libs/vendor_libs/lpc_chip_43xx/src/lcd_18xx_43xx.o
LOAD app/out/libs/vendor_libs/lpc_chip_43xx/src/otp_18xx_43xx.o
LOAD app/out/libs/vendor_libs/lpc_chip_43xx/src/pinint_18xx_43xx.o
LOAD app/out/libs/vendor_libs/lpc_chip_43xx/src/pmc_18xx_43xx.o
LOAD app/out/libs/vendor_libs/lpc_chip_43xx/src/ring_buffer.o
LOAD app/out/libs/vendor_libs/lpc_chip_43xx/src/ritimer_18xx_43xx.o
LOAD app/out/libs/vendor_libs/lpc_chip_43xx/src/rtc_18xx_43xx.o
LOAD app/out/libs/vendor_libs/lpc_chip_43xx/src/sct_18xx_43xx.o
LOAD app/out/libs/vendor_libs/lpc_chip_43xx/src/sct_pwm_18xx_43xx.o
LOAD app/out/libs/vendor_libs/lpc_chip_43xx/src/sdif_18xx_43xx.o
LOAD app/out/libs/vendor_libs/lpc_chip_43xx/src/sdio_18xx_43xx.o
LOAD app/out/libs/vendor_libs/lpc_chip_43xx/src/sdmmc_18xx_43xx.o
LOAD app/out/libs/vendor_libs/lpc_chip_43xx/src/spi_18xx_43xx.o
LOAD app/out/libs/vendor_libs/lpc_chip_43xx/src/ssp_18xx_43xx.o
LOAD app/out/libs/vendor_libs/lpc_chip_43xx/src/stopwatch_18xx_43xx.o
LOAD app/out/libs/vendor_libs/lpc_chip_43xx/src/sysinit_18xx_43xx.o
LOAD app/out/libs/vendor_libs/lpc_chip_43xx/src/timer_18xx_43xx.o
LOAD app/out/libs/vendor_libs/lpc_chip_43xx/src/uart_18xx_43xx.o
LOAD app/out/libs/vendor_libs/lpc_chip_43xx/src/wwdt_18xx_43xx.o
LOAD app/out/libs/vendor_libs/lpc_startup/src/cr_startup_lpc43xx.o
LOAD app/out/libs/vendor_libs/lpc_startup/src/crp.o
LOAD d:/martin/facu/arq 2/embeddedide/gcc-arm-embedded/bin/../lib/gcc/arm-none-eabi/6.3.1/../../../../arm-none-eabi/lib/thumb/v7e-m/fpv4-sp/hard\libstdc++_nano.a
LOAD d:/martin/facu/arq 2/embeddedide/gcc-arm-embedded/bin/../lib/gcc/arm-none-eabi/6.3.1/../../../../arm-none-eabi/lib/thumb/v7e-m/fpv4-sp/hard\libm.a
START GROUP
LOAD d:/martin/facu/arq 2/embeddedide/gcc-arm-embedded/bin/../lib/gcc/arm-none-eabi/6.3.1/thumb/v7e-m/fpv4-sp/hard\libgcc.a
LOAD d:/martin/facu/arq 2/embeddedide/gcc-arm-embedded/bin/../lib/gcc/arm-none-eabi/6.3.1/../../../../arm-none-eabi/lib/thumb/v7e-m/fpv4-sp/hard\libc_nano.a
END GROUP
START GROUP
LOAD d:/martin/facu/arq 2/embeddedide/gcc-arm-embedded/bin/../lib/gcc/arm-none-eabi/6.3.1/thumb/v7e-m/fpv4-sp/hard\libgcc.a
LOAD d:/martin/facu/arq 2/embeddedide/gcc-arm-embedded/bin/../lib/gcc/arm-none-eabi/6.3.1/../../../../arm-none-eabi/lib/thumb/v7e-m/fpv4-sp/hard\libc_nano.a
END GROUP
                0x1a080000                __top_MFlashA512 = 0x1a080000
                0x1b080000                __top_MFlashB512 = 0x1b080000
                0x10008000                __top_RamLoc32 = 0x10008000
                0x1008a000                __top_RamLoc40 = 0x1008a000
                0x20008000                __top_RamAHB32 = 0x20008000
                0x2000c000                __top_RamAHB16 = 0x2000c000
                0x20010000                __top_RamAHB_ETB16 = 0x20010000
START GROUP
LOAD d:/martin/facu/arq 2/embeddedide/gcc-arm-embedded/bin/../lib/gcc/arm-none-eabi/6.3.1/thumb/v7e-m/fpv4-sp/hard\libgcc.a
LOAD d:/martin/facu/arq 2/embeddedide/gcc-arm-embedded/bin/../lib/gcc/arm-none-eabi/6.3.1/../../../../arm-none-eabi/lib/thumb/v7e-m/fpv4-sp/hard\libc.a
LOAD d:/martin/facu/arq 2/embeddedide/gcc-arm-embedded/bin/../lib/gcc/arm-none-eabi/6.3.1/../../../../arm-none-eabi/lib/thumb/v7e-m/fpv4-sp/hard\libm.a
END GROUP

.text_Flash2    0x1b000000        0x0
 FILL mask 0xff
 *(.text_Flash2*)
 *(.text_MFlashB512*)
 *(.text.$Flash2*)
 *(.text.$MFlashB512*)
 *(.rodata.$Flash2*)
 *(.rodata.$MFlashB512*)

.text           0x1a000000     0x2444
 FILL mask 0xff
                0x1a000000                __vectors_start__ = ABSOLUTE (.)
 *(.isr_vector)
 .isr_vector    0x1a000000      0x114 app/out/libs/vendor_libs/lpc_startup/src/cr_startup_lpc43xx.o
                0x1a000000                g_pfnVectors
                0x1a000114                . = ALIGN (0x4)
                0x1a000114                __section_table_start = .
                0x1a000114                __data_section_table = .
                0x1a000114        0x4 LONG 0x1a00244c LOADADDR (.data)
                0x1a000118        0x4 LONG 0x10000000 ADDR (.data)
                0x1a00011c        0x4 LONG 0x154 SIZEOF (.data)
                0x1a000120        0x4 LONG 0x1a00244c LOADADDR (.data_RAM2)
                0x1a000124        0x4 LONG 0x10080000 ADDR (.data_RAM2)
                0x1a000128        0x4 LONG 0x0 SIZEOF (.data_RAM2)
                0x1a00012c        0x4 LONG 0x1a00244c LOADADDR (.data_RAM3)
                0x1a000130        0x4 LONG 0x20000000 ADDR (.data_RAM3)
                0x1a000134        0x4 LONG 0x0 SIZEOF (.data_RAM3)
                0x1a000138        0x4 LONG 0x1a00244c LOADADDR (.data_RAM4)
                0x1a00013c        0x4 LONG 0x20008000 ADDR (.data_RAM4)
                0x1a000140        0x4 LONG 0x0 SIZEOF (.data_RAM4)
                0x1a000144        0x4 LONG 0x1a00244c LOADADDR (.data_RAM5)
                0x1a000148        0x4 LONG 0x2000c000 ADDR (.data_RAM5)
                0x1a00014c        0x4 LONG 0x0 SIZEOF (.data_RAM5)
                0x1a000150                __data_section_table_end = .
                0x1a000150                __bss_section_table = .
                0x1a000150        0x4 LONG 0x10000158 ADDR (.bss)
                0x1a000154        0x4 LONG 0x90 SIZEOF (.bss)
                0x1a000158        0x4 LONG 0x10080000 ADDR (.bss_RAM2)
                0x1a00015c        0x4 LONG 0x0 SIZEOF (.bss_RAM2)
                0x1a000160        0x4 LONG 0x20000000 ADDR (.bss_RAM3)
                0x1a000164        0x4 LONG 0x0 SIZEOF (.bss_RAM3)
                0x1a000168        0x4 LONG 0x20008000 ADDR (.bss_RAM4)
                0x1a00016c        0x4 LONG 0x0 SIZEOF (.bss_RAM4)
                0x1a000170        0x4 LONG 0x2000c000 ADDR (.bss_RAM5)
                0x1a000174        0x4 LONG 0x0 SIZEOF (.bss_RAM5)
                0x1a000178                __bss_section_table_end = .
                0x1a000178                __section_table_end = .
 *(.after_vectors*)
 .after_vectors
                0x1a000178       0x44 app/out/libs/vendor_libs/lpc_startup/src/cr_startup_lpc43xx.o
                0x1a000178                NMI_Handler
                0x1a00017a                HardFault_Handler
                0x1a00017c                MemManage_Handler
                0x1a00017e                BusFault_Handler
                0x1a000180                UsageFault_Handler
                0x1a000182                SVC_Handler
                0x1a000184                DebugMon_Handler
                0x1a000186                PendSV_Handler
                0x1a00018a                ATIMER_IRQHandler
                0x1a00018a                SDIO_IRQHandler
                0x1a00018a                I2C1_IRQHandler
                0x1a00018a                UART1_IRQHandler
                0x1a00018a                GPIO5_IRQHandler
                0x1a00018a                CAN1_IRQHandler
                0x1a00018a                USB1_IRQHandler
                0x1a00018a                I2S0_IRQHandler
                0x1a00018a                UART0_IRQHandler
                0x1a00018a                GINT1_IRQHandler
                0x1a00018a                SGPIO_IRQHandler
                0x1a00018a                ADC0_IRQHandler
                0x1a00018a                I2C0_IRQHandler
                0x1a00018a                GPIO6_IRQHandler
                0x1a00018a                IntDefaultHandler
                0x1a00018a                SSP0_IRQHandler
                0x1a00018a                FLASH_EEPROM_IRQHandler
                0x1a00018a                RTC_IRQHandler
                0x1a00018a                SPI_IRQHandler
                0x1a00018a                LCD_IRQHandler
                0x1a00018a                M0APP_IRQHandler
                0x1a00018a                UART2_IRQHandler
                0x1a00018a                I2S1_IRQHandler
                0x1a00018a                SSP1_IRQHandler
                0x1a00018a                GPIO3_IRQHandler
                0x1a00018a                SCT_IRQHandler
                0x1a00018a                ADCHS_IRQHandler
                0x1a00018a                WDT_IRQHandler
                0x1a00018a                RIT_IRQHandler
                0x1a00018a                GPIO7_IRQHandler
                0x1a00018a                SPIFI_IRQHandler
                0x1a00018a                QEI_IRQHandler
                0x1a00018a                ETH_IRQHandler
                0x1a00018a                CAN0_IRQHandler
                0x1a00018a                GINT0_IRQHandler
                0x1a00018a                DAC_IRQHandler
                0x1a00018a                M0SUB_IRQHandler
                0x1a00018a                DMA_IRQHandler
                0x1a00018a                EVRT_IRQHandler
                0x1a00018a                ADC1_IRQHandler
                0x1a00018a                UART3_IRQHandler
                0x1a00018a                MCPWM_IRQHandler
                0x1a00018a                GPIO4_IRQHandler
                0x1a00018c                data_init
                0x1a0001aa                bss_init
                0x000002fc                . = 0x2fc
 *fill*         0x1a0001bc      0x140 ff
                0x1a0002fc                PROVIDE (__CRP_WORD_START__, .)
 *(.crp)
 .crp           0x1a0002fc        0x4 app/out/libs/vendor_libs/lpc_startup/src/crp.o
                0x1a0002fc                CRP_WORD
                0x1a000300                PROVIDE (__CRP_WORD_END__, .)
                0x00000001                ASSERT (! ((__CRP_WORD_START__ == __CRP_WORD_END__)), Linker CRP Enabled, but no CRP_WORD provided within application)
 *(.text*)
 .text.printLineUART
                0x1a000300       0x30 app/out/app/src/app.o
                0x1a000300                printLineUART
 .text.RealizarOperacion
                0x1a000330       0x2c app/out/app/src/app.o
                0x1a000330                RealizarOperacion
 .text.InicializarMEF
                0x1a00035c       0x1c app/out/app/src/app.o
                0x1a00035c                InicializarMEF
 .text.ActualizarMEF
                0x1a000378      0x148 app/out/app/src/app.o
                0x1a000378                ActualizarMEF
 .text.main     0x1a0004c0       0x3c app/out/app/src/app.o
                0x1a0004c0                main
 .text.display7SegmentosEscribir
                0x1a0004fc       0x34 app/out/app/src/driverDisplay7Seg.o
                0x1a0004fc                display7SegmentosEscribir
 .text.charToIndex
                0x1a000530       0x24 app/out/app/src/driverDisplay7Seg.o
                0x1a000530                charToIndex
 .text.display7SegmentosEscribirDigito
                0x1a000554       0x2c app/out/app/src/driverDisplay7Seg.o
                0x1a000554                display7SegmentosEscribirDigito
 .text.itoaDisplay
                0x1a000580       0x90 app/out/app/src/driverDisplay7Seg.o
                0x1a000580                itoaDisplay
 .text.display7SegmentosConfigurarPines
                0x1a000610       0x58 app/out/app/src/driverDisplay7Seg.o
                0x1a000610                display7SegmentosConfigurarPines
 .text.display7SegmentosEscribir4Digitos
                0x1a000668       0x3c app/out/app/src/driverDisplay7Seg.o
                0x1a000668                display7SegmentosEscribir4Digitos
 .text.configurarTecladoMatricial
                0x1a0006a4       0x38 app/out/app/src/driverTecladoMatricial.o
                0x1a0006a4                configurarTecladoMatricial
 .text.leerTecladoMatricial
                0x1a0006dc       0x9c app/out/app/src/driverTecladoMatricial.o
                0x1a0006dc                leerTecladoMatricial
 .text.cyclesCounterInit
                0x1a000778       0x1c app/out/libs/sapi/sapi_v0.5.2/soc/core/src/sapi_cyclesCounter.o
                0x1a000778                cyclesCounterInit
 .text.gpioObtainPinInit
                0x1a000794       0x34 app/out/libs/sapi/sapi_v0.5.2/soc/peripherals/src/sapi_gpio.o
 .text.gpioInit
                0x1a0007c8      0x194 app/out/libs/sapi/sapi_v0.5.2/soc/peripherals/src/sapi_gpio.o
                0x1a0007c8                gpioInit
 .text.gpioWrite
                0x1a00095c       0x56 app/out/libs/sapi/sapi_v0.5.2/soc/peripherals/src/sapi_gpio.o
                0x1a00095c                gpioWrite
 .text.gpioRead
                0x1a0009b2       0x54 app/out/libs/sapi/sapi_v0.5.2/soc/peripherals/src/sapi_gpio.o
                0x1a0009b2                gpioRead
 *fill*         0x1a000a06        0x2 ff
 .text.tickRead
                0x1a000a08        0xc app/out/libs/sapi/sapi_v0.5.2/soc/peripherals/src/sapi_tick.o
                0x1a000a08                tickRead
 .text.tickPowerSet
                0x1a000a14       0x18 app/out/libs/sapi/sapi_v0.5.2/soc/peripherals/src/sapi_tick.o
                0x1a000a14                tickPowerSet
 .text.tickInit
                0x1a000a2c       0x7c app/out/libs/sapi/sapi_v0.5.2/soc/peripherals/src/sapi_tick.o
                0x1a000a2c                tickInit
 .text.SysTick_Handler
                0x1a000aa8       0x2c app/out/libs/sapi/sapi_v0.5.2/soc/peripherals/src/sapi_tick.o
                0x1a000aa8                SysTick_Handler
 .text.errorOcurred
                0x1a000ad4        0x2 app/out/libs/sapi/sapi_v0.5.2/soc/peripherals/src/sapi_timer.o
 .text.doNothing
                0x1a000ad6        0x2 app/out/libs/sapi/sapi_v0.5.2/soc/peripherals/src/sapi_timer.o
 .text.TIMER0_IRQHandler
                0x1a000ad8       0x40 app/out/libs/sapi/sapi_v0.5.2/soc/peripherals/src/sapi_timer.o
                0x1a000ad8                TIMER0_IRQHandler
 .text.TIMER1_IRQHandler
                0x1a000b18       0x44 app/out/libs/sapi/sapi_v0.5.2/soc/peripherals/src/sapi_timer.o
                0x1a000b18                TIMER1_IRQHandler
 .text.TIMER2_IRQHandler
                0x1a000b5c       0x44 app/out/libs/sapi/sapi_v0.5.2/soc/peripherals/src/sapi_timer.o
                0x1a000b5c                TIMER2_IRQHandler
 .text.TIMER3_IRQHandler
                0x1a000ba0       0x44 app/out/libs/sapi/sapi_v0.5.2/soc/peripherals/src/sapi_timer.o
                0x1a000ba0                TIMER3_IRQHandler
 .text.uartTxReady
                0x1a000be4       0x18 app/out/libs/sapi/sapi_v0.5.2/soc/peripherals/src/sapi_uart.o
                0x1a000be4                uartTxReady
 .text.uartTxWrite
                0x1a000bfc       0x14 app/out/libs/sapi/sapi_v0.5.2/soc/peripherals/src/sapi_uart.o
                0x1a000bfc                uartTxWrite
 .text.uartWriteByte
                0x1a000c10       0x1a app/out/libs/sapi/sapi_v0.5.2/soc/peripherals/src/sapi_uart.o
                0x1a000c10                uartWriteByte
 .text.uartWriteString
                0x1a000c2a       0x18 app/out/libs/sapi/sapi_v0.5.2/soc/peripherals/src/sapi_uart.o
                0x1a000c2a                uartWriteString
 *fill*         0x1a000c42        0x2 ff
 .text.USB0_IRQHandler
                0x1a000c44       0x1c app/out/libs/sapi/sapi_v0.5.2/soc/peripherals/usb/device/src/sapi_usb_device.o
                0x1a000c44                USB0_IRQHandler
 .text.boardInit
                0x1a000c60       0xf4 app/out/libs/sapi/sapi_v0.5.2/board/src/sapi_board.o
                0x1a000c60                boardInit
 .text.int64ToString
                0x1a000d54       0x90 app/out/libs/sapi/sapi_v0.5.2/abstract_modules/src/sapi_convert.o
                0x1a000d54                int64ToString
 .text.intToString
                0x1a000de4       0x18 app/out/libs/sapi/sapi_v0.5.2/abstract_modules/src/sapi_convert.o
                0x1a000de4                intToString
 .text.delay    0x1a000dfc       0x38 app/out/libs/sapi/sapi_v0.5.2/abstract_modules/src/sapi_delay.o
                0x1a000dfc                delay
 .text.delayInit
                0x1a000e34       0x20 app/out/libs/sapi/sapi_v0.5.2/abstract_modules/src/sapi_delay.o
                0x1a000e34                delayInit
 .text.delayRead
                0x1a000e54       0x3e app/out/libs/sapi/sapi_v0.5.2/abstract_modules/src/sapi_delay.o
                0x1a000e54                delayRead
 *fill*         0x1a000e92        0x2 ff
 .text.clearInterrupt
                0x1a000e94       0x10 app/out/libs/sapi/sapi_v0.5.2/external_peripherals/src/sapi_ultrasonic_hcsr04.o
 .text.serveInterrupt
                0x1a000ea4       0x5c app/out/libs/sapi/sapi_v0.5.2/external_peripherals/src/sapi_ultrasonic_hcsr04.o
 .text.GPIO0_IRQHandler
                0x1a000f00        0xa app/out/libs/sapi/sapi_v0.5.2/external_peripherals/src/sapi_ultrasonic_hcsr04.o
                0x1a000f00                GPIO0_IRQHandler
 .text.GPIO1_IRQHandler
                0x1a000f0a        0xa app/out/libs/sapi/sapi_v0.5.2/external_peripherals/src/sapi_ultrasonic_hcsr04.o
                0x1a000f0a                GPIO1_IRQHandler
 .text.GPIO2_IRQHandler
                0x1a000f14        0xa app/out/libs/sapi/sapi_v0.5.2/external_peripherals/src/sapi_ultrasonic_hcsr04.o
                0x1a000f14                GPIO2_IRQHandler
 *fill*         0x1a000f1e        0x2 ff
 .text.Board_LED_Init
                0x1a000f20       0x44 app/out/libs/vendor_libs/lpc_board_ciaa_edu_4337/src/board.o
 .text.Board_TEC_Init
                0x1a000f64       0x40 app/out/libs/vendor_libs/lpc_board_ciaa_edu_4337/src/board.o
 .text.Board_GPIO_Init
                0x1a000fa4       0x40 app/out/libs/vendor_libs/lpc_board_ciaa_edu_4337/src/board.o
 .text.Board_SPI_Init
                0x1a000fe4       0x38 app/out/libs/vendor_libs/lpc_board_ciaa_edu_4337/src/board.o
 .text.Board_I2C_Init
                0x1a00101c       0x24 app/out/libs/vendor_libs/lpc_board_ciaa_edu_4337/src/board.o
 .text.Board_ADC_Init
                0x1a001040       0x30 app/out/libs/vendor_libs/lpc_board_ciaa_edu_4337/src/board.o
 .text.Board_Debug_Init
                0x1a001070       0x24 app/out/libs/vendor_libs/lpc_board_ciaa_edu_4337/src/board.o
                0x1a001070                Board_Debug_Init
 .text.Board_Init
                0x1a001094       0x2c app/out/libs/vendor_libs/lpc_board_ciaa_edu_4337/src/board.o
                0x1a001094                Board_Init
 .text.Board_SetupMuxing
                0x1a0010c0       0x38 app/out/libs/vendor_libs/lpc_board_ciaa_edu_4337/src/board_sysinit.o
                0x1a0010c0                Board_SetupMuxing
 .text.Board_SetupClocking
                0x1a0010f8       0x6c app/out/libs/vendor_libs/lpc_board_ciaa_edu_4337/src/board_sysinit.o
                0x1a0010f8                Board_SetupClocking
 .text.Board_SystemInit
                0x1a001164        0xc app/out/libs/vendor_libs/lpc_board_ciaa_edu_4337/src/board_sysinit.o
                0x1a001164                Board_SystemInit
 .text.SystemInit
                0x1a001170       0x1c app/out/libs/vendor_libs/lpc_board_ciaa_edu_4337/src/sysinit.o
                0x1a001170                SystemInit
 .text.Chip_ADC_GetClockIndex
                0x1a00118c       0x14 app/out/libs/vendor_libs/lpc_chip_43xx/src/adc_18xx_43xx.o
 .text.getClkDiv
                0x1a0011a0       0x32 app/out/libs/vendor_libs/lpc_chip_43xx/src/adc_18xx_43xx.o
 *fill*         0x1a0011d2        0x2 ff
 .text.Chip_ADC_Init
                0x1a0011d4       0x40 app/out/libs/vendor_libs/lpc_chip_43xx/src/adc_18xx_43xx.o
                0x1a0011d4                Chip_ADC_Init
 .text.Chip_ADC_SetSampleRate
                0x1a001214       0x32 app/out/libs/vendor_libs/lpc_chip_43xx/src/adc_18xx_43xx.o
                0x1a001214                Chip_ADC_SetSampleRate
 .text.Chip_ADC_SetResolution
                0x1a001246        0xc app/out/libs/vendor_libs/lpc_chip_43xx/src/adc_18xx_43xx.o
                0x1a001246                Chip_ADC_SetResolution
 *fill*         0x1a001252        0x2 ff
 .text.SystemCoreClockUpdate
                0x1a001254       0x14 app/out/libs/vendor_libs/lpc_chip_43xx/src/chip_18xx_43xx.o
                0x1a001254                SystemCoreClockUpdate
 .text.pll_calc_divs
                0x1a001268       0xa0 app/out/libs/vendor_libs/lpc_chip_43xx/src/clock_18xx_43xx.o
 .text.pll_get_frac
                0x1a001308      0x10c app/out/libs/vendor_libs/lpc_chip_43xx/src/clock_18xx_43xx.o
 .text.Chip_Clock_FindBaseClock
                0x1a001414       0x4c app/out/libs/vendor_libs/lpc_chip_43xx/src/clock_18xx_43xx.o
 .text.Chip_Clock_EnableCrystal
                0x1a001460       0x4c app/out/libs/vendor_libs/lpc_chip_43xx/src/clock_18xx_43xx.o
                0x1a001460                Chip_Clock_EnableCrystal
 .text.Chip_Clock_GetDividerSource
                0x1a0014ac       0x1c app/out/libs/vendor_libs/lpc_chip_43xx/src/clock_18xx_43xx.o
                0x1a0014ac                Chip_Clock_GetDividerSource
 .text.Chip_Clock_GetDividerDivisor
                0x1a0014c8       0x1c app/out/libs/vendor_libs/lpc_chip_43xx/src/clock_18xx_43xx.o
                0x1a0014c8                Chip_Clock_GetDividerDivisor
 .text.Chip_Clock_GetClockInputHz
                0x1a0014e4       0xb8 app/out/libs/vendor_libs/lpc_chip_43xx/src/clock_18xx_43xx.o
                0x1a0014e4                Chip_Clock_GetClockInputHz
 .text.Chip_Clock_CalcMainPLLValue
                0x1a00159c       0x80 app/out/libs/vendor_libs/lpc_chip_43xx/src/clock_18xx_43xx.o
                0x1a00159c                Chip_Clock_CalcMainPLLValue
 .text.Chip_Clock_GetMainPLLHz
                0x1a00161c       0x6c app/out/libs/vendor_libs/lpc_chip_43xx/src/clock_18xx_43xx.o
                0x1a00161c                Chip_Clock_GetMainPLLHz
 .text.Chip_Clock_GetDivRate
                0x1a001688       0x22 app/out/libs/vendor_libs/lpc_chip_43xx/src/clock_18xx_43xx.o
 *fill*         0x1a0016aa        0x2 ff
 .text.Chip_Clock_SetBaseClock
                0x1a0016ac       0x58 app/out/libs/vendor_libs/lpc_chip_43xx/src/clock_18xx_43xx.o
                0x1a0016ac                Chip_Clock_SetBaseClock
 .text.Chip_Clock_GetBaseClock
                0x1a001704       0x26 app/out/libs/vendor_libs/lpc_chip_43xx/src/clock_18xx_43xx.o
                0x1a001704                Chip_Clock_GetBaseClock
 .text.Chip_Clock_GetBaseClocktHz
                0x1a00172a        0xc app/out/libs/vendor_libs/lpc_chip_43xx/src/clock_18xx_43xx.o
                0x1a00172a                Chip_Clock_GetBaseClocktHz
 *fill*         0x1a001736        0x2 ff
 .text.Chip_Clock_EnableOpts
                0x1a001738       0x3c app/out/libs/vendor_libs/lpc_chip_43xx/src/clock_18xx_43xx.o
                0x1a001738                Chip_Clock_EnableOpts
 .text.Chip_Clock_Enable
                0x1a001774       0x34 app/out/libs/vendor_libs/lpc_chip_43xx/src/clock_18xx_43xx.o
                0x1a001774                Chip_Clock_Enable
 .text.Chip_Clock_GetRate
                0x1a0017a8       0x4c app/out/libs/vendor_libs/lpc_chip_43xx/src/clock_18xx_43xx.o
                0x1a0017a8                Chip_Clock_GetRate
 .text.fpuInit  0x1a0017f4       0x54 app/out/libs/vendor_libs/lpc_chip_43xx/src/fpu_init.o
                0x1a0017f4                fpuInit
 .text.Chip_GPIO_Init
                0x1a001848        0x2 app/out/libs/vendor_libs/lpc_chip_43xx/src/gpio_18xx_43xx.o
                0x1a001848                Chip_GPIO_Init
 *fill*         0x1a00184a        0x2 ff
 .text.Chip_I2C_EventHandler
                0x1a00184c       0x20 app/out/libs/vendor_libs/lpc_chip_43xx/src/i2c_18xx_43xx.o
                0x1a00184c                Chip_I2C_EventHandler
 .text.Chip_I2C_Init
                0x1a00186c       0x24 app/out/libs/vendor_libs/lpc_chip_43xx/src/i2c_18xx_43xx.o
                0x1a00186c                Chip_I2C_Init
 .text.Chip_I2C_SetClockRate
                0x1a001890       0x38 app/out/libs/vendor_libs/lpc_chip_43xx/src/i2c_18xx_43xx.o
                0x1a001890                Chip_I2C_SetClockRate
 .text.Chip_SSP_GetClockIndex
                0x1a0018c8       0x14 app/out/libs/vendor_libs/lpc_chip_43xx/src/ssp_18xx_43xx.o
 .text.Chip_SSP_GetPeriphClockIndex
                0x1a0018dc       0x18 app/out/libs/vendor_libs/lpc_chip_43xx/src/ssp_18xx_43xx.o
 .text.Chip_SSP_SetClockRate
                0x1a0018f4       0x12 app/out/libs/vendor_libs/lpc_chip_43xx/src/ssp_18xx_43xx.o
                0x1a0018f4                Chip_SSP_SetClockRate
 .text.Chip_SSP_SetBitRate
                0x1a001906       0x3e app/out/libs/vendor_libs/lpc_chip_43xx/src/ssp_18xx_43xx.o
                0x1a001906                Chip_SSP_SetBitRate
 .text.Chip_SSP_Init
                0x1a001944       0x38 app/out/libs/vendor_libs/lpc_chip_43xx/src/ssp_18xx_43xx.o
                0x1a001944                Chip_SSP_Init
 .text.Chip_SetupCoreClock
                0x1a00197c      0x154 app/out/libs/vendor_libs/lpc_chip_43xx/src/sysinit_18xx_43xx.o
                0x1a00197c                Chip_SetupCoreClock
 .text.Chip_UART_GetIndex
                0x1a001ad0       0x2c app/out/libs/vendor_libs/lpc_chip_43xx/src/uart_18xx_43xx.o
 .text.Chip_UART_Init
                0x1a001afc       0x54 app/out/libs/vendor_libs/lpc_chip_43xx/src/uart_18xx_43xx.o
                0x1a001afc                Chip_UART_Init
 .text.Chip_UART_SetBaudFDR
                0x1a001b50       0xe8 app/out/libs/vendor_libs/lpc_chip_43xx/src/uart_18xx_43xx.o
                0x1a001b50                Chip_UART_SetBaudFDR
 .text.ResetISR
                0x1a001c38       0x84 app/out/libs/vendor_libs/lpc_startup/src/cr_startup_lpc43xx.o
                0x1a001c38                ResetISR
 .text._init    0x1a001cbc        0x2 app/out/libs/vendor_libs/lpc_startup/src/cr_startup_lpc43xx.o
                0x1a001cbc                _init
 *fill*         0x1a001cbe        0x2 ff
 .text          0x1a001cc0       0xa0 d:/martin/facu/arq 2/embeddedide/gcc-arm-embedded/bin/../lib/gcc/arm-none-eabi/6.3.1/thumb/v7e-m/fpv4-sp/hard\libgcc.a(_aeabi_ldivmod.o)
                0x1a001cc0                __aeabi_ldivmod
 .text          0x1a001d60       0x30 d:/martin/facu/arq 2/embeddedide/gcc-arm-embedded/bin/../lib/gcc/arm-none-eabi/6.3.1/thumb/v7e-m/fpv4-sp/hard\libgcc.a(_aeabi_uldivmod.o)
                0x1a001d60                __aeabi_uldivmod
 .text          0x1a001d90      0x2dc d:/martin/facu/arq 2/embeddedide/gcc-arm-embedded/bin/../lib/gcc/arm-none-eabi/6.3.1/thumb/v7e-m/fpv4-sp/hard\libgcc.a(_udivmoddi4.o)
                0x1a001d90                __udivmoddi4
 .text          0x1a00206c        0x4 d:/martin/facu/arq 2/embeddedide/gcc-arm-embedded/bin/../lib/gcc/arm-none-eabi/6.3.1/thumb/v7e-m/fpv4-sp/hard\libgcc.a(_dvmd_tls.o)
                0x1a00206c                __aeabi_idiv0
                0x1a00206c                __aeabi_ldiv0
 .text.__libc_init_array
                0x1a002070       0x48 d:/martin/facu/arq 2/embeddedide/gcc-arm-embedded/bin/../lib/gcc/arm-none-eabi/6.3.1/../../../../arm-none-eabi/lib/thumb/v7e-m/fpv4-sp/hard\libc_nano.a(lib_a-init.o)
                0x1a002070                __libc_init_array
 .text.memset   0x1a0020b8       0x10 d:/martin/facu/arq 2/embeddedide/gcc-arm-embedded/bin/../lib/gcc/arm-none-eabi/6.3.1/../../../../arm-none-eabi/lib/thumb/v7e-m/fpv4-sp/hard\libc_nano.a(lib_a-memset.o)
                0x1a0020b8                memset
 *(.rodata .rodata.* .constdata .constdata.*)
 .rodata.ActualizarMEF.str1.4
                0x1a0020c8       0x2a app/out/app/src/app.o
 *fill*         0x1a0020f2        0x2 ff
 .rodata.main.str1.4
                0x1a0020f4        0x4 app/out/app/src/app.o
 .rodata.printLineUART.str1.4
                0x1a0020f8        0x7 app/out/app/src/app.o
 *fill*         0x1a0020ff        0x1 ff
 .rodata.gpioPinsInit
                0x1a002100      0x136 app/out/libs/sapi/sapi_v0.5.2/soc/peripherals/src/sapi_gpio.o
                0x1a002100                gpioPinsInit
 *fill*         0x1a002236        0x2 ff
 .rodata.lpcUarts
                0x1a002238       0x48 app/out/libs/sapi/sapi_v0.5.2/soc/peripherals/src/sapi_uart.o
 .rodata.int64ToString.str1.4
                0x1a002280       0x48 app/out/libs/sapi/sapi_v0.5.2/abstract_modules/src/sapi_convert.o
 .rodata.ultrasonicSensorsIrqMap
                0x1a0022c8        0x3 app/out/libs/sapi/sapi_v0.5.2/external_peripherals/src/sapi_ultrasonic_hcsr04.o
 *fill*         0x1a0022cb        0x1 ff
 .rodata.ExtRateIn
                0x1a0022cc        0x4 app/out/libs/vendor_libs/lpc_board_ciaa_edu_4337/src/board.o
                0x1a0022cc                ExtRateIn
 .rodata.GpioButtons
                0x1a0022d0        0x8 app/out/libs/vendor_libs/lpc_board_ciaa_edu_4337/src/board.o
 .rodata.GpioLeds
                0x1a0022d8        0xc app/out/libs/vendor_libs/lpc_board_ciaa_edu_4337/src/board.o
 .rodata.GpioPorts
                0x1a0022e4       0x12 app/out/libs/vendor_libs/lpc_board_ciaa_edu_4337/src/board.o
 *fill*         0x1a0022f6        0x2 ff
 .rodata.OscRateIn
                0x1a0022f8        0x4 app/out/libs/vendor_libs/lpc_board_ciaa_edu_4337/src/board.o
                0x1a0022f8                OscRateIn
 .rodata.InitClkStates
                0x1a0022fc        0x4 app/out/libs/vendor_libs/lpc_board_ciaa_edu_4337/src/board_sysinit.o
 .rodata.pinmuxing
                0x1a002300       0x74 app/out/libs/vendor_libs/lpc_board_ciaa_edu_4337/src/board_sysinit.o
 .rodata        0x1a002374        0x4 app/out/libs/vendor_libs/lpc_chip_43xx/src/clock_18xx_43xx.o
 .rodata.Chip_Clock_SetDivider.str1.4
                0x1a002378        0x8 app/out/libs/vendor_libs/lpc_chip_43xx/src/clock_18xx_43xx.o
                                  0x6 (size before relaxing)
 .rodata.periph_to_base
                0x1a002380       0x6c app/out/libs/vendor_libs/lpc_chip_43xx/src/clock_18xx_43xx.o
 .rodata.InitClkStates
                0x1a0023ec       0x48 app/out/libs/vendor_libs/lpc_chip_43xx/src/sysinit_18xx_43xx.o
 .rodata.UART_BClock
                0x1a002434        0x8 app/out/libs/vendor_libs/lpc_chip_43xx/src/uart_18xx_43xx.o
 .rodata.UART_PClock
                0x1a00243c        0x8 app/out/libs/vendor_libs/lpc_chip_43xx/src/uart_18xx_43xx.o
                0x1a002444                . = ALIGN (0x4)

.glue_7         0x1a002444        0x0
 .glue_7        0x1a002444        0x0 linker stubs

.glue_7t        0x1a002444        0x0
 .glue_7t       0x1a002444        0x0 linker stubs

.vfp11_veneer   0x1a002444        0x0
 .vfp11_veneer  0x1a002444        0x0 linker stubs

.v4_bx          0x1a002444        0x0
 .v4_bx         0x1a002444        0x0 linker stubs

.iplt           0x1a002444        0x0
 .iplt          0x1a002444        0x0 app/out/app/src/app.o
                0x1a002444                . = ALIGN (0x4)

.preinit_array  0x1a002444        0x0
                0x1a002444                PROVIDE (__preinit_array_start, .)
 *(.preinit_array*)
                0x1a002444                PROVIDE (__preinit_array_end, .)

.init_array     0x1a002444        0x0
                0x1a002444                PROVIDE (__init_array_start, .)
 *(SORT(.init_array.*))
 *(.init_array*)
                0x1a002444                PROVIDE (__init_array_end, .)
                0x1a002444                . = ALIGN (0x4)

.ARM.extab
 *(.ARM.extab* .gnu.linkonce.armextab.*)
                0x1a002444                __exidx_start = .

.ARM.exidx      0x1a002444        0x8
 *(.ARM.exidx* .gnu.linkonce.armexidx.*)
 .ARM.exidx     0x1a002444        0x8 d:/martin/facu/arq 2/embeddedide/gcc-arm-embedded/bin/../lib/gcc/arm-none-eabi/6.3.1/thumb/v7e-m/fpv4-sp/hard\libgcc.a(_udivmoddi4.o)
                0x1a00244c                __exidx_end = .
                0x1a00244c                _etext = .

.rel.dyn        0x1a00244c        0x0
 .rel.iplt      0x1a00244c        0x0 app/out/app/src/app.o

.data_RAM2      0x10080000        0x0 load address 0x1a00244c
 FILL mask 0xff
 *(.ramfunc.$RAM2)
 *(.ramfunc.$RamLoc40)
 *(.data.$RAM2*)
 *(.data.$RamLoc40*)
                0x10080000                . = ALIGN (0x4)

.data_RAM3      0x20000000        0x0 load address 0x1a00244c
 FILL mask 0xff
 *(.ramfunc.$RAM3)
 *(.ramfunc.$RamAHB32)
 *(.data.$RAM3*)
 *(.data.$RamAHB32*)
                0x20000000                . = ALIGN (0x4)

.data_RAM4      0x20008000        0x0 load address 0x1a00244c
 FILL mask 0xff
 *(.ramfunc.$RAM4)
 *(.ramfunc.$RamAHB16)
 *(.data.$RAM4*)
 *(.data.$RamAHB16*)
                0x20008000                . = ALIGN (0x4)

.data_RAM5      0x2000c000        0x0 load address 0x1a00244c
 FILL mask 0xff
 *(.ramfunc.$RAM5)
 *(.ramfunc.$RamAHB_ETB16)
 *(.data.$RAM5*)
 *(.data.$RamAHB_ETB16*)
                0x2000c000                . = ALIGN (0x4)

.uninit_RESERVED
                0x10000000        0x0
 *(.bss.$RESERVED*)
                0x10000000                . = ALIGN (0x4)
                0x10000000                _end_uninit_RESERVED = .

.data           0x10000000      0x154 load address 0x1a00244c
 FILL mask 0xff
                0x10000000                _data = .
 *(vtable)
 *(.ramfunc*)
 *(.data*)
 .data.charsVec
                0x10000000       0x1a app/out/app/src/driverDisplay7Seg.o
                0x10000000                charsVec
 *fill*         0x1000001a        0x2 ff
 .data.display7SegmentosPines
                0x1000001c        0x8 app/out/app/src/driverDisplay7Seg.o
                0x1000001c                display7SegmentosPines
 .data.display7SegmentosPinesDigitos
                0x10000024        0x4 app/out/app/src/driverDisplay7Seg.o
                0x10000024                display7SegmentosPinesDigitos
 .data.display7SegmentosSalidas
                0x10000028       0x1a app/out/app/src/driverDisplay7Seg.o
                0x10000028                display7SegmentosSalidas
 *fill*         0x10000042        0x2 ff
 .data.asciiKeypadKeys
                0x10000044       0x20 app/out/app/src/driverTecladoMatricial.o
                0x10000044                asciiKeypadKeys
 .data.keypadColPins
                0x10000064        0x4 app/out/app/src/driverTecladoMatricial.o
                0x10000064                keypadColPins
 .data.keypadKeys
                0x10000068       0x20 app/out/app/src/driverTecladoMatricial.o
                0x10000068                keypadKeys
 .data.keypadRowPins
                0x10000088        0x4 app/out/app/src/driverTecladoMatricial.o
                0x10000088                keypadRowPins
 .data.ClockSpeed
                0x1000008c        0x4 app/out/libs/sapi/sapi_v0.5.2/soc/core/src/sapi_cyclesCounter.o
 .data.DWT_CTRL
                0x10000090        0x4 app/out/libs/sapi/sapi_v0.5.2/soc/core/src/sapi_cyclesCounter.o
                0x10000090                DWT_CTRL
 .data.timer_dd
                0x10000094       0x40 app/out/libs/sapi/sapi_v0.5.2/soc/peripherals/src/sapi_timer.o
 .data.ultrasonicSensors
                0x100000d4       0x48 app/out/libs/sapi/sapi_v0.5.2/external_peripherals/src/sapi_ultrasonic_hcsr04.o
 .data.i2c      0x1000011c       0x38 app/out/libs/vendor_libs/lpc_chip_43xx/src/i2c_18xx_43xx.o
                0x10000154                . = ALIGN (0x4)
                0x10000154                _edata = .

.igot.plt       0x10000154        0x0 load address 0x1a0025a0
 .igot.plt      0x10000154        0x0 app/out/app/src/app.o

.bss_RAM2       0x10080000        0x0
 *(.bss.$RAM2*)
 *(.bss.$RamLoc40*)
                0x10080000                . = ALIGN (0x4)

.bss_RAM3       0x20000000        0x0
 *(.bss.$RAM3*)
 *(.bss.$RamAHB32*)
                0x20000000                . = ALIGN (0x4)

.bss_RAM4       0x20008000        0x0
 *(.bss.$RAM4*)
 *(.bss.$RamAHB16*)
                0x20008000                . = ALIGN (0x4)

.bss_RAM5       0x2000c000        0x0
 *(.bss.$RAM5*)
 *(.bss.$RamAHB_ETB16*)
                0x2000c000                . = ALIGN (0x4)

.bss            0x10000158       0x90
                0x10000158                _bss = .
 *(.bss*)
 .bss.numeroTemporal
                0x10000158        0x2 app/out/app/src/app.o
                0x10000158                numeroTemporal
 .bss.primerNumero
                0x1000015a        0x2 app/out/app/src/app.o
                0x1000015a                primerNumero
 .bss.result    0x1000015c        0x4 app/out/app/src/app.o
                0x1000015c                result
 .bss.resultado
                0x10000160        0x2 app/out/app/src/app.o
                0x10000160                resultado
 .bss.segundoNumero
                0x10000162        0x2 app/out/app/src/app.o
                0x10000162                segundoNumero
 *fill*         0x10000164        0x4 
 .bss.cambiarDigito
                0x10000168       0x18 app/out/app/src/driverDisplay7Seg.o
 .bss.k         0x10000180        0x1 app/out/app/src/driverDisplay7Seg.o
 *fill*         0x10000181        0x7 
 .bss.refrescarDisplay
                0x10000188       0x18 app/out/app/src/driverDisplay7Seg.o
 .bss.key       0x100001a0        0x2 app/out/app/src/driverTecladoMatricial.o
                0x100001a0                key
 *fill*         0x100001a2        0x2 
 .bss.callBackFuncParams
                0x100001a4        0x4 app/out/libs/sapi/sapi_v0.5.2/soc/peripherals/src/sapi_tick.o
 .bss.tickCounter
                0x100001a8        0x8 app/out/libs/sapi/sapi_v0.5.2/soc/peripherals/src/sapi_tick.o
 .bss.tickHookFunction
                0x100001b0        0x4 app/out/libs/sapi/sapi_v0.5.2/soc/peripherals/src/sapi_tick.o
 .bss.g_hUsb    0x100001b4        0x4 app/out/libs/sapi/sapi_v0.5.2/soc/peripherals/usb/device/src/sapi_usb_device.o
 .bss.result.11182
                0x100001b8       0x14 app/out/libs/sapi/sapi_v0.5.2/abstract_modules/src/sapi_convert.o
 .bss.audio_usb_pll_freq
                0x100001cc        0x8 app/out/libs/vendor_libs/lpc_chip_43xx/src/clock_18xx_43xx.o
 *(COMMON)
 COMMON         0x100001d4        0x2 app/out/app/src/app.o
                0x100001d4                estadoActual
                0x100001d5                operacion
 *fill*         0x100001d6        0x2 
 COMMON         0x100001d8        0x8 app/out/libs/sapi/sapi_v0.5.2/soc/peripherals/src/sapi_tick.o
                0x100001d8                tickRateMS
 COMMON         0x100001e0        0x4 app/out/libs/sapi/sapi_v0.5.2/soc/peripherals/usb/device/src/sapi_usb_device.o
                0x100001e0                g_pUsbApi
 COMMON         0x100001e4        0x4 app/out/libs/vendor_libs/lpc_chip_43xx/src/chip_18xx_43xx.o
                0x100001e4                SystemCoreClock
                0x100001e8                . = ALIGN (0x4)
                0x100001e8                _ebss = .
                [!provide]                PROVIDE (end, .)

.noinit_RAM2    0x10080000        0x0
 *(.noinit.$RAM2*)
 *(.noinit.$RamLoc40*)
                0x10080000                . = ALIGN (0x4)

.noinit_RAM3    0x20000000        0x0
 *(.noinit.$RAM3*)
 *(.noinit.$RamAHB32*)
                0x20000000                . = ALIGN (0x4)

.noinit_RAM4    0x20008000        0x0
 *(.noinit.$RAM4*)
 *(.noinit.$RamAHB16*)
                0x20008000                . = ALIGN (0x4)

.noinit_RAM5    0x2000c000        0x0
 *(.noinit.$RAM5*)
 *(.noinit.$RamAHB_ETB16*)
                0x2000c000                . = ALIGN (0x4)

.noinit         0x100001e8        0x0
                0x100001e8                _noinit = .
 *(.noinit*)
                0x100001e8                . = ALIGN (0x4)
                0x100001e8                _end_noinit = .
                0x100001e8                PROVIDE (_pvHeapStart, .)
                0x10008000                PROVIDE (_vStackTop, (__top_RamLoc32 - 0x0))
                0x53ff5c56                PROVIDE (__valid_user_code_checksum, (0x0 - ((((((_vStackTop + (ResetISR + 0x1)) + (NMI_Handler + 0x1)) + (HardFault_Handler + 0x1)) + (DEFINED (MemManage_Handler)?MemManage_Handler:0x0 + 0x1)) + (DEFINED (BusFault_Handler)?BusFault_Handler:0x0 + 0x1)) + (DEFINED (UsageFault_Handler)?UsageFault_Handler:0x0 + 0x1))))
OUTPUT(app/out/app.elf elf32-littlearm)

.debug_info     0x00000000    0x2311b
 .debug_info    0x00000000     0x27b2 app/out/app/src/app.o
 .debug_info    0x000027b2     0x27d1 app/out/app/src/driverDisplay7Seg.o
 .debug_info    0x00004f83     0x2659 app/out/app/src/driverTecladoMatricial.o
 .debug_info    0x000075dc      0xec5 app/out/libs/sapi/sapi_v0.5.2/soc/core/src/sapi_cyclesCounter.o
 .debug_info    0x000084a1     0x1a8d app/out/libs/sapi/sapi_v0.5.2/soc/peripherals/src/sapi_gpio.o
 .debug_info    0x00009f2e     0x14a0 app/out/libs/sapi/sapi_v0.5.2/soc/peripherals/src/sapi_tick.o
 .debug_info    0x0000b3ce     0x1d0c app/out/libs/sapi/sapi_v0.5.2/soc/peripherals/src/sapi_timer.o
 .debug_info    0x0000d0da     0x1d40 app/out/libs/sapi/sapi_v0.5.2/soc/peripherals/src/sapi_uart.o
 .debug_info    0x0000ee1a     0x3302 app/out/libs/sapi/sapi_v0.5.2/soc/peripherals/usb/device/src/sapi_usb_device.o
 .debug_info    0x0001211c      0xdb7 app/out/libs/sapi/sapi_v0.5.2/board/src/sapi_board.o
 .debug_info    0x00012ed3      0xb4a app/out/libs/sapi/sapi_v0.5.2/abstract_modules/src/sapi_convert.o
 .debug_info    0x00013a1d      0xb97 app/out/libs/sapi/sapi_v0.5.2/abstract_modules/src/sapi_delay.o
 .debug_info    0x000145b4     0x1df6 app/out/libs/sapi/sapi_v0.5.2/external_peripherals/src/sapi_ultrasonic_hcsr04.o
 .debug_info    0x000163aa     0x20a8 app/out/libs/vendor_libs/lpc_board_ciaa_edu_4337/src/board.o
 .debug_info    0x00018452     0x14c1 app/out/libs/vendor_libs/lpc_board_ciaa_edu_4337/src/board_sysinit.o
 .debug_info    0x00019913      0x962 app/out/libs/vendor_libs/lpc_board_ciaa_edu_4337/src/sysinit.o
 .debug_info    0x0001a275      0xaed app/out/libs/vendor_libs/lpc_chip_43xx/src/adc_18xx_43xx.o
 .debug_info    0x0001ad62      0xc3b app/out/libs/vendor_libs/lpc_chip_43xx/src/chip_18xx_43xx.o
 .debug_info    0x0001b99d     0x18e4 app/out/libs/vendor_libs/lpc_chip_43xx/src/clock_18xx_43xx.o
 .debug_info    0x0001d281      0x14c app/out/libs/vendor_libs/lpc_chip_43xx/src/fpu_init.o
 .debug_info    0x0001d3cd      0x220 app/out/libs/vendor_libs/lpc_chip_43xx/src/gpio_18xx_43xx.o
 .debug_info    0x0001d5ed     0x1361 app/out/libs/vendor_libs/lpc_chip_43xx/src/i2c_18xx_43xx.o
 .debug_info    0x0001e94e     0x1605 app/out/libs/vendor_libs/lpc_chip_43xx/src/ssp_18xx_43xx.o
 .debug_info    0x0001ff53      0xaae app/out/libs/vendor_libs/lpc_chip_43xx/src/sysinit_18xx_43xx.o
 .debug_info    0x00020a01     0x164c app/out/libs/vendor_libs/lpc_chip_43xx/src/uart_18xx_43xx.o
 .debug_info    0x0002204d     0x108f app/out/libs/vendor_libs/lpc_startup/src/cr_startup_lpc43xx.o
 .debug_info    0x000230dc       0x3f app/out/libs/vendor_libs/lpc_startup/src/crp.o

.debug_abbrev   0x00000000     0x4933
 .debug_abbrev  0x00000000      0x310 app/out/app/src/app.o
 .debug_abbrev  0x00000310      0x323 app/out/app/src/driverDisplay7Seg.o
 .debug_abbrev  0x00000633      0x2e7 app/out/app/src/driverTecladoMatricial.o
 .debug_abbrev  0x0000091a      0x280 app/out/libs/sapi/sapi_v0.5.2/soc/core/src/sapi_cyclesCounter.o
 .debug_abbrev  0x00000b9a      0x385 app/out/libs/sapi/sapi_v0.5.2/soc/peripherals/src/sapi_gpio.o
 .debug_abbrev  0x00000f1f      0x364 app/out/libs/sapi/sapi_v0.5.2/soc/peripherals/src/sapi_tick.o
 .debug_abbrev  0x00001283      0x3c9 app/out/libs/sapi/sapi_v0.5.2/soc/peripherals/src/sapi_timer.o
 .debug_abbrev  0x0000164c      0x3de app/out/libs/sapi/sapi_v0.5.2/soc/peripherals/src/sapi_uart.o
 .debug_abbrev  0x00001a2a      0x3e2 app/out/libs/sapi/sapi_v0.5.2/soc/peripherals/usb/device/src/sapi_usb_device.o
 .debug_abbrev  0x00001e0c      0x214 app/out/libs/sapi/sapi_v0.5.2/board/src/sapi_board.o
 .debug_abbrev  0x00002020      0x23e app/out/libs/sapi/sapi_v0.5.2/abstract_modules/src/sapi_convert.o
 .debug_abbrev  0x0000225e      0x241 app/out/libs/sapi/sapi_v0.5.2/abstract_modules/src/sapi_delay.o
 .debug_abbrev  0x0000249f      0x3d3 app/out/libs/sapi/sapi_v0.5.2/external_peripherals/src/sapi_ultrasonic_hcsr04.o
 .debug_abbrev  0x00002872      0x451 app/out/libs/vendor_libs/lpc_board_ciaa_edu_4337/src/board.o
 .debug_abbrev  0x00002cc3      0x2f4 app/out/libs/vendor_libs/lpc_board_ciaa_edu_4337/src/board_sysinit.o
 .debug_abbrev  0x00002fb7      0x1de app/out/libs/vendor_libs/lpc_board_ciaa_edu_4337/src/sysinit.o
 .debug_abbrev  0x00003195      0x1f5 app/out/libs/vendor_libs/lpc_chip_43xx/src/adc_18xx_43xx.o
 .debug_abbrev  0x0000338a      0x1bf app/out/libs/vendor_libs/lpc_chip_43xx/src/chip_18xx_43xx.o
 .debug_abbrev  0x00003549      0x36f app/out/libs/vendor_libs/lpc_chip_43xx/src/clock_18xx_43xx.o
 .debug_abbrev  0x000038b8       0xa2 app/out/libs/vendor_libs/lpc_chip_43xx/src/fpu_init.o
 .debug_abbrev  0x0000395a      0x100 app/out/libs/vendor_libs/lpc_chip_43xx/src/gpio_18xx_43xx.o
 .debug_abbrev  0x00003a5a      0x340 app/out/libs/vendor_libs/lpc_chip_43xx/src/i2c_18xx_43xx.o
 .debug_abbrev  0x00003d9a      0x33d app/out/libs/vendor_libs/lpc_chip_43xx/src/ssp_18xx_43xx.o
 .debug_abbrev  0x000040d7      0x1ff app/out/libs/vendor_libs/lpc_chip_43xx/src/sysinit_18xx_43xx.o
 .debug_abbrev  0x000042d6      0x3b3 app/out/libs/vendor_libs/lpc_chip_43xx/src/uart_18xx_43xx.o
 .debug_abbrev  0x00004689      0x274 app/out/libs/vendor_libs/lpc_startup/src/cr_startup_lpc43xx.o
 .debug_abbrev  0x000048fd       0x36 app/out/libs/vendor_libs/lpc_startup/src/crp.o

.debug_loc      0x00000000     0x74ce
 .debug_loc     0x00000000      0x151 app/out/app/src/app.o
 .debug_loc     0x00000151      0x1ab app/out/app/src/driverDisplay7Seg.o
 .debug_loc     0x000002fc       0xf8 app/out/app/src/driverTecladoMatricial.o
 .debug_loc     0x000003f4       0x8e app/out/libs/sapi/sapi_v0.5.2/soc/core/src/sapi_cyclesCounter.o
 .debug_loc     0x00000482      0x7e4 app/out/libs/sapi/sapi_v0.5.2/soc/peripherals/src/sapi_gpio.o
 .debug_loc     0x00000c66      0x167 app/out/libs/sapi/sapi_v0.5.2/soc/peripherals/src/sapi_tick.o
 .debug_loc     0x00000dcd      0x7c0 app/out/libs/sapi/sapi_v0.5.2/soc/peripherals/src/sapi_timer.o
 .debug_loc     0x0000158d      0x7c8 app/out/libs/sapi/sapi_v0.5.2/soc/peripherals/src/sapi_uart.o
 .debug_loc     0x00001d55      0x34f app/out/libs/sapi/sapi_v0.5.2/soc/peripherals/usb/device/src/sapi_usb_device.o
 .debug_loc     0x000020a4      0x354 app/out/libs/sapi/sapi_v0.5.2/abstract_modules/src/sapi_convert.o
 .debug_loc     0x000023f8      0x1d7 app/out/libs/sapi/sapi_v0.5.2/abstract_modules/src/sapi_delay.o
 .debug_loc     0x000025cf      0x4ad app/out/libs/sapi/sapi_v0.5.2/external_peripherals/src/sapi_ultrasonic_hcsr04.o
 .debug_loc     0x00002a7c      0x58f app/out/libs/vendor_libs/lpc_board_ciaa_edu_4337/src/board.o
 .debug_loc     0x0000300b       0xf5 app/out/libs/vendor_libs/lpc_board_ciaa_edu_4337/src/board_sysinit.o
 .debug_loc     0x00003100      0x673 app/out/libs/vendor_libs/lpc_chip_43xx/src/adc_18xx_43xx.o
 .debug_loc     0x00003773     0x1295 app/out/libs/vendor_libs/lpc_chip_43xx/src/clock_18xx_43xx.o
 .debug_loc     0x00004a08       0x2b app/out/libs/vendor_libs/lpc_chip_43xx/src/fpu_init.o
 .debug_loc     0x00004a33      0xc42 app/out/libs/vendor_libs/lpc_chip_43xx/src/i2c_18xx_43xx.o
 .debug_loc     0x00005675      0xd79 app/out/libs/vendor_libs/lpc_chip_43xx/src/ssp_18xx_43xx.o
 .debug_loc     0x000063ee      0x1b5 app/out/libs/vendor_libs/lpc_chip_43xx/src/sysinit_18xx_43xx.o
 .debug_loc     0x000065a3      0xd25 app/out/libs/vendor_libs/lpc_chip_43xx/src/uart_18xx_43xx.o
 .debug_loc     0x000072c8      0x206 app/out/libs/vendor_libs/lpc_startup/src/cr_startup_lpc43xx.o

.debug_aranges  0x00000000      0xa00
 .debug_aranges
                0x00000000       0x40 app/out/app/src/app.o
 .debug_aranges
                0x00000040       0x48 app/out/app/src/driverDisplay7Seg.o
 .debug_aranges
                0x00000088       0x28 app/out/app/src/driverTecladoMatricial.o
 .debug_aranges
                0x000000b0       0x40 app/out/libs/sapi/sapi_v0.5.2/soc/core/src/sapi_cyclesCounter.o
 .debug_aranges
                0x000000f0       0x40 app/out/libs/sapi/sapi_v0.5.2/soc/peripherals/src/sapi_gpio.o
 .debug_aranges
                0x00000130       0x48 app/out/libs/sapi/sapi_v0.5.2/soc/peripherals/src/sapi_tick.o
 .debug_aranges
                0x00000178       0x78 app/out/libs/sapi/sapi_v0.5.2/soc/peripherals/src/sapi_timer.o
 .debug_aranges
                0x000001f0       0x80 app/out/libs/sapi/sapi_v0.5.2/soc/peripherals/src/sapi_uart.o
 .debug_aranges
                0x00000270       0x50 app/out/libs/sapi/sapi_v0.5.2/soc/peripherals/usb/device/src/sapi_usb_device.o
 .debug_aranges
                0x000002c0       0x20 app/out/libs/sapi/sapi_v0.5.2/board/src/sapi_board.o
 .debug_aranges
                0x000002e0       0x38 app/out/libs/sapi/sapi_v0.5.2/abstract_modules/src/sapi_convert.o
 .debug_aranges
                0x00000318       0x50 app/out/libs/sapi/sapi_v0.5.2/abstract_modules/src/sapi_delay.o
 .debug_aranges
                0x00000368       0x70 app/out/libs/sapi/sapi_v0.5.2/external_peripherals/src/sapi_ultrasonic_hcsr04.o
 .debug_aranges
                0x000003d8       0xa8 app/out/libs/vendor_libs/lpc_board_ciaa_edu_4337/src/board.o
 .debug_aranges
                0x00000480       0x30 app/out/libs/vendor_libs/lpc_board_ciaa_edu_4337/src/board_sysinit.o
 .debug_aranges
                0x000004b0       0x20 app/out/libs/vendor_libs/lpc_board_ciaa_edu_4337/src/sysinit.o
 .debug_aranges
                0x000004d0       0x90 app/out/libs/vendor_libs/lpc_chip_43xx/src/adc_18xx_43xx.o
 .debug_aranges
                0x00000560       0x38 app/out/libs/vendor_libs/lpc_chip_43xx/src/chip_18xx_43xx.o
 .debug_aranges
                0x00000598      0x128 app/out/libs/vendor_libs/lpc_chip_43xx/src/clock_18xx_43xx.o
 .debug_aranges
                0x000006c0       0x20 app/out/libs/vendor_libs/lpc_chip_43xx/src/fpu_init.o
 .debug_aranges
                0x000006e0       0x28 app/out/libs/vendor_libs/lpc_chip_43xx/src/gpio_18xx_43xx.o
 .debug_aranges
                0x00000708       0xd8 app/out/libs/vendor_libs/lpc_chip_43xx/src/i2c_18xx_43xx.o
 .debug_aranges
                0x000007e0       0xa0 app/out/libs/vendor_libs/lpc_chip_43xx/src/ssp_18xx_43xx.o
 .debug_aranges
                0x00000880       0x38 app/out/libs/vendor_libs/lpc_chip_43xx/src/sysinit_18xx_43xx.o
 .debug_aranges
                0x000008b8       0xa8 app/out/libs/vendor_libs/lpc_chip_43xx/src/uart_18xx_43xx.o
 .debug_aranges
                0x00000960       0x88 app/out/libs/vendor_libs/lpc_startup/src/cr_startup_lpc43xx.o
 .debug_aranges
                0x000009e8       0x18 app/out/libs/vendor_libs/lpc_startup/src/crp.o

.debug_ranges   0x00000000      0x998
 .debug_ranges  0x00000000       0x30 app/out/app/src/app.o
 .debug_ranges  0x00000030       0x38 app/out/app/src/driverDisplay7Seg.o
 .debug_ranges  0x00000068       0x18 app/out/app/src/driverTecladoMatricial.o
 .debug_ranges  0x00000080       0x30 app/out/libs/sapi/sapi_v0.5.2/soc/core/src/sapi_cyclesCounter.o
 .debug_ranges  0x000000b0       0x30 app/out/libs/sapi/sapi_v0.5.2/soc/peripherals/src/sapi_gpio.o
 .debug_ranges  0x000000e0       0x38 app/out/libs/sapi/sapi_v0.5.2/soc/peripherals/src/sapi_tick.o
 .debug_ranges  0x00000118       0x80 app/out/libs/sapi/sapi_v0.5.2/soc/peripherals/src/sapi_timer.o
 .debug_ranges  0x00000198       0x70 app/out/libs/sapi/sapi_v0.5.2/soc/peripherals/src/sapi_uart.o
 .debug_ranges  0x00000208       0x40 app/out/libs/sapi/sapi_v0.5.2/soc/peripherals/usb/device/src/sapi_usb_device.o
 .debug_ranges  0x00000248       0x10 app/out/libs/sapi/sapi_v0.5.2/board/src/sapi_board.o
 .debug_ranges  0x00000258       0x28 app/out/libs/sapi/sapi_v0.5.2/abstract_modules/src/sapi_convert.o
 .debug_ranges  0x00000280       0x40 app/out/libs/sapi/sapi_v0.5.2/abstract_modules/src/sapi_delay.o
 .debug_ranges  0x000002c0       0x60 app/out/libs/sapi/sapi_v0.5.2/external_peripherals/src/sapi_ultrasonic_hcsr04.o
 .debug_ranges  0x00000320       0xe0 app/out/libs/vendor_libs/lpc_board_ciaa_edu_4337/src/board.o
 .debug_ranges  0x00000400       0x50 app/out/libs/vendor_libs/lpc_board_ciaa_edu_4337/src/board_sysinit.o
 .debug_ranges  0x00000450       0x10 app/out/libs/vendor_libs/lpc_board_ciaa_edu_4337/src/sysinit.o
 .debug_ranges  0x00000460       0x80 app/out/libs/vendor_libs/lpc_chip_43xx/src/adc_18xx_43xx.o
 .debug_ranges  0x000004e0       0x28 app/out/libs/vendor_libs/lpc_chip_43xx/src/chip_18xx_43xx.o
 .debug_ranges  0x00000508      0x190 app/out/libs/vendor_libs/lpc_chip_43xx/src/clock_18xx_43xx.o
 .debug_ranges  0x00000698       0x10 app/out/libs/vendor_libs/lpc_chip_43xx/src/fpu_init.o
 .debug_ranges  0x000006a8       0x18 app/out/libs/vendor_libs/lpc_chip_43xx/src/gpio_18xx_43xx.o
 .debug_ranges  0x000006c0       0xc8 app/out/libs/vendor_libs/lpc_chip_43xx/src/i2c_18xx_43xx.o
 .debug_ranges  0x00000788       0xc0 app/out/libs/vendor_libs/lpc_chip_43xx/src/ssp_18xx_43xx.o
 .debug_ranges  0x00000848       0x28 app/out/libs/vendor_libs/lpc_chip_43xx/src/sysinit_18xx_43xx.o
 .debug_ranges  0x00000870       0xb0 app/out/libs/vendor_libs/lpc_chip_43xx/src/uart_18xx_43xx.o
 .debug_ranges  0x00000920       0x78 app/out/libs/vendor_libs/lpc_startup/src/cr_startup_lpc43xx.o

.debug_macro    0x00000000     0xcd53
 .debug_macro   0x00000000      0x67e app/out/app/src/app.o
 .debug_macro   0x0000067e      0x8b0 app/out/app/src/app.o
 .debug_macro   0x00000f2e       0x22 app/out/app/src/app.o
 .debug_macro   0x00000f50       0x4f app/out/app/src/app.o
 .debug_macro   0x00000f9f       0x51 app/out/app/src/app.o
 .debug_macro   0x00000ff0       0xef app/out/app/src/app.o
 .debug_macro   0x000010df       0x6a app/out/app/src/app.o
 .debug_macro   0x00001149      0x1df app/out/app/src/app.o
 .debug_macro   0x00001328       0x10 app/out/app/src/app.o
 .debug_macro   0x00001338       0x22 app/out/app/src/app.o
 .debug_macro   0x0000135a       0x73 app/out/app/src/app.o
 .debug_macro   0x000013cd       0x28 app/out/app/src/app.o
 .debug_macro   0x000013f5       0x3b app/out/app/src/app.o
 .debug_macro   0x00001430       0x2d app/out/app/src/app.o
 .debug_macro   0x0000145d       0x42 app/out/app/src/app.o
 .debug_macro   0x0000149f      0xd39 app/out/app/src/app.o
 .debug_macro   0x000021d8      0x2c3 app/out/app/src/app.o
 .debug_macro   0x0000249b      0x112 app/out/app/src/app.o
 .debug_macro   0x000025ad       0x11 app/out/app/src/app.o
 .debug_macro   0x000025be       0x2a app/out/app/src/app.o
 .debug_macro   0x000025e8       0x16 app/out/app/src/app.o
 .debug_macro   0x000025fe      0x2e6 app/out/app/src/app.o
 .debug_macro   0x000028e4       0x82 app/out/app/src/app.o
 .debug_macro   0x00002966      0x13d app/out/app/src/app.o
 .debug_macro   0x00002aa3      0x198 app/out/app/src/app.o
 .debug_macro   0x00002c3b       0x34 app/out/app/src/app.o
 .debug_macro   0x00002c6f       0x58 app/out/app/src/app.o
 .debug_macro   0x00002cc7      0x236 app/out/app/src/app.o
 .debug_macro   0x00002efd      0x572 app/out/app/src/app.o
 .debug_macro   0x0000346f       0x16 app/out/app/src/app.o
 .debug_macro   0x00003485      0x18a app/out/app/src/app.o
 .debug_macro   0x0000360f       0x88 app/out/app/src/app.o
 .debug_macro   0x00003697      0x1b9 app/out/app/src/app.o
 .debug_macro   0x00003850      0x1da app/out/app/src/app.o
 .debug_macro   0x00003a2a       0x40 app/out/app/src/app.o
 .debug_macro   0x00003a6a       0x1c app/out/app/src/app.o
 .debug_macro   0x00003a86       0x2e app/out/app/src/app.o
 .debug_macro   0x00003ab4       0x2e app/out/app/src/app.o
 .debug_macro   0x00003ae2       0x22 app/out/app/src/app.o
 .debug_macro   0x00003b04      0x201 app/out/app/src/app.o
 .debug_macro   0x00003d05       0xe0 app/out/app/src/app.o
 .debug_macro   0x00003de5      0x34c app/out/app/src/app.o
 .debug_macro   0x00004131       0xdc app/out/app/src/app.o
 .debug_macro   0x0000420d       0xc4 app/out/app/src/app.o
 .debug_macro   0x000042d1       0x8f app/out/app/src/app.o
 .debug_macro   0x00004360       0x94 app/out/app/src/app.o
 .debug_macro   0x000043f4       0xb8 app/out/app/src/app.o
 .debug_macro   0x000044ac       0x4c app/out/app/src/app.o
 .debug_macro   0x000044f8       0x16 app/out/app/src/app.o
 .debug_macro   0x0000450e      0x328 app/out/app/src/app.o
 .debug_macro   0x00004836       0x3a app/out/app/src/app.o
 .debug_macro   0x00004870       0xd0 app/out/app/src/app.o
 .debug_macro   0x00004940       0x18 app/out/app/src/app.o
 .debug_macro   0x00004958       0x22 app/out/app/src/app.o
 .debug_macro   0x0000497a       0x40 app/out/app/src/app.o
 .debug_macro   0x000049ba       0x58 app/out/app/src/app.o
 .debug_macro   0x00004a12       0x35 app/out/app/src/app.o
 .debug_macro   0x00004a47       0x9c app/out/app/src/app.o
 .debug_macro   0x00004ae3       0x16 app/out/app/src/app.o
 .debug_macro   0x00004af9       0x97 app/out/app/src/app.o
 .debug_macro   0x00004b90      0x330 app/out/app/src/app.o
 .debug_macro   0x00004ec0       0xf6 app/out/app/src/app.o
 .debug_macro   0x00004fb6       0x10 app/out/app/src/app.o
 .debug_macro   0x00004fc6       0x58 app/out/app/src/app.o
 .debug_macro   0x0000501e       0x1f app/out/app/src/app.o
 .debug_macro   0x0000503d       0x43 app/out/app/src/app.o
 .debug_macro   0x00005080       0x20 app/out/app/src/app.o
 .debug_macro   0x000050a0      0x187 app/out/app/src/app.o
 .debug_macro   0x00005227       0x10 app/out/app/src/app.o
 .debug_macro   0x00005237       0xb6 app/out/app/src/app.o
 .debug_macro   0x000052ed       0x16 app/out/app/src/app.o
 .debug_macro   0x00005303      0x145 app/out/app/src/app.o
 .debug_macro   0x00005448       0x20 app/out/app/src/app.o
 .debug_macro   0x00005468       0xee app/out/app/src/app.o
 .debug_macro   0x00005556       0x1c app/out/app/src/app.o
 .debug_macro   0x00005572       0x10 app/out/app/src/app.o
 .debug_macro   0x00005582       0x10 app/out/app/src/app.o
 .debug_macro   0x00005592       0x10 app/out/app/src/app.o
 .debug_macro   0x000055a2       0x10 app/out/app/src/app.o
 .debug_macro   0x000055b2       0x1c app/out/app/src/app.o
 .debug_macro   0x000055ce       0x10 app/out/app/src/app.o
 .debug_macro   0x000055de       0x10 app/out/app/src/app.o
 .debug_macro   0x000055ee       0x40 app/out/app/src/app.o
 .debug_macro   0x0000562e       0x10 app/out/app/src/app.o
 .debug_macro   0x0000563e       0x10 app/out/app/src/app.o
 .debug_macro   0x0000564e       0x16 app/out/app/src/app.o
 .debug_macro   0x00005664      0x26c app/out/app/src/app.o
 .debug_macro   0x000058d0       0x5e app/out/app/src/app.o
 .debug_macro   0x0000592e       0x12 app/out/app/src/app.o
 .debug_macro   0x00005940       0xfa app/out/app/src/app.o
 .debug_macro   0x00005a3a       0xee app/out/app/src/app.o
 .debug_macro   0x00005b28      0x69a app/out/app/src/app.o
 .debug_macro   0x000061c2      0x272 app/out/app/src/app.o
 .debug_macro   0x00006434       0x10 app/out/app/src/app.o
 .debug_macro   0x00006444       0x16 app/out/app/src/app.o
 .debug_macro   0x0000645a       0x40 app/out/app/src/app.o
 .debug_macro   0x0000649a       0x70 app/out/app/src/app.o
 .debug_macro   0x0000650a       0x70 app/out/app/src/app.o
 .debug_macro   0x0000657a       0x10 app/out/app/src/app.o
 .debug_macro   0x0000658a       0x22 app/out/app/src/app.o
 .debug_macro   0x000065ac       0x16 app/out/app/src/app.o
 .debug_macro   0x000065c2       0x10 app/out/app/src/app.o
 .debug_macro   0x000065d2       0x10 app/out/app/src/app.o
 .debug_macro   0x000065e2       0x82 app/out/app/src/app.o
 .debug_macro   0x00006664       0x10 app/out/app/src/app.o
 .debug_macro   0x00006674       0x16 app/out/app/src/app.o
 .debug_macro   0x0000668a       0x10 app/out/app/src/app.o
 .debug_macro   0x0000669a       0x7c app/out/app/src/app.o
 .debug_macro   0x00006716       0x64 app/out/app/src/app.o
 .debug_macro   0x0000677a      0x1ec app/out/app/src/app.o
 .debug_macro   0x00006966       0x10 app/out/app/src/app.o
 .debug_macro   0x00006976       0x16 app/out/app/src/app.o
 .debug_macro   0x0000698c      0x674 app/out/app/src/driverDisplay7Seg.o
 .debug_macro   0x00007000      0x669 app/out/app/src/driverTecladoMatricial.o
 .debug_macro   0x00007669      0x440 app/out/libs/sapi/sapi_v0.5.2/soc/core/src/sapi_cyclesCounter.o
 .debug_macro   0x00007aa9       0x10 app/out/libs/sapi/sapi_v0.5.2/soc/core/src/sapi_cyclesCounter.o
 .debug_macro   0x00007ab9      0x44a app/out/libs/sapi/sapi_v0.5.2/soc/peripherals/src/sapi_gpio.o
 .debug_macro   0x00007f03      0x447 app/out/libs/sapi/sapi_v0.5.2/soc/peripherals/src/sapi_tick.o
 .debug_macro   0x0000834a      0x450 app/out/libs/sapi/sapi_v0.5.2/soc/peripherals/src/sapi_timer.o
 .debug_macro   0x0000879a      0x479 app/out/libs/sapi/sapi_v0.5.2/soc/peripherals/src/sapi_uart.o
 .debug_macro   0x00008c13       0x16 app/out/libs/sapi/sapi_v0.5.2/soc/peripherals/src/sapi_uart.o
 .debug_macro   0x00008c29       0x16 app/out/libs/sapi/sapi_v0.5.2/soc/peripherals/src/sapi_uart.o
 .debug_macro   0x00008c3f       0x35 app/out/libs/sapi/sapi_v0.5.2/soc/peripherals/src/sapi_uart.o
 .debug_macro   0x00008c74      0x53d app/out/libs/sapi/sapi_v0.5.2/soc/peripherals/usb/device/src/sapi_usb_device.o
 .debug_macro   0x000091b1      0x46c app/out/libs/sapi/sapi_v0.5.2/board/src/sapi_board.o
 .debug_macro   0x0000961d      0x43b app/out/libs/sapi/sapi_v0.5.2/abstract_modules/src/sapi_convert.o
 .debug_macro   0x00009a58      0x452 app/out/libs/sapi/sapi_v0.5.2/abstract_modules/src/sapi_delay.o
 .debug_macro   0x00009eaa      0x499 app/out/libs/sapi/sapi_v0.5.2/external_peripherals/src/sapi_ultrasonic_hcsr04.o
 .debug_macro   0x0000a343      0x434 app/out/libs/vendor_libs/lpc_board_ciaa_edu_4337/src/board.o
 .debug_macro   0x0000a777      0x422 app/out/libs/vendor_libs/lpc_board_ciaa_edu_4337/src/board_sysinit.o
 .debug_macro   0x0000ab99      0x422 app/out/libs/vendor_libs/lpc_board_ciaa_edu_4337/src/sysinit.o
 .debug_macro   0x0000afbb      0x30b app/out/libs/vendor_libs/lpc_chip_43xx/src/adc_18xx_43xx.o
 .debug_macro   0x0000b2c6      0x30b app/out/libs/vendor_libs/lpc_chip_43xx/src/chip_18xx_43xx.o
 .debug_macro   0x0000b5d1      0x311 app/out/libs/vendor_libs/lpc_chip_43xx/src/clock_18xx_43xx.o
 .debug_macro   0x0000b8e2       0xe3 app/out/libs/vendor_libs/lpc_chip_43xx/src/fpu_init.o
 .debug_macro   0x0000b9c5      0x30b app/out/libs/vendor_libs/lpc_chip_43xx/src/gpio_18xx_43xx.o
 .debug_macro   0x0000bcd0      0x31d app/out/libs/vendor_libs/lpc_chip_43xx/src/i2c_18xx_43xx.o
 .debug_macro   0x0000bfed      0x30b app/out/libs/vendor_libs/lpc_chip_43xx/src/ssp_18xx_43xx.o
 .debug_macro   0x0000c2f8      0x30b app/out/libs/vendor_libs/lpc_chip_43xx/src/sysinit_18xx_43xx.o
 .debug_macro   0x0000c603      0x30b app/out/libs/vendor_libs/lpc_chip_43xx/src/uart_18xx_43xx.o
 .debug_macro   0x0000c90e      0x42e app/out/libs/vendor_libs/lpc_startup/src/cr_startup_lpc43xx.o
 .debug_macro   0x0000cd3c       0x17 app/out/libs/vendor_libs/lpc_startup/src/crp.o

.debug_line     0x00000000     0xf96a
 .debug_line    0x00000000      0xd4e app/out/app/src/app.o
 .debug_line    0x00000d4e      0xd79 app/out/app/src/driverDisplay7Seg.o
 .debug_line    0x00001ac7      0xd4c app/out/app/src/driverTecladoMatricial.o
 .debug_line    0x00002813      0x8c5 app/out/libs/sapi/sapi_v0.5.2/soc/core/src/sapi_cyclesCounter.o
 .debug_line    0x000030d8      0x9aa app/out/libs/sapi/sapi_v0.5.2/soc/peripherals/src/sapi_gpio.o
 .debug_line    0x00003a82      0x8fc app/out/libs/sapi/sapi_v0.5.2/soc/peripherals/src/sapi_tick.o
 .debug_line    0x0000437e      0xa83 app/out/libs/sapi/sapi_v0.5.2/soc/peripherals/src/sapi_timer.o
 .debug_line    0x00004e01      0xadc app/out/libs/sapi/sapi_v0.5.2/soc/peripherals/src/sapi_uart.o
 .debug_line    0x000058dd      0xb52 app/out/libs/sapi/sapi_v0.5.2/soc/peripherals/usb/device/src/sapi_usb_device.o
 .debug_line    0x0000642f      0x91e app/out/libs/sapi/sapi_v0.5.2/board/src/sapi_board.o
 .debug_line    0x00006d4d      0x912 app/out/libs/sapi/sapi_v0.5.2/abstract_modules/src/sapi_convert.o
 .debug_line    0x0000765f      0x98a app/out/libs/sapi/sapi_v0.5.2/abstract_modules/src/sapi_delay.o
 .debug_line    0x00007fe9      0xa57 app/out/libs/sapi/sapi_v0.5.2/external_peripherals/src/sapi_ultrasonic_hcsr04.o
 .debug_line    0x00008a40      0xa22 app/out/libs/vendor_libs/lpc_board_ciaa_edu_4337/src/board.o
 .debug_line    0x00009462      0x875 app/out/libs/vendor_libs/lpc_board_ciaa_edu_4337/src/board_sysinit.o
 .debug_line    0x00009cd7      0x80e app/out/libs/vendor_libs/lpc_board_ciaa_edu_4337/src/sysinit.o
 .debug_line    0x0000a4e5      0x830 app/out/libs/vendor_libs/lpc_chip_43xx/src/adc_18xx_43xx.o
 .debug_line    0x0000ad15      0x74d app/out/libs/vendor_libs/lpc_chip_43xx/src/chip_18xx_43xx.o
 .debug_line    0x0000b462      0xb27 app/out/libs/vendor_libs/lpc_chip_43xx/src/clock_18xx_43xx.o
 .debug_line    0x0000bf89      0x2f4 app/out/libs/vendor_libs/lpc_chip_43xx/src/fpu_init.o
 .debug_line    0x0000c27d      0x712 app/out/libs/vendor_libs/lpc_chip_43xx/src/gpio_18xx_43xx.o
 .debug_line    0x0000c98f      0x9e4 app/out/libs/vendor_libs/lpc_chip_43xx/src/i2c_18xx_43xx.o
 .debug_line    0x0000d373      0xb7e app/out/libs/vendor_libs/lpc_chip_43xx/src/ssp_18xx_43xx.o
 .debug_line    0x0000def1      0x7af app/out/libs/vendor_libs/lpc_chip_43xx/src/sysinit_18xx_43xx.o
 .debug_line    0x0000e6a0      0x9ec app/out/libs/vendor_libs/lpc_chip_43xx/src/uart_18xx_43xx.o
 .debug_line    0x0000f08c      0x897 app/out/libs/vendor_libs/lpc_startup/src/cr_startup_lpc43xx.o
 .debug_line    0x0000f923       0x47 app/out/libs/vendor_libs/lpc_startup/src/crp.o

.debug_str      0x00000000    0x24a9e
 .debug_str     0x00000000    0x205e4 app/out/app/src/app.o
                              0x20988 (size before relaxing)
 .debug_str     0x000205e4      0x25a app/out/app/src/driverDisplay7Seg.o
                              0x20a69 (size before relaxing)
 .debug_str     0x0002083e       0x37 app/out/app/src/driverTecladoMatricial.o
                              0x20950 (size before relaxing)
 .debug_str     0x00020875       0xda app/out/libs/sapi/sapi_v0.5.2/soc/core/src/sapi_cyclesCounter.o
                              0x19128 (size before relaxing)
 .debug_str     0x0002094f      0x203 app/out/libs/sapi/sapi_v0.5.2/soc/peripherals/src/sapi_gpio.o
                              0x1943e (size before relaxing)
 .debug_str     0x00020b52      0x4e0 app/out/libs/sapi/sapi_v0.5.2/soc/peripherals/src/sapi_tick.o
                              0x19586 (size before relaxing)
 .debug_str     0x00021032      0x403 app/out/libs/sapi/sapi_v0.5.2/soc/peripherals/src/sapi_timer.o
                              0x1986d (size before relaxing)
 .debug_str     0x00021435      0x43c app/out/libs/sapi/sapi_v0.5.2/soc/peripherals/src/sapi_uart.o
                              0x19b30 (size before relaxing)
 .debug_str     0x00021871      0x772 app/out/libs/sapi/sapi_v0.5.2/soc/peripherals/usb/device/src/sapi_usb_device.o
                              0x1f2dd (size before relaxing)
 .debug_str     0x00021fe3       0x43 app/out/libs/sapi/sapi_v0.5.2/board/src/sapi_board.o
                              0x188d1 (size before relaxing)
 .debug_str     0x00022026       0x8f app/out/libs/sapi/sapi_v0.5.2/abstract_modules/src/sapi_convert.o
                              0x186af (size before relaxing)
 .debug_str     0x000220b5       0xa5 app/out/libs/sapi/sapi_v0.5.2/abstract_modules/src/sapi_delay.o
                              0x187d6 (size before relaxing)
 .debug_str     0x0002215a      0x4cc app/out/libs/sapi/sapi_v0.5.2/external_peripherals/src/sapi_ultrasonic_hcsr04.o
                              0x19c4a (size before relaxing)
 .debug_str     0x00022626      0x83e app/out/libs/vendor_libs/lpc_board_ciaa_edu_4337/src/board.o
                              0x199fb (size before relaxing)
 .debug_str     0x00022e64      0x33d app/out/libs/vendor_libs/lpc_board_ciaa_edu_4337/src/board_sysinit.o
                              0x193b9 (size before relaxing)
 .debug_str     0x000231a1       0x56 app/out/libs/vendor_libs/lpc_board_ciaa_edu_4337/src/sysinit.o
                              0x185ed (size before relaxing)
 .debug_str     0x000231f7      0x1bc app/out/libs/vendor_libs/lpc_chip_43xx/src/adc_18xx_43xx.o
                              0x15378 (size before relaxing)
 .debug_str     0x000233b3      0x12f app/out/libs/vendor_libs/lpc_chip_43xx/src/chip_18xx_43xx.o
                              0x158cd (size before relaxing)
 .debug_str     0x000234e2      0x500 app/out/libs/vendor_libs/lpc_chip_43xx/src/clock_18xx_43xx.o
                              0x15d8f (size before relaxing)
 .debug_str     0x000239e2       0xc9 app/out/libs/vendor_libs/lpc_chip_43xx/src/fpu_init.o
                               0x9074 (size before relaxing)
 .debug_str     0x00023aab       0x45 app/out/libs/vendor_libs/lpc_chip_43xx/src/gpio_18xx_43xx.o
                              0x14b2f (size before relaxing)
 .debug_str     0x00023af0      0x586 app/out/libs/vendor_libs/lpc_chip_43xx/src/i2c_18xx_43xx.o
                              0x15b0f (size before relaxing)
 .debug_str     0x00024076      0x3eb app/out/libs/vendor_libs/lpc_chip_43xx/src/ssp_18xx_43xx.o
                              0x1556e (size before relaxing)
 .debug_str     0x00024461       0xbf app/out/libs/vendor_libs/lpc_chip_43xx/src/sysinit_18xx_43xx.o
                              0x1582e (size before relaxing)
 .debug_str     0x00024520      0x337 app/out/libs/vendor_libs/lpc_chip_43xx/src/uart_18xx_43xx.o
                              0x159dd (size before relaxing)
 .debug_str     0x00024857      0x201 app/out/libs/vendor_libs/lpc_startup/src/cr_startup_lpc43xx.o
                              0x191d9 (size before relaxing)
 .debug_str     0x00024a58       0x46 app/out/libs/vendor_libs/lpc_startup/src/crp.o
                               0x258f (size before relaxing)

.comment        0x00000000       0x7f
 .comment       0x00000000       0x7f app/out/app/src/app.o
                                 0x80 (size before relaxing)
 .comment       0x0000007f       0x80 app/out/app/src/driverDisplay7Seg.o
 .comment       0x0000007f       0x80 app/out/app/src/driverTecladoMatricial.o
 .comment       0x0000007f       0x80 app/out/libs/sapi/sapi_v0.5.2/soc/core/src/sapi_cyclesCounter.o
 .comment       0x0000007f       0x80 app/out/libs/sapi/sapi_v0.5.2/soc/peripherals/src/sapi_gpio.o
 .comment       0x0000007f       0x80 app/out/libs/sapi/sapi_v0.5.2/soc/peripherals/src/sapi_tick.o
 .comment       0x0000007f       0x80 app/out/libs/sapi/sapi_v0.5.2/soc/peripherals/src/sapi_timer.o
 .comment       0x0000007f       0x80 app/out/libs/sapi/sapi_v0.5.2/soc/peripherals/src/sapi_uart.o
 .comment       0x0000007f       0x80 app/out/libs/sapi/sapi_v0.5.2/soc/peripherals/usb/device/src/sapi_usb_device.o
 .comment       0x0000007f       0x80 app/out/libs/sapi/sapi_v0.5.2/board/src/sapi_board.o
 .comment       0x0000007f       0x80 app/out/libs/sapi/sapi_v0.5.2/abstract_modules/src/sapi_convert.o
 .comment       0x0000007f       0x80 app/out/libs/sapi/sapi_v0.5.2/abstract_modules/src/sapi_delay.o
 .comment       0x0000007f       0x80 app/out/libs/sapi/sapi_v0.5.2/external_peripherals/src/sapi_ultrasonic_hcsr04.o
 .comment       0x0000007f       0x80 app/out/libs/vendor_libs/lpc_board_ciaa_edu_4337/src/board.o
 .comment       0x0000007f       0x80 app/out/libs/vendor_libs/lpc_board_ciaa_edu_4337/src/board_sysinit.o
 .comment       0x0000007f       0x80 app/out/libs/vendor_libs/lpc_board_ciaa_edu_4337/src/sysinit.o
 .comment       0x0000007f       0x80 app/out/libs/vendor_libs/lpc_chip_43xx/src/adc_18xx_43xx.o
 .comment       0x0000007f       0x80 app/out/libs/vendor_libs/lpc_chip_43xx/src/chip_18xx_43xx.o
 .comment       0x0000007f       0x80 app/out/libs/vendor_libs/lpc_chip_43xx/src/clock_18xx_43xx.o
 .comment       0x0000007f       0x80 app/out/libs/vendor_libs/lpc_chip_43xx/src/fpu_init.o
 .comment       0x0000007f       0x80 app/out/libs/vendor_libs/lpc_chip_43xx/src/gpio_18xx_43xx.o
 .comment       0x0000007f       0x80 app/out/libs/vendor_libs/lpc_chip_43xx/src/i2c_18xx_43xx.o
 .comment       0x0000007f       0x80 app/out/libs/vendor_libs/lpc_chip_43xx/src/ssp_18xx_43xx.o
 .comment       0x0000007f       0x80 app/out/libs/vendor_libs/lpc_chip_43xx/src/sysinit_18xx_43xx.o
 .comment       0x0000007f       0x80 app/out/libs/vendor_libs/lpc_chip_43xx/src/uart_18xx_43xx.o
 .comment       0x0000007f       0x80 app/out/libs/vendor_libs/lpc_startup/src/cr_startup_lpc43xx.o
 .comment       0x0000007f       0x80 app/out/libs/vendor_libs/lpc_startup/src/crp.o

.ARM.attributes
                0x00000000       0x37
 .ARM.attributes
                0x00000000       0x39 app/out/app/src/app.o
 .ARM.attributes
                0x00000039       0x39 app/out/app/src/driverDisplay7Seg.o
 .ARM.attributes
                0x00000072       0x39 app/out/app/src/driverTecladoMatricial.o
 .ARM.attributes
                0x000000ab       0x39 app/out/libs/sapi/sapi_v0.5.2/soc/core/src/sapi_cyclesCounter.o
 .ARM.attributes
                0x000000e4       0x39 app/out/libs/sapi/sapi_v0.5.2/soc/peripherals/src/sapi_gpio.o
 .ARM.attributes
                0x0000011d       0x39 app/out/libs/sapi/sapi_v0.5.2/soc/peripherals/src/sapi_tick.o
 .ARM.attributes
                0x00000156       0x39 app/out/libs/sapi/sapi_v0.5.2/soc/peripherals/src/sapi_timer.o
 .ARM.attributes
                0x0000018f       0x39 app/out/libs/sapi/sapi_v0.5.2/soc/peripherals/src/sapi_uart.o
 .ARM.attributes
                0x000001c8       0x39 app/out/libs/sapi/sapi_v0.5.2/soc/peripherals/usb/device/src/sapi_usb_device.o
 .ARM.attributes
                0x00000201       0x39 app/out/libs/sapi/sapi_v0.5.2/board/src/sapi_board.o
 .ARM.attributes
                0x0000023a       0x39 app/out/libs/sapi/sapi_v0.5.2/abstract_modules/src/sapi_convert.o
 .ARM.attributes
                0x00000273       0x39 app/out/libs/sapi/sapi_v0.5.2/abstract_modules/src/sapi_delay.o
 .ARM.attributes
                0x000002ac       0x39 app/out/libs/sapi/sapi_v0.5.2/external_peripherals/src/sapi_ultrasonic_hcsr04.o
 .ARM.attributes
                0x000002e5       0x39 app/out/libs/vendor_libs/lpc_board_ciaa_edu_4337/src/board.o
 .ARM.attributes
                0x0000031e       0x39 app/out/libs/vendor_libs/lpc_board_ciaa_edu_4337/src/board_sysinit.o
 .ARM.attributes
                0x00000357       0x39 app/out/libs/vendor_libs/lpc_board_ciaa_edu_4337/src/sysinit.o
 .ARM.attributes
                0x00000390       0x39 app/out/libs/vendor_libs/lpc_chip_43xx/src/adc_18xx_43xx.o
 .ARM.attributes
                0x000003c9       0x39 app/out/libs/vendor_libs/lpc_chip_43xx/src/chip_18xx_43xx.o
 .ARM.attributes
                0x00000402       0x39 app/out/libs/vendor_libs/lpc_chip_43xx/src/clock_18xx_43xx.o
 .ARM.attributes
                0x0000043b       0x39 app/out/libs/vendor_libs/lpc_chip_43xx/src/fpu_init.o
 .ARM.attributes
                0x00000474       0x39 app/out/libs/vendor_libs/lpc_chip_43xx/src/gpio_18xx_43xx.o
 .ARM.attributes
                0x000004ad       0x39 app/out/libs/vendor_libs/lpc_chip_43xx/src/i2c_18xx_43xx.o
 .ARM.attributes
                0x000004e6       0x39 app/out/libs/vendor_libs/lpc_chip_43xx/src/ssp_18xx_43xx.o
 .ARM.attributes
                0x0000051f       0x39 app/out/libs/vendor_libs/lpc_chip_43xx/src/sysinit_18xx_43xx.o
 .ARM.attributes
                0x00000558       0x39 app/out/libs/vendor_libs/lpc_chip_43xx/src/uart_18xx_43xx.o
 .ARM.attributes
                0x00000591       0x39 app/out/libs/vendor_libs/lpc_startup/src/cr_startup_lpc43xx.o
 .ARM.attributes
                0x000005ca       0x39 app/out/libs/vendor_libs/lpc_startup/src/crp.o
 .ARM.attributes
                0x00000603       0x22 d:/martin/facu/arq 2/embeddedide/gcc-arm-embedded/bin/../lib/gcc/arm-none-eabi/6.3.1/thumb/v7e-m/fpv4-sp/hard\libgcc.a(_aeabi_ldivmod.o)
 .ARM.attributes
                0x00000625       0x22 d:/martin/facu/arq 2/embeddedide/gcc-arm-embedded/bin/../lib/gcc/arm-none-eabi/6.3.1/thumb/v7e-m/fpv4-sp/hard\libgcc.a(_aeabi_uldivmod.o)
 .ARM.attributes
                0x00000647       0x34 d:/martin/facu/arq 2/embeddedide/gcc-arm-embedded/bin/../lib/gcc/arm-none-eabi/6.3.1/thumb/v7e-m/fpv4-sp/hard\libgcc.a(_udivmoddi4.o)
 .ARM.attributes
                0x0000067b       0x22 d:/martin/facu/arq 2/embeddedide/gcc-arm-embedded/bin/../lib/gcc/arm-none-eabi/6.3.1/thumb/v7e-m/fpv4-sp/hard\libgcc.a(_dvmd_tls.o)
 .ARM.attributes
                0x0000069d       0x34 d:/martin/facu/arq 2/embeddedide/gcc-arm-embedded/bin/../lib/gcc/arm-none-eabi/6.3.1/../../../../arm-none-eabi/lib/thumb/v7e-m/fpv4-sp/hard\libc_nano.a(lib_a-init.o)
 .ARM.attributes
                0x000006d1       0x34 d:/martin/facu/arq 2/embeddedide/gcc-arm-embedded/bin/../lib/gcc/arm-none-eabi/6.3.1/../../../../arm-none-eabi/lib/thumb/v7e-m/fpv4-sp/hard\libc_nano.a(lib_a-memset.o)

.debug_frame    0x00000000     0x18f0
 .debug_frame   0x00000000       0x84 app/out/app/src/app.o
 .debug_frame   0x00000084       0xac app/out/app/src/driverDisplay7Seg.o
 .debug_frame   0x00000130       0x44 app/out/app/src/driverTecladoMatricial.o
 .debug_frame   0x00000174       0x60 app/out/libs/sapi/sapi_v0.5.2/soc/core/src/sapi_cyclesCounter.o
 .debug_frame   0x000001d4       0xa4 app/out/libs/sapi/sapi_v0.5.2/soc/peripherals/src/sapi_gpio.o
 .debug_frame   0x00000278       0x84 app/out/libs/sapi/sapi_v0.5.2/soc/peripherals/src/sapi_tick.o
 .debug_frame   0x000002fc      0x134 app/out/libs/sapi/sapi_v0.5.2/soc/peripherals/src/sapi_timer.o
 .debug_frame   0x00000430      0x170 app/out/libs/sapi/sapi_v0.5.2/soc/peripherals/src/sapi_uart.o
 .debug_frame   0x000005a0       0xb8 app/out/libs/sapi/sapi_v0.5.2/soc/peripherals/usb/device/src/sapi_usb_device.o
 .debug_frame   0x00000658       0x28 app/out/libs/sapi/sapi_v0.5.2/board/src/sapi_board.o
 .debug_frame   0x00000680       0x9c app/out/libs/sapi/sapi_v0.5.2/abstract_modules/src/sapi_convert.o
 .debug_frame   0x0000071c       0xdc app/out/libs/sapi/sapi_v0.5.2/abstract_modules/src/sapi_delay.o
 .debug_frame   0x000007f8      0x120 app/out/libs/sapi/sapi_v0.5.2/external_peripherals/src/sapi_ultrasonic_hcsr04.o
 .debug_frame   0x00000918      0x1bc app/out/libs/vendor_libs/lpc_board_ciaa_edu_4337/src/board.o
 .debug_frame   0x00000ad4       0x5c app/out/libs/vendor_libs/lpc_board_ciaa_edu_4337/src/board_sysinit.o
 .debug_frame   0x00000b30       0x28 app/out/libs/vendor_libs/lpc_board_ciaa_edu_4337/src/sysinit.o
 .debug_frame   0x00000b58      0x160 app/out/libs/vendor_libs/lpc_chip_43xx/src/adc_18xx_43xx.o
 .debug_frame   0x00000cb8       0x70 app/out/libs/vendor_libs/lpc_chip_43xx/src/chip_18xx_43xx.o
 .debug_frame   0x00000d28      0x314 app/out/libs/vendor_libs/lpc_chip_43xx/src/clock_18xx_43xx.o
 .debug_frame   0x0000103c       0x2c app/out/libs/vendor_libs/lpc_chip_43xx/src/fpu_init.o
 .debug_frame   0x00001068       0x30 app/out/libs/vendor_libs/lpc_chip_43xx/src/gpio_18xx_43xx.o
 .debug_frame   0x00001098      0x25c app/out/libs/vendor_libs/lpc_chip_43xx/src/i2c_18xx_43xx.o
 .debug_frame   0x000012f4      0x198 app/out/libs/vendor_libs/lpc_chip_43xx/src/ssp_18xx_43xx.o
 .debug_frame   0x0000148c       0x7c app/out/libs/vendor_libs/lpc_chip_43xx/src/sysinit_18xx_43xx.o
 .debug_frame   0x00001508      0x1f4 app/out/libs/vendor_libs/lpc_chip_43xx/src/uart_18xx_43xx.o
 .debug_frame   0x000016fc      0x104 app/out/libs/vendor_libs/lpc_startup/src/cr_startup_lpc43xx.o
 .debug_frame   0x00001800       0x44 d:/martin/facu/arq 2/embeddedide/gcc-arm-embedded/bin/../lib/gcc/arm-none-eabi/6.3.1/thumb/v7e-m/fpv4-sp/hard\libgcc.a(_aeabi_ldivmod.o)
 .debug_frame   0x00001844       0x2c d:/martin/facu/arq 2/embeddedide/gcc-arm-embedded/bin/../lib/gcc/arm-none-eabi/6.3.1/thumb/v7e-m/fpv4-sp/hard\libgcc.a(_aeabi_uldivmod.o)
 .debug_frame   0x00001870       0x34 d:/martin/facu/arq 2/embeddedide/gcc-arm-embedded/bin/../lib/gcc/arm-none-eabi/6.3.1/thumb/v7e-m/fpv4-sp/hard\libgcc.a(_udivmoddi4.o)
 .debug_frame   0x000018a4       0x2c d:/martin/facu/arq 2/embeddedide/gcc-arm-embedded/bin/../lib/gcc/arm-none-eabi/6.3.1/../../../../arm-none-eabi/lib/thumb/v7e-m/fpv4-sp/hard\libc_nano.a(lib_a-init.o)
 .debug_frame   0x000018d0       0x20 d:/martin/facu/arq 2/embeddedide/gcc-arm-embedded/bin/../lib/gcc/arm-none-eabi/6.3.1/../../../../arm-none-eabi/lib/thumb/v7e-m/fpv4-sp/hard\libc_nano.a(lib_a-memset.o)

Cross Reference Table

Symbol                                            File
ADC0_IRQHandler                                   app/out/libs/vendor_libs/lpc_startup/src/cr_startup_lpc43xx.o
ADC1_IRQHandler                                   app/out/libs/vendor_libs/lpc_startup/src/cr_startup_lpc43xx.o
ADCHS_IRQHandler                                  app/out/libs/vendor_libs/lpc_startup/src/cr_startup_lpc43xx.o
ATIMER_IRQHandler                                 app/out/libs/vendor_libs/lpc_startup/src/cr_startup_lpc43xx.o
ActualizarMEF                                     app/out/app/src/app.o
Board_ADC_ReadBegin                               app/out/libs/vendor_libs/lpc_board_ciaa_edu_4337/src/board.o
Board_ADC_ReadEnd                                 app/out/libs/vendor_libs/lpc_board_ciaa_edu_4337/src/board.o
Board_ADC_ReadWait                                app/out/libs/vendor_libs/lpc_board_ciaa_edu_4337/src/board.o
Board_Debug_Init                                  app/out/libs/vendor_libs/lpc_board_ciaa_edu_4337/src/board.o
Board_Init                                        app/out/libs/vendor_libs/lpc_board_ciaa_edu_4337/src/board.o
                                                  app/out/libs/vendor_libs/lpc_startup/src/cr_startup_lpc43xx.o
Board_LED_Set                                     app/out/libs/vendor_libs/lpc_board_ciaa_edu_4337/src/board.o
Board_LED_Test                                    app/out/libs/vendor_libs/lpc_board_ciaa_edu_4337/src/board.o
Board_LED_Toggle                                  app/out/libs/vendor_libs/lpc_board_ciaa_edu_4337/src/board.o
Board_SetupClocking                               app/out/libs/vendor_libs/lpc_board_ciaa_edu_4337/src/board_sysinit.o
Board_SetupMuxing                                 app/out/libs/vendor_libs/lpc_board_ciaa_edu_4337/src/board_sysinit.o
Board_SystemInit                                  app/out/libs/vendor_libs/lpc_board_ciaa_edu_4337/src/board_sysinit.o
                                                  app/out/libs/vendor_libs/lpc_board_ciaa_edu_4337/src/sysinit.o
Board_TEC_GetStatus                               app/out/libs/vendor_libs/lpc_board_ciaa_edu_4337/src/board.o
Board_UARTGetChar                                 app/out/libs/vendor_libs/lpc_board_ciaa_edu_4337/src/board.o
                                                  app/out/libs/vendor_libs/lpc_board_ciaa_edu_4337/src/system.o
Board_UARTPutChar                                 app/out/libs/vendor_libs/lpc_board_ciaa_edu_4337/src/board.o
                                                  app/out/libs/vendor_libs/lpc_board_ciaa_edu_4337/src/system.o
Board_UARTPutSTR                                  app/out/libs/vendor_libs/lpc_board_ciaa_edu_4337/src/board.o
BusFault_Handler                                  app/out/libs/vendor_libs/lpc_startup/src/cr_startup_lpc43xx.o
CAN0_IRQHandler                                   app/out/libs/vendor_libs/lpc_startup/src/cr_startup_lpc43xx.o
CAN1_IRQHandler                                   app/out/libs/vendor_libs/lpc_startup/src/cr_startup_lpc43xx.o
CRP_WORD                                          app/out/libs/vendor_libs/lpc_startup/src/crp.o
Chip_ADC_DeInit                                   app/out/libs/vendor_libs/lpc_chip_43xx/src/adc_18xx_43xx.o
                                                  app/out/libs/sapi/sapi_v0.5.2/soc/peripherals/src/sapi_adc.o
Chip_ADC_EnableChannel                            app/out/libs/vendor_libs/lpc_chip_43xx/src/adc_18xx_43xx.o
                                                  app/out/libs/vendor_libs/lpc_board_ciaa_edu_4337/src/board.o
                                                  app/out/libs/sapi/sapi_v0.5.2/soc/peripherals/src/sapi_adc.o
Chip_ADC_Init                                     app/out/libs/vendor_libs/lpc_chip_43xx/src/adc_18xx_43xx.o
                                                  app/out/libs/vendor_libs/lpc_board_ciaa_edu_4337/src/board.o
                                                  app/out/libs/sapi/sapi_v0.5.2/soc/peripherals/src/sapi_adc.o
Chip_ADC_Int_SetChannelCmd                        app/out/libs/vendor_libs/lpc_chip_43xx/src/adc_18xx_43xx.o
                                                  app/out/libs/sapi/sapi_v0.5.2/soc/peripherals/src/sapi_adc.o
Chip_ADC_ReadByte                                 app/out/libs/vendor_libs/lpc_chip_43xx/src/adc_18xx_43xx.o
Chip_ADC_ReadStatus                               app/out/libs/vendor_libs/lpc_chip_43xx/src/adc_18xx_43xx.o
                                                  app/out/libs/vendor_libs/lpc_board_ciaa_edu_4337/src/board.o
                                                  app/out/libs/sapi/sapi_v0.5.2/soc/peripherals/src/sapi_adc.o
Chip_ADC_ReadValue                                app/out/libs/vendor_libs/lpc_chip_43xx/src/adc_18xx_43xx.o
                                                  app/out/libs/vendor_libs/lpc_board_ciaa_edu_4337/src/board.o
                                                  app/out/libs/sapi/sapi_v0.5.2/soc/peripherals/src/sapi_adc.o
Chip_ADC_SetBurstCmd                              app/out/libs/vendor_libs/lpc_chip_43xx/src/adc_18xx_43xx.o
                                                  app/out/libs/vendor_libs/lpc_board_ciaa_edu_4337/src/board.o
                                                  app/out/libs/sapi/sapi_v0.5.2/soc/peripherals/src/sapi_adc.o
Chip_ADC_SetResolution                            app/out/libs/vendor_libs/lpc_chip_43xx/src/adc_18xx_43xx.o
                                                  app/out/libs/vendor_libs/lpc_board_ciaa_edu_4337/src/board.o
Chip_ADC_SetSampleRate                            app/out/libs/vendor_libs/lpc_chip_43xx/src/adc_18xx_43xx.o
                                                  app/out/libs/vendor_libs/lpc_board_ciaa_edu_4337/src/board.o
                                                  app/out/libs/sapi/sapi_v0.5.2/soc/peripherals/src/sapi_adc.o
Chip_ADC_SetStartMode                             app/out/libs/vendor_libs/lpc_chip_43xx/src/adc_18xx_43xx.o
                                                  app/out/libs/vendor_libs/lpc_board_ciaa_edu_4337/src/board.o
                                                  app/out/libs/sapi/sapi_v0.5.2/soc/peripherals/src/sapi_adc.o
Chip_AES_Config_DMA                               app/out/libs/vendor_libs/lpc_chip_43xx/src/aes_18xx_43xx.o
Chip_AES_GetStatusDMA                             app/out/libs/vendor_libs/lpc_chip_43xx/src/aes_18xx_43xx.o
Chip_AES_Init                                     app/out/libs/vendor_libs/lpc_chip_43xx/src/aes_18xx_43xx.o
Chip_AES_LoadIV_IC                                app/out/libs/vendor_libs/lpc_chip_43xx/src/aes_18xx_43xx.o
Chip_AES_LoadIV_SW                                app/out/libs/vendor_libs/lpc_chip_43xx/src/aes_18xx_43xx.o
Chip_AES_LoadKey                                  app/out/libs/vendor_libs/lpc_chip_43xx/src/aes_18xx_43xx.o
Chip_AES_LoadKeyRNG                               app/out/libs/vendor_libs/lpc_chip_43xx/src/aes_18xx_43xx.o
Chip_AES_LoadKeySW                                app/out/libs/vendor_libs/lpc_chip_43xx/src/aes_18xx_43xx.o
Chip_AES_Operate                                  app/out/libs/vendor_libs/lpc_chip_43xx/src/aes_18xx_43xx.o
Chip_AES_OperateDMA                               app/out/libs/vendor_libs/lpc_chip_43xx/src/aes_18xx_43xx.o
Chip_AES_ProgramKey                               app/out/libs/vendor_libs/lpc_chip_43xx/src/aes_18xx_43xx.o
Chip_AES_SetMode                                  app/out/libs/vendor_libs/lpc_chip_43xx/src/aes_18xx_43xx.o
Chip_ATIMER_DeInit                                app/out/libs/vendor_libs/lpc_chip_43xx/src/atimer_18xx_43xx.o
Chip_ATIMER_Init                                  app/out/libs/vendor_libs/lpc_chip_43xx/src/atimer_18xx_43xx.o
Chip_CCAN_AddReceiveID                            app/out/libs/vendor_libs/lpc_chip_43xx/src/ccan_18xx_43xx.o
Chip_CCAN_ClearStatus                             app/out/libs/vendor_libs/lpc_chip_43xx/src/ccan_18xx_43xx.o
Chip_CCAN_DeInit                                  app/out/libs/vendor_libs/lpc_chip_43xx/src/ccan_18xx_43xx.o
Chip_CCAN_DeleteReceiveID                         app/out/libs/vendor_libs/lpc_chip_43xx/src/ccan_18xx_43xx.o
Chip_CCAN_GetMsgObject                            app/out/libs/vendor_libs/lpc_chip_43xx/src/ccan_18xx_43xx.o
Chip_CCAN_Init                                    app/out/libs/vendor_libs/lpc_chip_43xx/src/ccan_18xx_43xx.o
Chip_CCAN_Send                                    app/out/libs/vendor_libs/lpc_chip_43xx/src/ccan_18xx_43xx.o
Chip_CCAN_SetBitRate                              app/out/libs/vendor_libs/lpc_chip_43xx/src/ccan_18xx_43xx.o
Chip_CCAN_SetMsgObject                            app/out/libs/vendor_libs/lpc_chip_43xx/src/ccan_18xx_43xx.o
Chip_CCAN_SetValidMsg                             app/out/libs/vendor_libs/lpc_chip_43xx/src/ccan_18xx_43xx.o
Chip_CCAN_TransferMsgObject                       app/out/libs/vendor_libs/lpc_chip_43xx/src/ccan_18xx_43xx.o
Chip_Clock_CalcMainPLLValue                       app/out/libs/vendor_libs/lpc_chip_43xx/src/clock_18xx_43xx.o
                                                  app/out/libs/vendor_libs/lpc_chip_43xx/src/sysinit_18xx_43xx.o
Chip_Clock_ClearPowerDown                         app/out/libs/vendor_libs/lpc_chip_43xx/src/clock_18xx_43xx.o
Chip_Clock_Disable                                app/out/libs/vendor_libs/lpc_chip_43xx/src/clock_18xx_43xx.o
                                                  app/out/libs/vendor_libs/lpc_chip_43xx/src/uart_18xx_43xx.o
                                                  app/out/libs/vendor_libs/lpc_chip_43xx/src/timer_18xx_43xx.o
                                                  app/out/libs/vendor_libs/lpc_chip_43xx/src/ssp_18xx_43xx.o
                                                  app/out/libs/vendor_libs/lpc_chip_43xx/src/spi_18xx_43xx.o
                                                  app/out/libs/vendor_libs/lpc_chip_43xx/src/sdif_18xx_43xx.o
                                                  app/out/libs/vendor_libs/lpc_chip_43xx/src/sct_18xx_43xx.o
                                                  app/out/libs/vendor_libs/lpc_chip_43xx/src/ritimer_18xx_43xx.o
                                                  app/out/libs/vendor_libs/lpc_chip_43xx/src/lcd_18xx_43xx.o
                                                  app/out/libs/vendor_libs/lpc_chip_43xx/src/i2s_18xx_43xx.o
                                                  app/out/libs/vendor_libs/lpc_chip_43xx/src/i2cm_18xx_43xx.o
                                                  app/out/libs/vendor_libs/lpc_chip_43xx/src/i2c_18xx_43xx.o
                                                  app/out/libs/vendor_libs/lpc_chip_43xx/src/gpdma_18xx_43xx.o
                                                  app/out/libs/vendor_libs/lpc_chip_43xx/src/enet_18xx_43xx.o
                                                  app/out/libs/vendor_libs/lpc_chip_43xx/src/dac_18xx_43xx.o
                                                  app/out/libs/vendor_libs/lpc_chip_43xx/src/ccan_18xx_43xx.o
                                                  app/out/libs/vendor_libs/lpc_chip_43xx/src/adc_18xx_43xx.o
Chip_Clock_DisableBaseClock                       app/out/libs/vendor_libs/lpc_chip_43xx/src/clock_18xx_43xx.o
Chip_Clock_DisableCrystal                         app/out/libs/vendor_libs/lpc_chip_43xx/src/clock_18xx_43xx.o
Chip_Clock_DisablePLL                             app/out/libs/vendor_libs/lpc_chip_43xx/src/clock_18xx_43xx.o
Chip_Clock_Enable                                 app/out/libs/vendor_libs/lpc_chip_43xx/src/clock_18xx_43xx.o
                                                  app/out/libs/vendor_libs/lpc_chip_43xx/src/timer_18xx_43xx.o
                                                  app/out/libs/vendor_libs/lpc_chip_43xx/src/ssp_18xx_43xx.o
                                                  app/out/libs/vendor_libs/lpc_chip_43xx/src/spi_18xx_43xx.o
                                                  app/out/libs/vendor_libs/lpc_chip_43xx/src/i2s_18xx_43xx.o
                                                  app/out/libs/vendor_libs/lpc_chip_43xx/src/i2cm_18xx_43xx.o
                                                  app/out/libs/vendor_libs/lpc_chip_43xx/src/i2c_18xx_43xx.o
Chip_Clock_EnableBaseClock                        app/out/libs/vendor_libs/lpc_chip_43xx/src/clock_18xx_43xx.o
                                                  app/out/libs/vendor_libs/lpc_chip_43xx/src/chip_18xx_43xx.o
Chip_Clock_EnableCrystal                          app/out/libs/vendor_libs/lpc_chip_43xx/src/clock_18xx_43xx.o
                                                  app/out/libs/vendor_libs/lpc_chip_43xx/src/sysinit_18xx_43xx.o
Chip_Clock_EnableOpts                             app/out/libs/vendor_libs/lpc_chip_43xx/src/clock_18xx_43xx.o
                                                  app/out/libs/vendor_libs/lpc_chip_43xx/src/uart_18xx_43xx.o
                                                  app/out/libs/vendor_libs/lpc_chip_43xx/src/sdif_18xx_43xx.o
                                                  app/out/libs/vendor_libs/lpc_chip_43xx/src/sct_18xx_43xx.o
                                                  app/out/libs/vendor_libs/lpc_chip_43xx/src/ritimer_18xx_43xx.o
                                                  app/out/libs/vendor_libs/lpc_chip_43xx/src/lcd_18xx_43xx.o
                                                  app/out/libs/vendor_libs/lpc_chip_43xx/src/gpdma_18xx_43xx.o
                                                  app/out/libs/vendor_libs/lpc_chip_43xx/src/enet_18xx_43xx.o
                                                  app/out/libs/vendor_libs/lpc_chip_43xx/src/dac_18xx_43xx.o
                                                  app/out/libs/vendor_libs/lpc_chip_43xx/src/chip_18xx_43xx.o
                                                  app/out/libs/vendor_libs/lpc_chip_43xx/src/ccan_18xx_43xx.o
                                                  app/out/libs/vendor_libs/lpc_chip_43xx/src/adc_18xx_43xx.o
Chip_Clock_EnablePLL                              app/out/libs/vendor_libs/lpc_chip_43xx/src/clock_18xx_43xx.o
                                                  app/out/libs/vendor_libs/lpc_chip_43xx/src/chip_18xx_43xx.o
Chip_Clock_GetBaseClock                           app/out/libs/vendor_libs/lpc_chip_43xx/src/clock_18xx_43xx.o
Chip_Clock_GetBaseClockOpts                       app/out/libs/vendor_libs/lpc_chip_43xx/src/clock_18xx_43xx.o
Chip_Clock_GetBaseClocktHz                        app/out/libs/vendor_libs/lpc_chip_43xx/src/clock_18xx_43xx.o
                                                  app/out/libs/vendor_libs/lpc_chip_43xx/src/sdmmc_18xx_43xx.o
                                                  app/out/libs/vendor_libs/lpc_chip_43xx/src/sdio_18xx_43xx.o
Chip_Clock_GetClockInputHz                        app/out/libs/vendor_libs/lpc_chip_43xx/src/clock_18xx_43xx.o
                                                  app/out/libs/vendor_libs/lpc_chip_43xx/src/chip_18xx_43xx.o
Chip_Clock_GetDividerDivisor                      app/out/libs/vendor_libs/lpc_chip_43xx/src/clock_18xx_43xx.o
Chip_Clock_GetDividerSource                       app/out/libs/vendor_libs/lpc_chip_43xx/src/clock_18xx_43xx.o
Chip_Clock_GetEMCRate                             app/out/libs/vendor_libs/lpc_chip_43xx/src/clock_18xx_43xx.o
                                                  app/out/libs/vendor_libs/lpc_chip_43xx/src/emc_18xx_43xx.o
Chip_Clock_GetMainPLLHz                           app/out/libs/vendor_libs/lpc_chip_43xx/src/clock_18xx_43xx.o
Chip_Clock_GetPLLStatus                           app/out/libs/vendor_libs/lpc_chip_43xx/src/clock_18xx_43xx.o
                                                  app/out/libs/vendor_libs/lpc_chip_43xx/src/chip_18xx_43xx.o
Chip_Clock_GetRate                                app/out/libs/vendor_libs/lpc_chip_43xx/src/clock_18xx_43xx.o
                                                  app/out/libs/vendor_libs/lpc_chip_43xx/src/uart_18xx_43xx.o
                                                  app/out/libs/vendor_libs/lpc_chip_43xx/src/stopwatch_18xx_43xx.o
                                                  app/out/libs/vendor_libs/lpc_chip_43xx/src/ssp_18xx_43xx.o
                                                  app/out/libs/vendor_libs/lpc_chip_43xx/src/spi_18xx_43xx.o
                                                  app/out/libs/vendor_libs/lpc_chip_43xx/src/sct_pwm_18xx_43xx.o
                                                  app/out/libs/vendor_libs/lpc_chip_43xx/src/ritimer_18xx_43xx.o
                                                  app/out/libs/vendor_libs/lpc_chip_43xx/src/i2s_18xx_43xx.o
                                                  app/out/libs/vendor_libs/lpc_chip_43xx/src/i2cm_18xx_43xx.o
                                                  app/out/libs/vendor_libs/lpc_chip_43xx/src/i2c_18xx_43xx.o
                                                  app/out/libs/vendor_libs/lpc_chip_43xx/src/eeprom_18xx_43xx.o
                                                  app/out/libs/vendor_libs/lpc_chip_43xx/src/chip_18xx_43xx.o
                                                  app/out/libs/vendor_libs/lpc_chip_43xx/src/ccan_18xx_43xx.o
                                                  app/out/libs/vendor_libs/lpc_chip_43xx/src/adc_18xx_43xx.o
Chip_Clock_IsBaseClockEnabled                     app/out/libs/vendor_libs/lpc_chip_43xx/src/clock_18xx_43xx.o
Chip_Clock_RTCEnable                              app/out/libs/vendor_libs/lpc_chip_43xx/src/clock_18xx_43xx.o
                                                  app/out/libs/vendor_libs/lpc_chip_43xx/src/rtc_18xx_43xx.o
Chip_Clock_SetBaseClock                           app/out/libs/vendor_libs/lpc_chip_43xx/src/clock_18xx_43xx.o
                                                  app/out/libs/vendor_libs/lpc_chip_43xx/src/sysinit_18xx_43xx.o
                                                  app/out/libs/vendor_libs/lpc_chip_43xx/src/chip_18xx_43xx.o
                                                  app/out/libs/vendor_libs/lpc_board_ciaa_edu_4337/src/board_sysinit.o
Chip_Clock_SetDivider                             app/out/libs/vendor_libs/lpc_chip_43xx/src/clock_18xx_43xx.o
                                                  app/out/libs/vendor_libs/lpc_chip_43xx/src/chip_18xx_43xx.o
Chip_Clock_SetupMainPLLHz                         app/out/libs/vendor_libs/lpc_chip_43xx/src/clock_18xx_43xx.o
Chip_Clock_SetupMainPLLMult                       app/out/libs/vendor_libs/lpc_chip_43xx/src/clock_18xx_43xx.o
Chip_Clock_SetupPLL                               app/out/libs/vendor_libs/lpc_chip_43xx/src/clock_18xx_43xx.o
                                                  app/out/libs/vendor_libs/lpc_chip_43xx/src/chip_18xx_43xx.o
Chip_Clock_StartPowerDown                         app/out/libs/vendor_libs/lpc_chip_43xx/src/clock_18xx_43xx.o
Chip_DAC_DeInit                                   app/out/libs/vendor_libs/lpc_chip_43xx/src/dac_18xx_43xx.o
                                                  app/out/libs/sapi/sapi_v0.5.2/soc/peripherals/src/sapi_dac.o
Chip_DAC_Init                                     app/out/libs/vendor_libs/lpc_chip_43xx/src/dac_18xx_43xx.o
                                                  app/out/libs/sapi/sapi_v0.5.2/soc/peripherals/src/sapi_dac.o
Chip_DAC_SetBias                                  app/out/libs/vendor_libs/lpc_chip_43xx/src/dac_18xx_43xx.o
Chip_DAC_UpdateValue                              app/out/libs/vendor_libs/lpc_chip_43xx/src/dac_18xx_43xx.o
                                                  app/out/libs/sapi/sapi_v0.5.2/soc/peripherals/src/sapi_dac.o
Chip_EEPROM_EraseProgramPage                      app/out/libs/vendor_libs/lpc_chip_43xx/src/eeprom_18xx_43xx.o
Chip_EEPROM_Init                                  app/out/libs/vendor_libs/lpc_chip_43xx/src/eeprom_18xx_43xx.o
Chip_EEPROM_WaitForIntStatus                      app/out/libs/vendor_libs/lpc_chip_43xx/src/eeprom_18xx_43xx.o
Chip_EMC_Dynamic_Enable                           app/out/libs/vendor_libs/lpc_chip_43xx/src/emc_18xx_43xx.o
Chip_EMC_Dynamic_Init                             app/out/libs/vendor_libs/lpc_chip_43xx/src/emc_18xx_43xx.o
Chip_EMC_Enable                                   app/out/libs/vendor_libs/lpc_chip_43xx/src/emc_18xx_43xx.o
Chip_EMC_Init                                     app/out/libs/vendor_libs/lpc_chip_43xx/src/emc_18xx_43xx.o
Chip_EMC_LowPowerMode                             app/out/libs/vendor_libs/lpc_chip_43xx/src/emc_18xx_43xx.o
Chip_EMC_Mirror                                   app/out/libs/vendor_libs/lpc_chip_43xx/src/emc_18xx_43xx.o
Chip_EMC_Static_Init                              app/out/libs/vendor_libs/lpc_chip_43xx/src/emc_18xx_43xx.o
Chip_ENET_DeInit                                  app/out/libs/vendor_libs/lpc_chip_43xx/src/enet_18xx_43xx.o
Chip_ENET_Init                                    app/out/libs/vendor_libs/lpc_chip_43xx/src/enet_18xx_43xx.o
Chip_ENET_SetDuplex                               app/out/libs/vendor_libs/lpc_chip_43xx/src/enet_18xx_43xx.o
Chip_ENET_SetSpeed                                app/out/libs/vendor_libs/lpc_chip_43xx/src/enet_18xx_43xx.o
Chip_ENET_SetupMII                                app/out/libs/vendor_libs/lpc_chip_43xx/src/enet_18xx_43xx.o
Chip_ENET_StartMIIRead                            app/out/libs/vendor_libs/lpc_chip_43xx/src/enet_18xx_43xx.o
Chip_ENET_StartMIIWrite                           app/out/libs/vendor_libs/lpc_chip_43xx/src/enet_18xx_43xx.o
Chip_EVRT_ConfigIntSrcActiveType                  app/out/libs/vendor_libs/lpc_chip_43xx/src/evrt_18xx_43xx.o
Chip_EVRT_Init                                    app/out/libs/vendor_libs/lpc_chip_43xx/src/evrt_18xx_43xx.o
Chip_EVRT_IsSourceInterrupting                    app/out/libs/vendor_libs/lpc_chip_43xx/src/evrt_18xx_43xx.o
Chip_EVRT_SetUpIntSrc                             app/out/libs/vendor_libs/lpc_chip_43xx/src/evrt_18xx_43xx.o
Chip_GPDMA_ChannelCmd                             app/out/libs/vendor_libs/lpc_chip_43xx/src/gpdma_18xx_43xx.o
Chip_GPDMA_ClearIntPending                        app/out/libs/vendor_libs/lpc_chip_43xx/src/gpdma_18xx_43xx.o
Chip_GPDMA_DeInit                                 app/out/libs/vendor_libs/lpc_chip_43xx/src/gpdma_18xx_43xx.o
Chip_GPDMA_GetFreeChannel                         app/out/libs/vendor_libs/lpc_chip_43xx/src/gpdma_18xx_43xx.o
Chip_GPDMA_Init                                   app/out/libs/vendor_libs/lpc_chip_43xx/src/gpdma_18xx_43xx.o
Chip_GPDMA_InitChannelCfg                         app/out/libs/vendor_libs/lpc_chip_43xx/src/gpdma_18xx_43xx.o
Chip_GPDMA_IntGetStatus                           app/out/libs/vendor_libs/lpc_chip_43xx/src/gpdma_18xx_43xx.o
Chip_GPDMA_Interrupt                              app/out/libs/vendor_libs/lpc_chip_43xx/src/gpdma_18xx_43xx.o
Chip_GPDMA_PrepareDescriptor                      app/out/libs/vendor_libs/lpc_chip_43xx/src/gpdma_18xx_43xx.o
Chip_GPDMA_SGTransfer                             app/out/libs/vendor_libs/lpc_chip_43xx/src/gpdma_18xx_43xx.o
Chip_GPDMA_Stop                                   app/out/libs/vendor_libs/lpc_chip_43xx/src/gpdma_18xx_43xx.o
Chip_GPDMA_Transfer                               app/out/libs/vendor_libs/lpc_chip_43xx/src/gpdma_18xx_43xx.o
Chip_GPIO_DeInit                                  app/out/libs/vendor_libs/lpc_chip_43xx/src/gpio_18xx_43xx.o
Chip_GPIO_Init                                    app/out/libs/vendor_libs/lpc_chip_43xx/src/gpio_18xx_43xx.o
                                                  app/out/libs/vendor_libs/lpc_board_ciaa_edu_4337/src/board.o
                                                  app/out/libs/sapi/sapi_v0.5.2/soc/peripherals/src/sapi_gpio.o
Chip_I2CM_DeInit                                  app/out/libs/vendor_libs/lpc_chip_43xx/src/i2cm_18xx_43xx.o
Chip_I2CM_Init                                    app/out/libs/vendor_libs/lpc_chip_43xx/src/i2cm_18xx_43xx.o
Chip_I2CM_Read                                    app/out/libs/vendor_libs/lpc_chip_43xx/src/i2cm_18xx_43xx.o
Chip_I2CM_SetBusSpeed                             app/out/libs/vendor_libs/lpc_chip_43xx/src/i2cm_18xx_43xx.o
Chip_I2CM_Write                                   app/out/libs/vendor_libs/lpc_chip_43xx/src/i2cm_18xx_43xx.o
Chip_I2CM_Xfer                                    app/out/libs/vendor_libs/lpc_chip_43xx/src/i2cm_18xx_43xx.o
Chip_I2CM_XferBlocking                            app/out/libs/vendor_libs/lpc_chip_43xx/src/i2cm_18xx_43xx.o
                                                  app/out/libs/sapi/sapi_v0.5.2/soc/peripherals/src/sapi_i2c.o
Chip_I2CM_XferHandler                             app/out/libs/vendor_libs/lpc_chip_43xx/src/i2cm_18xx_43xx.o
Chip_I2C_DeInit                                   app/out/libs/vendor_libs/lpc_chip_43xx/src/i2c_18xx_43xx.o
Chip_I2C_Disable                                  app/out/libs/vendor_libs/lpc_chip_43xx/src/i2c_18xx_43xx.o
Chip_I2C_EventHandler                             app/out/libs/vendor_libs/lpc_chip_43xx/src/i2c_18xx_43xx.o
Chip_I2C_EventHandlerPolling                      app/out/libs/vendor_libs/lpc_chip_43xx/src/i2c_18xx_43xx.o
                                                  app/out/libs/sapi/sapi_v0.5.2/soc/peripherals/src/sapi_i2c.o
Chip_I2C_GetClockRate                             app/out/libs/vendor_libs/lpc_chip_43xx/src/i2c_18xx_43xx.o
Chip_I2C_GetMasterEventHandler                    app/out/libs/vendor_libs/lpc_chip_43xx/src/i2c_18xx_43xx.o
Chip_I2C_Init                                     app/out/libs/vendor_libs/lpc_chip_43xx/src/i2c_18xx_43xx.o
                                                  app/out/libs/vendor_libs/lpc_board_ciaa_edu_4337/src/board.o
                                                  app/out/libs/sapi/sapi_v0.5.2/soc/peripherals/src/sapi_i2c.o
Chip_I2C_IsMasterActive                           app/out/libs/vendor_libs/lpc_chip_43xx/src/i2c_18xx_43xx.o
Chip_I2C_IsStateChanged                           app/out/libs/vendor_libs/lpc_chip_43xx/src/i2c_18xx_43xx.o
Chip_I2C_MasterCmdRead                            app/out/libs/vendor_libs/lpc_chip_43xx/src/i2c_18xx_43xx.o
Chip_I2C_MasterRead                               app/out/libs/vendor_libs/lpc_chip_43xx/src/i2c_18xx_43xx.o
Chip_I2C_MasterSend                               app/out/libs/vendor_libs/lpc_chip_43xx/src/i2c_18xx_43xx.o
Chip_I2C_MasterStateHandler                       app/out/libs/vendor_libs/lpc_chip_43xx/src/i2c_18xx_43xx.o
Chip_I2C_MasterTransfer                           app/out/libs/vendor_libs/lpc_chip_43xx/src/i2c_18xx_43xx.o
Chip_I2C_SetClockRate                             app/out/libs/vendor_libs/lpc_chip_43xx/src/i2c_18xx_43xx.o
                                                  app/out/libs/vendor_libs/lpc_board_ciaa_edu_4337/src/board.o
                                                  app/out/libs/sapi/sapi_v0.5.2/soc/peripherals/src/sapi_i2c.o
Chip_I2C_SetMasterEventHandler                    app/out/libs/vendor_libs/lpc_chip_43xx/src/i2c_18xx_43xx.o
                                                  app/out/libs/sapi/sapi_v0.5.2/soc/peripherals/src/sapi_i2c.o
Chip_I2C_SlaveSetup                               app/out/libs/vendor_libs/lpc_chip_43xx/src/i2c_18xx_43xx.o
Chip_I2C_SlaveStateHandler                        app/out/libs/vendor_libs/lpc_chip_43xx/src/i2c_18xx_43xx.o
Chip_I2S_DMA_RxCmd                                app/out/libs/vendor_libs/lpc_chip_43xx/src/i2s_18xx_43xx.o
Chip_I2S_DMA_TxCmd                                app/out/libs/vendor_libs/lpc_chip_43xx/src/i2s_18xx_43xx.o
Chip_I2S_DeInit                                   app/out/libs/vendor_libs/lpc_chip_43xx/src/i2s_18xx_43xx.o
Chip_I2S_Init                                     app/out/libs/vendor_libs/lpc_chip_43xx/src/i2s_18xx_43xx.o
Chip_I2S_Int_RxCmd                                app/out/libs/vendor_libs/lpc_chip_43xx/src/i2s_18xx_43xx.o
Chip_I2S_Int_TxCmd                                app/out/libs/vendor_libs/lpc_chip_43xx/src/i2s_18xx_43xx.o
Chip_I2S_RxConfig                                 app/out/libs/vendor_libs/lpc_chip_43xx/src/i2s_18xx_43xx.o
Chip_I2S_TxConfig                                 app/out/libs/vendor_libs/lpc_chip_43xx/src/i2s_18xx_43xx.o
Chip_IAP_BlankCheckSector                         app/out/libs/vendor_libs/lpc_chip_43xx/src/iap_18xx_43xx.o
Chip_IAP_Compare                                  app/out/libs/vendor_libs/lpc_chip_43xx/src/iap_18xx_43xx.o
Chip_IAP_CopyRamToFlash                           app/out/libs/vendor_libs/lpc_chip_43xx/src/iap_18xx_43xx.o
Chip_IAP_ErasePage                                app/out/libs/vendor_libs/lpc_chip_43xx/src/iap_18xx_43xx.o
Chip_IAP_EraseSector                              app/out/libs/vendor_libs/lpc_chip_43xx/src/iap_18xx_43xx.o
Chip_IAP_Init                                     app/out/libs/vendor_libs/lpc_chip_43xx/src/iap_18xx_43xx.o
Chip_IAP_PreSectorForReadWrite                    app/out/libs/vendor_libs/lpc_chip_43xx/src/iap_18xx_43xx.o
Chip_IAP_ReadBootCode                             app/out/libs/vendor_libs/lpc_chip_43xx/src/iap_18xx_43xx.o
Chip_IAP_ReadPID                                  app/out/libs/vendor_libs/lpc_chip_43xx/src/iap_18xx_43xx.o
Chip_IAP_ReadUID                                  app/out/libs/vendor_libs/lpc_chip_43xx/src/iap_18xx_43xx.o
Chip_IAP_ReinvokeISP                              app/out/libs/vendor_libs/lpc_chip_43xx/src/iap_18xx_43xx.o
Chip_IAP_SetBootFlashBank                         app/out/libs/vendor_libs/lpc_chip_43xx/src/iap_18xx_43xx.o
Chip_LCD_Cursor_Config                            app/out/libs/vendor_libs/lpc_chip_43xx/src/lcd_18xx_43xx.o
Chip_LCD_Cursor_WriteImage                        app/out/libs/vendor_libs/lpc_chip_43xx/src/lcd_18xx_43xx.o
Chip_LCD_DeInit                                   app/out/libs/vendor_libs/lpc_chip_43xx/src/lcd_18xx_43xx.o
Chip_LCD_Init                                     app/out/libs/vendor_libs/lpc_chip_43xx/src/lcd_18xx_43xx.o
Chip_LCD_LoadPalette                              app/out/libs/vendor_libs/lpc_chip_43xx/src/lcd_18xx_43xx.o
Chip_OTP_GenRand                                  app/out/libs/vendor_libs/lpc_chip_43xx/src/otp_18xx_43xx.o
Chip_OTP_Init                                     app/out/libs/vendor_libs/lpc_chip_43xx/src/otp_18xx_43xx.o
Chip_OTP_ProgBootSrc                              app/out/libs/vendor_libs/lpc_chip_43xx/src/otp_18xx_43xx.o
Chip_OTP_ProgGPWord                               app/out/libs/vendor_libs/lpc_chip_43xx/src/otp_18xx_43xx.o
Chip_OTP_ProgJTAGDis                              app/out/libs/vendor_libs/lpc_chip_43xx/src/otp_18xx_43xx.o
Chip_OTP_ProgKey                                  app/out/libs/vendor_libs/lpc_chip_43xx/src/otp_18xx_43xx.o
Chip_OTP_ProgUSBID                                app/out/libs/vendor_libs/lpc_chip_43xx/src/otp_18xx_43xx.o
Chip_PMC_Set_PwrState                             app/out/libs/vendor_libs/lpc_chip_43xx/src/pmc_18xx_43xx.o
Chip_PMC_Sleep                                    app/out/libs/vendor_libs/lpc_chip_43xx/src/pmc_18xx_43xx.o
Chip_RIT_DeInit                                   app/out/libs/vendor_libs/lpc_chip_43xx/src/ritimer_18xx_43xx.o
Chip_RIT_GetIntStatus                             app/out/libs/vendor_libs/lpc_chip_43xx/src/ritimer_18xx_43xx.o
Chip_RIT_Init                                     app/out/libs/vendor_libs/lpc_chip_43xx/src/ritimer_18xx_43xx.o
Chip_RIT_SetTimerInterval                         app/out/libs/vendor_libs/lpc_chip_43xx/src/ritimer_18xx_43xx.o
Chip_RTC_AlarmIntConfig                           app/out/libs/vendor_libs/lpc_chip_43xx/src/rtc_18xx_43xx.o
Chip_RTC_CalibCounterCmd                          app/out/libs/vendor_libs/lpc_chip_43xx/src/rtc_18xx_43xx.o
Chip_RTC_CntIncrIntConfig                         app/out/libs/vendor_libs/lpc_chip_43xx/src/rtc_18xx_43xx.o
Chip_RTC_DeInit                                   app/out/libs/vendor_libs/lpc_chip_43xx/src/rtc_18xx_43xx.o
Chip_RTC_EV_GetFirstTimeStamp                     app/out/libs/vendor_libs/lpc_chip_43xx/src/rtc_18xx_43xx.o
Chip_RTC_EV_GetLastTimeStamp                      app/out/libs/vendor_libs/lpc_chip_43xx/src/rtc_18xx_43xx.o
Chip_RTC_Enable                                   app/out/libs/vendor_libs/lpc_chip_43xx/src/rtc_18xx_43xx.o
                                                  app/out/libs/sapi/sapi_v0.5.2/soc/peripherals/src/sapi_rtc.o
Chip_RTC_GetFullAlarmTime                         app/out/libs/vendor_libs/lpc_chip_43xx/src/rtc_18xx_43xx.o
Chip_RTC_GetFullTime                              app/out/libs/vendor_libs/lpc_chip_43xx/src/rtc_18xx_43xx.o
                                                  app/out/libs/sapi/sapi_v0.5.2/soc/peripherals/src/sapi_rtc.o
Chip_RTC_Init                                     app/out/libs/vendor_libs/lpc_chip_43xx/src/rtc_18xx_43xx.o
                                                  app/out/libs/sapi/sapi_v0.5.2/soc/peripherals/src/sapi_rtc.o
Chip_RTC_ResetClockTickCounter                    app/out/libs/vendor_libs/lpc_chip_43xx/src/rtc_18xx_43xx.o
Chip_RTC_SetFullAlarmTime                         app/out/libs/vendor_libs/lpc_chip_43xx/src/rtc_18xx_43xx.o
Chip_RTC_SetFullTime                              app/out/libs/vendor_libs/lpc_chip_43xx/src/rtc_18xx_43xx.o
                                                  app/out/libs/sapi/sapi_v0.5.2/soc/peripherals/src/sapi_rtc.o
Chip_SCTPWM_SetOutPin                             app/out/libs/vendor_libs/lpc_chip_43xx/src/sct_pwm_18xx_43xx.o
                                                  app/out/libs/sapi/sapi_v0.5.2/soc/peripherals/src/sapi_sct.o
Chip_SCTPWM_SetRate                               app/out/libs/vendor_libs/lpc_chip_43xx/src/sct_pwm_18xx_43xx.o
                                                  app/out/libs/sapi/sapi_v0.5.2/soc/peripherals/src/sapi_sct.o
Chip_SCT_DeInit                                   app/out/libs/vendor_libs/lpc_chip_43xx/src/sct_18xx_43xx.o
Chip_SCT_Init                                     app/out/libs/vendor_libs/lpc_chip_43xx/src/sct_18xx_43xx.o
                                                  app/out/libs/sapi/sapi_v0.5.2/soc/peripherals/src/sapi_sct.o
Chip_SCT_SetClrControl                            app/out/libs/vendor_libs/lpc_chip_43xx/src/sct_18xx_43xx.o
Chip_SCT_SetConflictResolution                    app/out/libs/vendor_libs/lpc_chip_43xx/src/sct_18xx_43xx.o
Chip_SDIF_DeInit                                  app/out/libs/vendor_libs/lpc_chip_43xx/src/sdif_18xx_43xx.o
Chip_SDIF_DmaSetup                                app/out/libs/vendor_libs/lpc_chip_43xx/src/sdif_18xx_43xx.o
                                                  app/out/libs/vendor_libs/lpc_chip_43xx/src/sdmmc_18xx_43xx.o
                                                  app/out/libs/vendor_libs/lpc_chip_43xx/src/sdio_18xx_43xx.o
Chip_SDIF_GetResponse                             app/out/libs/vendor_libs/lpc_chip_43xx/src/sdif_18xx_43xx.o
                                                  app/out/libs/vendor_libs/lpc_chip_43xx/src/sdmmc_18xx_43xx.o
                                                  app/out/libs/vendor_libs/lpc_chip_43xx/src/sdio_18xx_43xx.o
Chip_SDIF_Init                                    app/out/libs/vendor_libs/lpc_chip_43xx/src/sdif_18xx_43xx.o
Chip_SDIF_SendCmd                                 app/out/libs/vendor_libs/lpc_chip_43xx/src/sdif_18xx_43xx.o
                                                  app/out/libs/vendor_libs/lpc_chip_43xx/src/sdmmc_18xx_43xx.o
                                                  app/out/libs/vendor_libs/lpc_chip_43xx/src/sdio_18xx_43xx.o
Chip_SDIF_SetClearIntFifo                         app/out/libs/vendor_libs/lpc_chip_43xx/src/sdif_18xx_43xx.o
                                                  app/out/libs/vendor_libs/lpc_chip_43xx/src/sdmmc_18xx_43xx.o
Chip_SDIF_SetClock                                app/out/libs/vendor_libs/lpc_chip_43xx/src/sdif_18xx_43xx.o
                                                  app/out/libs/vendor_libs/lpc_chip_43xx/src/sdmmc_18xx_43xx.o
                                                  app/out/libs/vendor_libs/lpc_chip_43xx/src/sdio_18xx_43xx.o
Chip_SDMMC_Acquire                                app/out/libs/vendor_libs/lpc_chip_43xx/src/sdmmc_18xx_43xx.o
Chip_SDMMC_GetDeviceBlocks                        app/out/libs/vendor_libs/lpc_chip_43xx/src/sdmmc_18xx_43xx.o
Chip_SDMMC_GetDeviceSize                          app/out/libs/vendor_libs/lpc_chip_43xx/src/sdmmc_18xx_43xx.o
Chip_SDMMC_GetState                               app/out/libs/vendor_libs/lpc_chip_43xx/src/sdmmc_18xx_43xx.o
Chip_SDMMC_ReadBlocks                             app/out/libs/vendor_libs/lpc_chip_43xx/src/sdmmc_18xx_43xx.o
Chip_SDMMC_WriteBlocks                            app/out/libs/vendor_libs/lpc_chip_43xx/src/sdmmc_18xx_43xx.o
Chip_SPI_DeInit                                   app/out/libs/vendor_libs/lpc_chip_43xx/src/spi_18xx_43xx.o
Chip_SPI_Init                                     app/out/libs/vendor_libs/lpc_chip_43xx/src/spi_18xx_43xx.o
Chip_SPI_Int_FlushData                            app/out/libs/vendor_libs/lpc_chip_43xx/src/spi_18xx_43xx.o
Chip_SPI_Int_RWFrames                             app/out/libs/vendor_libs/lpc_chip_43xx/src/spi_18xx_43xx.o
Chip_SPI_Int_RWFrames16Bits                       app/out/libs/vendor_libs/lpc_chip_43xx/src/spi_18xx_43xx.o
Chip_SPI_Int_RWFrames8Bits                        app/out/libs/vendor_libs/lpc_chip_43xx/src/spi_18xx_43xx.o
Chip_SPI_RWFrames_Blocking                        app/out/libs/vendor_libs/lpc_chip_43xx/src/spi_18xx_43xx.o
Chip_SPI_SetBitRate                               app/out/libs/vendor_libs/lpc_chip_43xx/src/spi_18xx_43xx.o
Chip_SSP_DeInit                                   app/out/libs/vendor_libs/lpc_chip_43xx/src/ssp_18xx_43xx.o
Chip_SSP_Init                                     app/out/libs/vendor_libs/lpc_chip_43xx/src/ssp_18xx_43xx.o
                                                  app/out/libs/vendor_libs/lpc_board_ciaa_edu_4337/src/board.o
                                                  app/out/libs/sapi/sapi_v0.5.2/soc/peripherals/src/sapi_spi.o
Chip_SSP_Int_FlushData                            app/out/libs/vendor_libs/lpc_chip_43xx/src/ssp_18xx_43xx.o
Chip_SSP_Int_RWFrames16Bits                       app/out/libs/vendor_libs/lpc_chip_43xx/src/ssp_18xx_43xx.o
Chip_SSP_Int_RWFrames8Bits                        app/out/libs/vendor_libs/lpc_chip_43xx/src/ssp_18xx_43xx.o
Chip_SSP_RWFrames_Blocking                        app/out/libs/vendor_libs/lpc_chip_43xx/src/ssp_18xx_43xx.o
                                                  app/out/libs/sapi/sapi_v0.5.2/soc/peripherals/src/sapi_spi.o
Chip_SSP_ReadFrames_Blocking                      app/out/libs/vendor_libs/lpc_chip_43xx/src/ssp_18xx_43xx.o
Chip_SSP_SetBitRate                               app/out/libs/vendor_libs/lpc_chip_43xx/src/ssp_18xx_43xx.o
                                                  app/out/libs/vendor_libs/lpc_board_ciaa_edu_4337/src/board.o
Chip_SSP_SetClockRate                             app/out/libs/vendor_libs/lpc_chip_43xx/src/ssp_18xx_43xx.o
Chip_SSP_SetMaster                                app/out/libs/vendor_libs/lpc_chip_43xx/src/ssp_18xx_43xx.o
Chip_SSP_WriteFrames_Blocking                     app/out/libs/vendor_libs/lpc_chip_43xx/src/ssp_18xx_43xx.o
Chip_SetupCoreClock                               app/out/libs/vendor_libs/lpc_chip_43xx/src/sysinit_18xx_43xx.o
                                                  app/out/libs/vendor_libs/lpc_board_ciaa_edu_4337/src/board_sysinit.o
Chip_SetupIrcClocking                             app/out/libs/vendor_libs/lpc_chip_43xx/src/sysinit_18xx_43xx.o
Chip_SetupXtalClocking                            app/out/libs/vendor_libs/lpc_chip_43xx/src/sysinit_18xx_43xx.o
Chip_SystemInit                                   app/out/libs/vendor_libs/lpc_chip_43xx/src/sysinit_18xx_43xx.o
Chip_TIMER_DeInit                                 app/out/libs/vendor_libs/lpc_chip_43xx/src/timer_18xx_43xx.o
                                                  app/out/libs/sapi/sapi_v0.5.2/soc/peripherals/src/sapi_timer.o
Chip_TIMER_ExtMatchControlSet                     app/out/libs/vendor_libs/lpc_chip_43xx/src/timer_18xx_43xx.o
Chip_TIMER_Init                                   app/out/libs/vendor_libs/lpc_chip_43xx/src/timer_18xx_43xx.o
                                                  app/out/libs/vendor_libs/lpc_chip_43xx/src/stopwatch_18xx_43xx.o
                                                  app/out/libs/sapi/sapi_v0.5.2/soc/peripherals/src/sapi_timer.o
Chip_TIMER_Reset                                  app/out/libs/vendor_libs/lpc_chip_43xx/src/timer_18xx_43xx.o
                                                  app/out/libs/sapi/sapi_v0.5.2/soc/peripherals/src/sapi_timer.o
Chip_UART_ABCmd                                   app/out/libs/vendor_libs/lpc_chip_43xx/src/uart_18xx_43xx.o
Chip_UART_CheckBusy                               app/out/libs/vendor_libs/lpc_chip_43xx/src/uart_18xx_43xx.o
Chip_UART_DeInit                                  app/out/libs/vendor_libs/lpc_chip_43xx/src/uart_18xx_43xx.o
Chip_UART_GetABEOStatus                           app/out/libs/vendor_libs/lpc_chip_43xx/src/uart_18xx_43xx.o
Chip_UART_IRQRBHandler                            app/out/libs/vendor_libs/lpc_chip_43xx/src/uart_18xx_43xx.o
Chip_UART_Init                                    app/out/libs/vendor_libs/lpc_chip_43xx/src/uart_18xx_43xx.o
                                                  app/out/libs/vendor_libs/lpc_board_ciaa_edu_4337/src/board.o
                                                  app/out/libs/sapi/sapi_v0.5.2/soc/peripherals/src/sapi_uart.o
Chip_UART_RXIntHandlerRB                          app/out/libs/vendor_libs/lpc_chip_43xx/src/uart_18xx_43xx.o
Chip_UART_Read                                    app/out/libs/vendor_libs/lpc_chip_43xx/src/uart_18xx_43xx.o
Chip_UART_ReadBlocking                            app/out/libs/vendor_libs/lpc_chip_43xx/src/uart_18xx_43xx.o
Chip_UART_ReadRB                                  app/out/libs/vendor_libs/lpc_chip_43xx/src/uart_18xx_43xx.o
Chip_UART_Send                                    app/out/libs/vendor_libs/lpc_chip_43xx/src/uart_18xx_43xx.o
                                                  app/out/libs/sapi/sapi_v0.5.2/soc/peripherals/usb/device/src/cdc_uart.o
Chip_UART_SendBlocking                            app/out/libs/vendor_libs/lpc_chip_43xx/src/uart_18xx_43xx.o
Chip_UART_SendRB                                  app/out/libs/vendor_libs/lpc_chip_43xx/src/uart_18xx_43xx.o
Chip_UART_SetBaud                                 app/out/libs/vendor_libs/lpc_chip_43xx/src/uart_18xx_43xx.o
                                                  app/out/libs/sapi/sapi_v0.5.2/soc/peripherals/usb/device/src/cdc_uart.o
                                                  app/out/libs/sapi/sapi_v0.5.2/soc/peripherals/src/sapi_uart.o
Chip_UART_SetBaudFDR                              app/out/libs/vendor_libs/lpc_chip_43xx/src/uart_18xx_43xx.o
                                                  app/out/libs/vendor_libs/lpc_board_ciaa_edu_4337/src/board.o
Chip_UART_TXIntHandlerRB                          app/out/libs/vendor_libs/lpc_chip_43xx/src/uart_18xx_43xx.o
Chip_USB0_Init                                    app/out/libs/vendor_libs/lpc_chip_43xx/src/chip_18xx_43xx.o
                                                  app/out/libs/sapi/sapi_v0.5.2/soc/peripherals/usb/device/src/sapi_usb_device.o
Chip_USB1_Init                                    app/out/libs/vendor_libs/lpc_chip_43xx/src/chip_18xx_43xx.o
Chip_WWDT_ClearStatusFlag                         app/out/libs/vendor_libs/lpc_chip_43xx/src/wwdt_18xx_43xx.o
Chip_WWDT_DeInit                                  app/out/libs/vendor_libs/lpc_chip_43xx/src/wwdt_18xx_43xx.o
Chip_WWDT_Init                                    app/out/libs/vendor_libs/lpc_chip_43xx/src/wwdt_18xx_43xx.o
DAC_IRQHandler                                    app/out/libs/vendor_libs/lpc_startup/src/cr_startup_lpc43xx.o
DMA_IRQHandler                                    app/out/libs/vendor_libs/lpc_startup/src/cr_startup_lpc43xx.o
DWT_CTRL                                          app/out/libs/sapi/sapi_v0.5.2/soc/core/src/sapi_cyclesCounter.o
DWT_CYCCNT                                        app/out/libs/sapi/sapi_v0.5.2/soc/core/src/sapi_cyclesCounter.o
DebugMon_Handler                                  app/out/libs/vendor_libs/lpc_startup/src/cr_startup_lpc43xx.o
EP0_patch                                         app/out/libs/sapi/sapi_v0.5.2/soc/peripherals/usb/device/src/sapi_usb_device.o
ETH_IRQHandler                                    app/out/libs/vendor_libs/lpc_startup/src/cr_startup_lpc43xx.o
EVRT_IRQHandler                                   app/out/libs/vendor_libs/lpc_startup/src/cr_startup_lpc43xx.o
ExtRateIn                                         app/out/libs/vendor_libs/lpc_board_ciaa_edu_4337/src/board.o
                                                  app/out/libs/vendor_libs/lpc_chip_43xx/src/clock_18xx_43xx.o
FLASH_EEPROM_IRQHandler                           app/out/libs/vendor_libs/lpc_startup/src/cr_startup_lpc43xx.o
GINT0_IRQHandler                                  app/out/libs/vendor_libs/lpc_startup/src/cr_startup_lpc43xx.o
GINT1_IRQHandler                                  app/out/libs/vendor_libs/lpc_startup/src/cr_startup_lpc43xx.o
GPIO0_IRQHandler                                  app/out/libs/sapi/sapi_v0.5.2/external_peripherals/src/sapi_ultrasonic_hcsr04.o
GPIO1_IRQHandler                                  app/out/libs/sapi/sapi_v0.5.2/external_peripherals/src/sapi_ultrasonic_hcsr04.o
GPIO2_IRQHandler                                  app/out/libs/sapi/sapi_v0.5.2/external_peripherals/src/sapi_ultrasonic_hcsr04.o
GPIO3_IRQHandler                                  app/out/libs/vendor_libs/lpc_startup/src/cr_startup_lpc43xx.o
GPIO4_IRQHandler                                  app/out/libs/vendor_libs/lpc_startup/src/cr_startup_lpc43xx.o
GPIO5_IRQHandler                                  app/out/libs/vendor_libs/lpc_startup/src/cr_startup_lpc43xx.o
GPIO6_IRQHandler                                  app/out/libs/vendor_libs/lpc_startup/src/cr_startup_lpc43xx.o
GPIO7_IRQHandler                                  app/out/libs/vendor_libs/lpc_startup/src/cr_startup_lpc43xx.o
HardFault_Handler                                 app/out/libs/vendor_libs/lpc_startup/src/cr_startup_lpc43xx.o
I2C0_IRQHandler                                   app/out/libs/vendor_libs/lpc_startup/src/cr_startup_lpc43xx.o
I2C1_IRQHandler                                   app/out/libs/vendor_libs/lpc_startup/src/cr_startup_lpc43xx.o
I2S0_IRQHandler                                   app/out/libs/vendor_libs/lpc_startup/src/cr_startup_lpc43xx.o
I2S1_IRQHandler                                   app/out/libs/vendor_libs/lpc_startup/src/cr_startup_lpc43xx.o
InicializarMEF                                    app/out/app/src/app.o
IntDefaultHandler                                 app/out/libs/vendor_libs/lpc_startup/src/cr_startup_lpc43xx.o
Keyboard_ReportDescSize                           app/out/libs/sapi/sapi_v0.5.2/soc/peripherals/usb/device/src/usbd_keyboard.o
Keyboard_ReportDescriptor                         app/out/libs/sapi/sapi_v0.5.2/soc/peripherals/usb/device/src/usbd_keyboard.o
LCD_IRQHandler                                    app/out/libs/vendor_libs/lpc_startup/src/cr_startup_lpc43xx.o
M0APP_IRQHandler                                  app/out/libs/vendor_libs/lpc_startup/src/cr_startup_lpc43xx.o
M0SUB_IRQHandler                                  app/out/libs/vendor_libs/lpc_startup/src/cr_startup_lpc43xx.o
MCPWM_IRQHandler                                  app/out/libs/vendor_libs/lpc_startup/src/cr_startup_lpc43xx.o
MemManage_Handler                                 app/out/libs/vendor_libs/lpc_startup/src/cr_startup_lpc43xx.o
NMI_Handler                                       app/out/libs/vendor_libs/lpc_startup/src/cr_startup_lpc43xx.o
OscRateIn                                         app/out/libs/vendor_libs/lpc_board_ciaa_edu_4337/src/board.o
                                                  app/out/libs/vendor_libs/lpc_chip_43xx/src/clock_18xx_43xx.o
PendSV_Handler                                    app/out/libs/vendor_libs/lpc_startup/src/cr_startup_lpc43xx.o
QEI_IRQHandler                                    app/out/libs/vendor_libs/lpc_startup/src/cr_startup_lpc43xx.o
RIT_IRQHandler                                    app/out/libs/vendor_libs/lpc_startup/src/cr_startup_lpc43xx.o
RTC_IRQHandler                                    app/out/libs/vendor_libs/lpc_startup/src/cr_startup_lpc43xx.o
RealizarOperacion                                 app/out/app/src/app.o
ResetISR                                          app/out/libs/vendor_libs/lpc_startup/src/cr_startup_lpc43xx.o
RingBuffer_Init                                   app/out/libs/vendor_libs/lpc_chip_43xx/src/ring_buffer.o
RingBuffer_Insert                                 app/out/libs/vendor_libs/lpc_chip_43xx/src/ring_buffer.o
                                                  app/out/libs/vendor_libs/lpc_chip_43xx/src/uart_18xx_43xx.o
RingBuffer_InsertMult                             app/out/libs/vendor_libs/lpc_chip_43xx/src/ring_buffer.o
                                                  app/out/libs/vendor_libs/lpc_chip_43xx/src/uart_18xx_43xx.o
RingBuffer_Pop                                    app/out/libs/vendor_libs/lpc_chip_43xx/src/ring_buffer.o
                                                  app/out/libs/vendor_libs/lpc_chip_43xx/src/uart_18xx_43xx.o
RingBuffer_PopMult                                app/out/libs/vendor_libs/lpc_chip_43xx/src/ring_buffer.o
                                                  app/out/libs/vendor_libs/lpc_chip_43xx/src/uart_18xx_43xx.o
SCT_IRQHandler                                    app/out/libs/vendor_libs/lpc_startup/src/cr_startup_lpc43xx.o
SDIO_Card_DisableInt                              app/out/libs/vendor_libs/lpc_chip_43xx/src/sdio_18xx_43xx.o
SDIO_Card_EnableInt                               app/out/libs/vendor_libs/lpc_chip_43xx/src/sdio_18xx_43xx.o
SDIO_Card_GetBlockSize                            app/out/libs/vendor_libs/lpc_chip_43xx/src/sdio_18xx_43xx.o
SDIO_Card_Init                                    app/out/libs/vendor_libs/lpc_chip_43xx/src/sdio_18xx_43xx.o
SDIO_Card_ReadData                                app/out/libs/vendor_libs/lpc_chip_43xx/src/sdio_18xx_43xx.o
SDIO_Card_SetBlockSize                            app/out/libs/vendor_libs/lpc_chip_43xx/src/sdio_18xx_43xx.o
SDIO_Card_WriteData                               app/out/libs/vendor_libs/lpc_chip_43xx/src/sdio_18xx_43xx.o
SDIO_Handler                                      app/out/libs/vendor_libs/lpc_chip_43xx/src/sdio_18xx_43xx.o
SDIO_IRQHandler                                   app/out/libs/vendor_libs/lpc_startup/src/cr_startup_lpc43xx.o
SDIO_Read_Direct                                  app/out/libs/vendor_libs/lpc_chip_43xx/src/sdio_18xx_43xx.o
SDIO_Send_Command                                 app/out/libs/vendor_libs/lpc_chip_43xx/src/sdio_18xx_43xx.o
SDIO_Setup_Callback                               app/out/libs/vendor_libs/lpc_chip_43xx/src/sdio_18xx_43xx.o
SDIO_WriteRead_Direct                             app/out/libs/vendor_libs/lpc_chip_43xx/src/sdio_18xx_43xx.o
SDIO_Write_Direct                                 app/out/libs/vendor_libs/lpc_chip_43xx/src/sdio_18xx_43xx.o
SGPIO_IRQHandler                                  app/out/libs/vendor_libs/lpc_startup/src/cr_startup_lpc43xx.o
SPIFI_IRQHandler                                  app/out/libs/vendor_libs/lpc_startup/src/cr_startup_lpc43xx.o
SPI_IRQHandler                                    app/out/libs/vendor_libs/lpc_startup/src/cr_startup_lpc43xx.o
SSP0_IRQHandler                                   app/out/libs/vendor_libs/lpc_startup/src/cr_startup_lpc43xx.o
SSP1_IRQHandler                                   app/out/libs/vendor_libs/lpc_startup/src/cr_startup_lpc43xx.o
SVC_Handler                                       app/out/libs/vendor_libs/lpc_startup/src/cr_startup_lpc43xx.o
Sct_EnablePwmFor                                  app/out/libs/sapi/sapi_v0.5.2/soc/peripherals/src/sapi_sct.o
                                                  app/out/libs/sapi/sapi_v0.5.2/soc/peripherals/src/sapi_pwm.o
Sct_GetDutyCycle                                  app/out/libs/sapi/sapi_v0.5.2/soc/peripherals/src/sapi_sct.o
                                                  app/out/libs/sapi/sapi_v0.5.2/soc/peripherals/src/sapi_pwm.o
Sct_Init                                          app/out/libs/sapi/sapi_v0.5.2/soc/peripherals/src/sapi_sct.o
                                                  app/out/libs/sapi/sapi_v0.5.2/soc/peripherals/src/sapi_pwm.o
Sct_SetDutyCycle                                  app/out/libs/sapi/sapi_v0.5.2/soc/peripherals/src/sapi_sct.o
                                                  app/out/libs/sapi/sapi_v0.5.2/soc/peripherals/src/sapi_pwm.o
Sct_Uint8ToTicks                                  app/out/libs/sapi/sapi_v0.5.2/soc/peripherals/src/sapi_sct.o
StopWatch_Init                                    app/out/libs/vendor_libs/lpc_chip_43xx/src/stopwatch_18xx_43xx.o
StopWatch_MsToTicks                               app/out/libs/vendor_libs/lpc_chip_43xx/src/stopwatch_18xx_43xx.o
StopWatch_Start                                   app/out/libs/vendor_libs/lpc_chip_43xx/src/stopwatch_18xx_43xx.o
StopWatch_TicksPerSecond                          app/out/libs/vendor_libs/lpc_chip_43xx/src/stopwatch_18xx_43xx.o
StopWatch_TicksToMs                               app/out/libs/vendor_libs/lpc_chip_43xx/src/stopwatch_18xx_43xx.o
StopWatch_TicksToUs                               app/out/libs/vendor_libs/lpc_chip_43xx/src/stopwatch_18xx_43xx.o
StopWatch_UsToTicks                               app/out/libs/vendor_libs/lpc_chip_43xx/src/stopwatch_18xx_43xx.o
SysTick_Handler                                   app/out/libs/sapi/sapi_v0.5.2/soc/peripherals/src/sapi_tick.o
SystemCoreClock                                   app/out/libs/vendor_libs/lpc_chip_43xx/src/chip_18xx_43xx.o
                                                  app/out/libs/vendor_libs/lpc_chip_43xx/src/iap_18xx_43xx.o
                                                  app/out/libs/vendor_libs/lpc_chip_43xx/src/enet_18xx_43xx.o
                                                  app/out/libs/sapi/sapi_v0.5.2/board/src/sapi_board.o
                                                  app/out/libs/sapi/sapi_v0.5.2/soc/peripherals/src/sapi_tick.o
SystemCoreClockUpdate                             app/out/libs/vendor_libs/lpc_chip_43xx/src/chip_18xx_43xx.o
                                                  app/out/libs/sapi/sapi_v0.5.2/board/src/sapi_board.o
SystemInit                                        app/out/libs/vendor_libs/lpc_board_ciaa_edu_4337/src/sysinit.o
                                                  app/out/libs/vendor_libs/lpc_startup/src/cr_startup_lpc43xx.o
TIMER0_IRQHandler                                 app/out/libs/sapi/sapi_v0.5.2/soc/peripherals/src/sapi_timer.o
TIMER1_IRQHandler                                 app/out/libs/sapi/sapi_v0.5.2/soc/peripherals/src/sapi_timer.o
TIMER2_IRQHandler                                 app/out/libs/sapi/sapi_v0.5.2/soc/peripherals/src/sapi_timer.o
TIMER3_IRQHandler                                 app/out/libs/sapi/sapi_v0.5.2/soc/peripherals/src/sapi_timer.o
Timer_DeInit                                      app/out/libs/sapi/sapi_v0.5.2/soc/peripherals/src/sapi_timer.o
Timer_DisableCompareMatch                         app/out/libs/sapi/sapi_v0.5.2/soc/peripherals/src/sapi_timer.o
                                                  app/out/libs/sapi/sapi_v0.5.2/external_peripherals/src/sapi_servo.o
Timer_EnableCompareMatch                          app/out/libs/sapi/sapi_v0.5.2/soc/peripherals/src/sapi_timer.o
                                                  app/out/libs/sapi/sapi_v0.5.2/external_peripherals/src/sapi_ultrasonic_hcsr04.o
                                                  app/out/libs/sapi/sapi_v0.5.2/external_peripherals/src/sapi_servo.o
Timer_Init                                        app/out/libs/sapi/sapi_v0.5.2/soc/peripherals/src/sapi_timer.o
                                                  app/out/libs/sapi/sapi_v0.5.2/external_peripherals/src/sapi_ultrasonic_hcsr04.o
                                                  app/out/libs/sapi/sapi_v0.5.2/external_peripherals/src/sapi_servo.o
                                                  app/out/libs/sapi/sapi_v0.5.2/external_peripherals/src/sapi_rgb.o
Timer_SetCompareMatch                             app/out/libs/sapi/sapi_v0.5.2/soc/peripherals/src/sapi_timer.o
                                                  app/out/libs/sapi/sapi_v0.5.2/external_peripherals/src/sapi_servo.o
Timer_microsecondsToTicks                         app/out/libs/sapi/sapi_v0.5.2/soc/peripherals/src/sapi_timer.o
                                                  app/out/libs/sapi/sapi_v0.5.2/external_peripherals/src/sapi_ultrasonic_hcsr04.o
                                                  app/out/libs/sapi/sapi_v0.5.2/external_peripherals/src/sapi_servo.o
                                                  app/out/libs/sapi/sapi_v0.5.2/external_peripherals/src/sapi_rgb.o
UART0_IRQHandler                                  app/out/libs/vendor_libs/lpc_startup/src/cr_startup_lpc43xx.o
UART1_IRQHandler                                  app/out/libs/vendor_libs/lpc_startup/src/cr_startup_lpc43xx.o
UART2_IRQHandler                                  app/out/libs/vendor_libs/lpc_startup/src/cr_startup_lpc43xx.o
UART3_IRQHandler                                  app/out/libs/vendor_libs/lpc_startup/src/cr_startup_lpc43xx.o
USB0_IRQHandler                                   app/out/libs/sapi/sapi_v0.5.2/soc/peripherals/usb/device/src/sapi_usb_device.o
USB1_IRQHandler                                   app/out/libs/vendor_libs/lpc_startup/src/cr_startup_lpc43xx.o
USB_DeviceDescriptor                              app/out/libs/sapi/sapi_v0.5.2/soc/peripherals/usb/device/src/sapi_usb_device.o
USB_DeviceQualifier                               app/out/libs/sapi/sapi_v0.5.2/soc/peripherals/usb/device/src/sapi_usb_device.o
USB_FsConfigDescriptor                            app/out/libs/sapi/sapi_v0.5.2/soc/peripherals/usb/device/src/sapi_usb_device.o
USB_HsConfigDescriptor                            app/out/libs/sapi/sapi_v0.5.2/soc/peripherals/usb/device/src/sapi_usb_device.o
USB_StringDescriptor                              app/out/libs/sapi/sapi_v0.5.2/soc/peripherals/usb/device/src/sapi_usb_device.o
UsageFault_Handler                                app/out/libs/vendor_libs/lpc_startup/src/cr_startup_lpc43xx.o
WDT_IRQHandler                                    app/out/libs/vendor_libs/lpc_startup/src/cr_startup_lpc43xx.o
__adddf3                                          d:/martin/facu/arq 2/embeddedide/gcc-arm-embedded/bin/../lib/gcc/arm-none-eabi/6.3.1/thumb/v7e-m/fpv4-sp/hard\libgcc.a(_arm_addsubdf3.o)
__aeabi_d2f                                       d:/martin/facu/arq 2/embeddedide/gcc-arm-embedded/bin/../lib/gcc/arm-none-eabi/6.3.1/thumb/v7e-m/fpv4-sp/hard\libgcc.a(_arm_truncdfsf2.o)
                                                  app/out/libs/sapi/sapi_v0.5.2/external_peripherals/src/sapi_imu_mpu9250.o
__aeabi_d2uiz                                     d:/martin/facu/arq 2/embeddedide/gcc-arm-embedded/bin/../lib/gcc/arm-none-eabi/6.3.1/thumb/v7e-m/fpv4-sp/hard\libgcc.a(_arm_fixunsdfsi.o)
                                                  d:/martin/facu/arq 2/embeddedide/gcc-arm-embedded/bin/../lib/gcc/arm-none-eabi/6.3.1/thumb/v7e-m/fpv4-sp/hard\libgcc.a(_fixunssfdi.o)
__aeabi_dadd                                      d:/martin/facu/arq 2/embeddedide/gcc-arm-embedded/bin/../lib/gcc/arm-none-eabi/6.3.1/thumb/v7e-m/fpv4-sp/hard\libgcc.a(_arm_addsubdf3.o)
                                                  app/out/libs/sapi/sapi_v0.5.2/external_peripherals/src/sapi_imu_mpu9250.o
__aeabi_ddiv                                      d:/martin/facu/arq 2/embeddedide/gcc-arm-embedded/bin/../lib/gcc/arm-none-eabi/6.3.1/thumb/v7e-m/fpv4-sp/hard\libgcc.a(_arm_muldivdf3.o)
__aeabi_dmul                                      d:/martin/facu/arq 2/embeddedide/gcc-arm-embedded/bin/../lib/gcc/arm-none-eabi/6.3.1/thumb/v7e-m/fpv4-sp/hard\libgcc.a(_arm_muldivdf3.o)
                                                  d:/martin/facu/arq 2/embeddedide/gcc-arm-embedded/bin/../lib/gcc/arm-none-eabi/6.3.1/thumb/v7e-m/fpv4-sp/hard\libgcc.a(_fixunssfdi.o)
__aeabi_drsub                                     d:/martin/facu/arq 2/embeddedide/gcc-arm-embedded/bin/../lib/gcc/arm-none-eabi/6.3.1/thumb/v7e-m/fpv4-sp/hard\libgcc.a(_arm_addsubdf3.o)
__aeabi_dsub                                      d:/martin/facu/arq 2/embeddedide/gcc-arm-embedded/bin/../lib/gcc/arm-none-eabi/6.3.1/thumb/v7e-m/fpv4-sp/hard\libgcc.a(_arm_addsubdf3.o)
                                                  d:/martin/facu/arq 2/embeddedide/gcc-arm-embedded/bin/../lib/gcc/arm-none-eabi/6.3.1/thumb/v7e-m/fpv4-sp/hard\libgcc.a(_fixunssfdi.o)
__aeabi_f2d                                       d:/martin/facu/arq 2/embeddedide/gcc-arm-embedded/bin/../lib/gcc/arm-none-eabi/6.3.1/thumb/v7e-m/fpv4-sp/hard\libgcc.a(_arm_addsubdf3.o)
                                                  d:/martin/facu/arq 2/embeddedide/gcc-arm-embedded/bin/../lib/gcc/arm-none-eabi/6.3.1/thumb/v7e-m/fpv4-sp/hard\libgcc.a(_fixunssfdi.o)
                                                  app/out/libs/sapi/sapi_v0.5.2/external_peripherals/src/sapi_imu_mpu9250.o
__aeabi_f2ulz                                     d:/martin/facu/arq 2/embeddedide/gcc-arm-embedded/bin/../lib/gcc/arm-none-eabi/6.3.1/thumb/v7e-m/fpv4-sp/hard\libgcc.a(_fixunssfdi.o)
                                                  app/out/libs/sapi/sapi_v0.5.2/abstract_modules/src/sapi_delay.o
__aeabi_i2d                                       d:/martin/facu/arq 2/embeddedide/gcc-arm-embedded/bin/../lib/gcc/arm-none-eabi/6.3.1/thumb/v7e-m/fpv4-sp/hard\libgcc.a(_arm_addsubdf3.o)
__aeabi_idiv0                                     d:/martin/facu/arq 2/embeddedide/gcc-arm-embedded/bin/../lib/gcc/arm-none-eabi/6.3.1/thumb/v7e-m/fpv4-sp/hard\libgcc.a(_dvmd_tls.o)
__aeabi_l2d                                       d:/martin/facu/arq 2/embeddedide/gcc-arm-embedded/bin/../lib/gcc/arm-none-eabi/6.3.1/thumb/v7e-m/fpv4-sp/hard\libgcc.a(_arm_addsubdf3.o)
__aeabi_ldiv0                                     d:/martin/facu/arq 2/embeddedide/gcc-arm-embedded/bin/../lib/gcc/arm-none-eabi/6.3.1/thumb/v7e-m/fpv4-sp/hard\libgcc.a(_dvmd_tls.o)
                                                  d:/martin/facu/arq 2/embeddedide/gcc-arm-embedded/bin/../lib/gcc/arm-none-eabi/6.3.1/thumb/v7e-m/fpv4-sp/hard\libgcc.a(_aeabi_uldivmod.o)
                                                  d:/martin/facu/arq 2/embeddedide/gcc-arm-embedded/bin/../lib/gcc/arm-none-eabi/6.3.1/thumb/v7e-m/fpv4-sp/hard\libgcc.a(_aeabi_ldivmod.o)
__aeabi_ldivmod                                   d:/martin/facu/arq 2/embeddedide/gcc-arm-embedded/bin/../lib/gcc/arm-none-eabi/6.3.1/thumb/v7e-m/fpv4-sp/hard\libgcc.a(_aeabi_ldivmod.o)
                                                  app/out/libs/sapi/sapi_v0.5.2/abstract_modules/src/sapi_convert.o
__aeabi_ui2d                                      d:/martin/facu/arq 2/embeddedide/gcc-arm-embedded/bin/../lib/gcc/arm-none-eabi/6.3.1/thumb/v7e-m/fpv4-sp/hard\libgcc.a(_arm_addsubdf3.o)
                                                  d:/martin/facu/arq 2/embeddedide/gcc-arm-embedded/bin/../lib/gcc/arm-none-eabi/6.3.1/thumb/v7e-m/fpv4-sp/hard\libgcc.a(_fixunssfdi.o)
__aeabi_ul2d                                      d:/martin/facu/arq 2/embeddedide/gcc-arm-embedded/bin/../lib/gcc/arm-none-eabi/6.3.1/thumb/v7e-m/fpv4-sp/hard\libgcc.a(_arm_addsubdf3.o)
__aeabi_uldivmod                                  d:/martin/facu/arq 2/embeddedide/gcc-arm-embedded/bin/../lib/gcc/arm-none-eabi/6.3.1/thumb/v7e-m/fpv4-sp/hard\libgcc.a(_aeabi_uldivmod.o)
                                                  app/out/libs/vendor_libs/lpc_chip_43xx/src/uart_18xx_43xx.o
                                                  app/out/libs/vendor_libs/lpc_chip_43xx/src/i2s_18xx_43xx.o
                                                  app/out/libs/sapi/sapi_v0.5.2/abstract_modules/src/sapi_delay.o
                                                  app/out/libs/sapi/sapi_v0.5.2/abstract_modules/src/sapi_convert.o
                                                  app/out/libs/sapi/sapi_v0.5.2/soc/peripherals/src/sapi_tick.o
__bss_section_table_end                           app/out/libs/vendor_libs/lpc_startup/src/cr_startup_lpc43xx.o
__data_section_table                              app/out/libs/vendor_libs/lpc_startup/src/cr_startup_lpc43xx.o
__data_section_table_end                          app/out/libs/vendor_libs/lpc_startup/src/cr_startup_lpc43xx.o
__divdf3                                          d:/martin/facu/arq 2/embeddedide/gcc-arm-embedded/bin/../lib/gcc/arm-none-eabi/6.3.1/thumb/v7e-m/fpv4-sp/hard\libgcc.a(_arm_muldivdf3.o)
__extendsfdf2                                     d:/martin/facu/arq 2/embeddedide/gcc-arm-embedded/bin/../lib/gcc/arm-none-eabi/6.3.1/thumb/v7e-m/fpv4-sp/hard\libgcc.a(_arm_addsubdf3.o)
__fixunsdfsi                                      d:/martin/facu/arq 2/embeddedide/gcc-arm-embedded/bin/../lib/gcc/arm-none-eabi/6.3.1/thumb/v7e-m/fpv4-sp/hard\libgcc.a(_arm_fixunsdfsi.o)
__fixunssfdi                                      d:/martin/facu/arq 2/embeddedide/gcc-arm-embedded/bin/../lib/gcc/arm-none-eabi/6.3.1/thumb/v7e-m/fpv4-sp/hard\libgcc.a(_fixunssfdi.o)
__floatdidf                                       d:/martin/facu/arq 2/embeddedide/gcc-arm-embedded/bin/../lib/gcc/arm-none-eabi/6.3.1/thumb/v7e-m/fpv4-sp/hard\libgcc.a(_arm_addsubdf3.o)
__floatsidf                                       d:/martin/facu/arq 2/embeddedide/gcc-arm-embedded/bin/../lib/gcc/arm-none-eabi/6.3.1/thumb/v7e-m/fpv4-sp/hard\libgcc.a(_arm_addsubdf3.o)
__floatundidf                                     d:/martin/facu/arq 2/embeddedide/gcc-arm-embedded/bin/../lib/gcc/arm-none-eabi/6.3.1/thumb/v7e-m/fpv4-sp/hard\libgcc.a(_arm_addsubdf3.o)
__floatunsidf                                     d:/martin/facu/arq 2/embeddedide/gcc-arm-embedded/bin/../lib/gcc/arm-none-eabi/6.3.1/thumb/v7e-m/fpv4-sp/hard\libgcc.a(_arm_addsubdf3.o)
__fp_lock_all                                     d:/martin/facu/arq 2/embeddedide/gcc-arm-embedded/bin/../lib/gcc/arm-none-eabi/6.3.1/../../../../arm-none-eabi/lib/thumb/v7e-m/fpv4-sp/hard\libc_nano.a(lib_a-findfp.o)
__fp_unlock_all                                   d:/martin/facu/arq 2/embeddedide/gcc-arm-embedded/bin/../lib/gcc/arm-none-eabi/6.3.1/../../../../arm-none-eabi/lib/thumb/v7e-m/fpv4-sp/hard\libc_nano.a(lib_a-findfp.o)
__init_array_end                                  d:/martin/facu/arq 2/embeddedide/gcc-arm-embedded/bin/../lib/gcc/arm-none-eabi/6.3.1/../../../../arm-none-eabi/lib/thumb/v7e-m/fpv4-sp/hard\libc_nano.a(lib_a-init.o)
__init_array_start                                d:/martin/facu/arq 2/embeddedide/gcc-arm-embedded/bin/../lib/gcc/arm-none-eabi/6.3.1/../../../../arm-none-eabi/lib/thumb/v7e-m/fpv4-sp/hard\libc_nano.a(lib_a-init.o)
__libc_init_array                                 d:/martin/facu/arq 2/embeddedide/gcc-arm-embedded/bin/../lib/gcc/arm-none-eabi/6.3.1/../../../../arm-none-eabi/lib/thumb/v7e-m/fpv4-sp/hard\libc_nano.a(lib_a-init.o)
                                                  app/out/libs/vendor_libs/lpc_startup/src/cr_startup_lpc43xx.o
__malloc_free_list                                d:/martin/facu/arq 2/embeddedide/gcc-arm-embedded/bin/../lib/gcc/arm-none-eabi/6.3.1/../../../../arm-none-eabi/lib/thumb/v7e-m/fpv4-sp/hard\libc_nano.a(lib_a-nano-mallocr.o)
                                                  d:/martin/facu/arq 2/embeddedide/gcc-arm-embedded/bin/../lib/gcc/arm-none-eabi/6.3.1/../../../../arm-none-eabi/lib/thumb/v7e-m/fpv4-sp/hard\libc_nano.a(lib_a-nano-freer.o)
__malloc_lock                                     d:/martin/facu/arq 2/embeddedide/gcc-arm-embedded/bin/../lib/gcc/arm-none-eabi/6.3.1/../../../../arm-none-eabi/lib/thumb/v7e-m/fpv4-sp/hard\libc_nano.a(lib_a-mlock.o)
                                                  d:/martin/facu/arq 2/embeddedide/gcc-arm-embedded/bin/../lib/gcc/arm-none-eabi/6.3.1/../../../../arm-none-eabi/lib/thumb/v7e-m/fpv4-sp/hard\libc_nano.a(lib_a-nano-mallocr.o)
                                                  d:/martin/facu/arq 2/embeddedide/gcc-arm-embedded/bin/../lib/gcc/arm-none-eabi/6.3.1/../../../../arm-none-eabi/lib/thumb/v7e-m/fpv4-sp/hard\libc_nano.a(lib_a-nano-freer.o)
__malloc_sbrk_start                               d:/martin/facu/arq 2/embeddedide/gcc-arm-embedded/bin/../lib/gcc/arm-none-eabi/6.3.1/../../../../arm-none-eabi/lib/thumb/v7e-m/fpv4-sp/hard\libc_nano.a(lib_a-nano-mallocr.o)
__malloc_unlock                                   d:/martin/facu/arq 2/embeddedide/gcc-arm-embedded/bin/../lib/gcc/arm-none-eabi/6.3.1/../../../../arm-none-eabi/lib/thumb/v7e-m/fpv4-sp/hard\libc_nano.a(lib_a-mlock.o)
                                                  d:/martin/facu/arq 2/embeddedide/gcc-arm-embedded/bin/../lib/gcc/arm-none-eabi/6.3.1/../../../../arm-none-eabi/lib/thumb/v7e-m/fpv4-sp/hard\libc_nano.a(lib_a-nano-mallocr.o)
                                                  d:/martin/facu/arq 2/embeddedide/gcc-arm-embedded/bin/../lib/gcc/arm-none-eabi/6.3.1/../../../../arm-none-eabi/lib/thumb/v7e-m/fpv4-sp/hard\libc_nano.a(lib_a-nano-freer.o)
__muldf3                                          d:/martin/facu/arq 2/embeddedide/gcc-arm-embedded/bin/../lib/gcc/arm-none-eabi/6.3.1/thumb/v7e-m/fpv4-sp/hard\libgcc.a(_arm_muldivdf3.o)
__preinit_array_end                               d:/martin/facu/arq 2/embeddedide/gcc-arm-embedded/bin/../lib/gcc/arm-none-eabi/6.3.1/../../../../arm-none-eabi/lib/thumb/v7e-m/fpv4-sp/hard\libc_nano.a(lib_a-init.o)
__preinit_array_start                             d:/martin/facu/arq 2/embeddedide/gcc-arm-embedded/bin/../lib/gcc/arm-none-eabi/6.3.1/../../../../arm-none-eabi/lib/thumb/v7e-m/fpv4-sp/hard\libc_nano.a(lib_a-init.o)
__sclose                                          d:/martin/facu/arq 2/embeddedide/gcc-arm-embedded/bin/../lib/gcc/arm-none-eabi/6.3.1/../../../../arm-none-eabi/lib/thumb/v7e-m/fpv4-sp/hard\libc_nano.a(lib_a-stdio.o)
                                                  d:/martin/facu/arq 2/embeddedide/gcc-arm-embedded/bin/../lib/gcc/arm-none-eabi/6.3.1/../../../../arm-none-eabi/lib/thumb/v7e-m/fpv4-sp/hard\libc_nano.a(lib_a-findfp.o)
__seofread                                        d:/martin/facu/arq 2/embeddedide/gcc-arm-embedded/bin/../lib/gcc/arm-none-eabi/6.3.1/../../../../arm-none-eabi/lib/thumb/v7e-m/fpv4-sp/hard\libc_nano.a(lib_a-stdio.o)
__sf_fake_stderr                                  d:/martin/facu/arq 2/embeddedide/gcc-arm-embedded/bin/../lib/gcc/arm-none-eabi/6.3.1/../../../../arm-none-eabi/lib/thumb/v7e-m/fpv4-sp/hard\libc_nano.a(lib_a-findfp.o)
                                                  d:/martin/facu/arq 2/embeddedide/gcc-arm-embedded/bin/../lib/gcc/arm-none-eabi/6.3.1/../../../../arm-none-eabi/lib/thumb/v7e-m/fpv4-sp/hard\libc_nano.a(lib_a-impure.o)
                                                  d:/martin/facu/arq 2/embeddedide/gcc-arm-embedded/bin/../lib/gcc/arm-none-eabi/6.3.1/../../../../arm-none-eabi/lib/thumb/v7e-m/fpv4-sp/hard\libc_nano.a(lib_a-fflush.o)
                                                  d:/martin/facu/arq 2/embeddedide/gcc-arm-embedded/bin/../lib/gcc/arm-none-eabi/6.3.1/../../../../arm-none-eabi/lib/thumb/v7e-m/fpv4-sp/hard\libc_nano.a(lib_a-wsetup.o)
                                                  d:/martin/facu/arq 2/embeddedide/gcc-arm-embedded/bin/../lib/gcc/arm-none-eabi/6.3.1/../../../../arm-none-eabi/lib/thumb/v7e-m/fpv4-sp/hard\libc_nano.a(lib_a-wbuf.o)
                                                  d:/martin/facu/arq 2/embeddedide/gcc-arm-embedded/bin/../lib/gcc/arm-none-eabi/6.3.1/../../../../arm-none-eabi/lib/thumb/v7e-m/fpv4-sp/hard\libc_nano.a(lib_a-puts.o)
__sf_fake_stdin                                   d:/martin/facu/arq 2/embeddedide/gcc-arm-embedded/bin/../lib/gcc/arm-none-eabi/6.3.1/../../../../arm-none-eabi/lib/thumb/v7e-m/fpv4-sp/hard\libc_nano.a(lib_a-findfp.o)
                                                  d:/martin/facu/arq 2/embeddedide/gcc-arm-embedded/bin/../lib/gcc/arm-none-eabi/6.3.1/../../../../arm-none-eabi/lib/thumb/v7e-m/fpv4-sp/hard\libc_nano.a(lib_a-impure.o)
                                                  d:/martin/facu/arq 2/embeddedide/gcc-arm-embedded/bin/../lib/gcc/arm-none-eabi/6.3.1/../../../../arm-none-eabi/lib/thumb/v7e-m/fpv4-sp/hard\libc_nano.a(lib_a-fflush.o)
                                                  d:/martin/facu/arq 2/embeddedide/gcc-arm-embedded/bin/../lib/gcc/arm-none-eabi/6.3.1/../../../../arm-none-eabi/lib/thumb/v7e-m/fpv4-sp/hard\libc_nano.a(lib_a-wsetup.o)
                                                  d:/martin/facu/arq 2/embeddedide/gcc-arm-embedded/bin/../lib/gcc/arm-none-eabi/6.3.1/../../../../arm-none-eabi/lib/thumb/v7e-m/fpv4-sp/hard\libc_nano.a(lib_a-wbuf.o)
                                                  d:/martin/facu/arq 2/embeddedide/gcc-arm-embedded/bin/../lib/gcc/arm-none-eabi/6.3.1/../../../../arm-none-eabi/lib/thumb/v7e-m/fpv4-sp/hard\libc_nano.a(lib_a-puts.o)
__sf_fake_stdout                                  d:/martin/facu/arq 2/embeddedide/gcc-arm-embedded/bin/../lib/gcc/arm-none-eabi/6.3.1/../../../../arm-none-eabi/lib/thumb/v7e-m/fpv4-sp/hard\libc_nano.a(lib_a-findfp.o)
                                                  d:/martin/facu/arq 2/embeddedide/gcc-arm-embedded/bin/../lib/gcc/arm-none-eabi/6.3.1/../../../../arm-none-eabi/lib/thumb/v7e-m/fpv4-sp/hard\libc_nano.a(lib_a-impure.o)
                                                  d:/martin/facu/arq 2/embeddedide/gcc-arm-embedded/bin/../lib/gcc/arm-none-eabi/6.3.1/../../../../arm-none-eabi/lib/thumb/v7e-m/fpv4-sp/hard\libc_nano.a(lib_a-fflush.o)
                                                  d:/martin/facu/arq 2/embeddedide/gcc-arm-embedded/bin/../lib/gcc/arm-none-eabi/6.3.1/../../../../arm-none-eabi/lib/thumb/v7e-m/fpv4-sp/hard\libc_nano.a(lib_a-wsetup.o)
                                                  d:/martin/facu/arq 2/embeddedide/gcc-arm-embedded/bin/../lib/gcc/arm-none-eabi/6.3.1/../../../../arm-none-eabi/lib/thumb/v7e-m/fpv4-sp/hard\libc_nano.a(lib_a-wbuf.o)
                                                  d:/martin/facu/arq 2/embeddedide/gcc-arm-embedded/bin/../lib/gcc/arm-none-eabi/6.3.1/../../../../arm-none-eabi/lib/thumb/v7e-m/fpv4-sp/hard\libc_nano.a(lib_a-puts.o)
__sflush_r                                        d:/martin/facu/arq 2/embeddedide/gcc-arm-embedded/bin/../lib/gcc/arm-none-eabi/6.3.1/../../../../arm-none-eabi/lib/thumb/v7e-m/fpv4-sp/hard\libc_nano.a(lib_a-fflush.o)
__sfmoreglue                                      d:/martin/facu/arq 2/embeddedide/gcc-arm-embedded/bin/../lib/gcc/arm-none-eabi/6.3.1/../../../../arm-none-eabi/lib/thumb/v7e-m/fpv4-sp/hard\libc_nano.a(lib_a-findfp.o)
__sfp                                             d:/martin/facu/arq 2/embeddedide/gcc-arm-embedded/bin/../lib/gcc/arm-none-eabi/6.3.1/../../../../arm-none-eabi/lib/thumb/v7e-m/fpv4-sp/hard\libc_nano.a(lib_a-findfp.o)
__sfp_lock_acquire                                d:/martin/facu/arq 2/embeddedide/gcc-arm-embedded/bin/../lib/gcc/arm-none-eabi/6.3.1/../../../../arm-none-eabi/lib/thumb/v7e-m/fpv4-sp/hard\libc_nano.a(lib_a-findfp.o)
__sfp_lock_release                                d:/martin/facu/arq 2/embeddedide/gcc-arm-embedded/bin/../lib/gcc/arm-none-eabi/6.3.1/../../../../arm-none-eabi/lib/thumb/v7e-m/fpv4-sp/hard\libc_nano.a(lib_a-findfp.o)
__sinit                                           d:/martin/facu/arq 2/embeddedide/gcc-arm-embedded/bin/../lib/gcc/arm-none-eabi/6.3.1/../../../../arm-none-eabi/lib/thumb/v7e-m/fpv4-sp/hard\libc_nano.a(lib_a-findfp.o)
                                                  d:/martin/facu/arq 2/embeddedide/gcc-arm-embedded/bin/../lib/gcc/arm-none-eabi/6.3.1/../../../../arm-none-eabi/lib/thumb/v7e-m/fpv4-sp/hard\libc_nano.a(lib_a-fflush.o)
                                                  d:/martin/facu/arq 2/embeddedide/gcc-arm-embedded/bin/../lib/gcc/arm-none-eabi/6.3.1/../../../../arm-none-eabi/lib/thumb/v7e-m/fpv4-sp/hard\libc_nano.a(lib_a-wsetup.o)
                                                  d:/martin/facu/arq 2/embeddedide/gcc-arm-embedded/bin/../lib/gcc/arm-none-eabi/6.3.1/../../../../arm-none-eabi/lib/thumb/v7e-m/fpv4-sp/hard\libc_nano.a(lib_a-wbuf.o)
                                                  d:/martin/facu/arq 2/embeddedide/gcc-arm-embedded/bin/../lib/gcc/arm-none-eabi/6.3.1/../../../../arm-none-eabi/lib/thumb/v7e-m/fpv4-sp/hard\libc_nano.a(lib_a-puts.o)
__sinit_lock_acquire                              d:/martin/facu/arq 2/embeddedide/gcc-arm-embedded/bin/../lib/gcc/arm-none-eabi/6.3.1/../../../../arm-none-eabi/lib/thumb/v7e-m/fpv4-sp/hard\libc_nano.a(lib_a-findfp.o)
__sinit_lock_release                              d:/martin/facu/arq 2/embeddedide/gcc-arm-embedded/bin/../lib/gcc/arm-none-eabi/6.3.1/../../../../arm-none-eabi/lib/thumb/v7e-m/fpv4-sp/hard\libc_nano.a(lib_a-findfp.o)
__smakebuf_r                                      d:/martin/facu/arq 2/embeddedide/gcc-arm-embedded/bin/../lib/gcc/arm-none-eabi/6.3.1/../../../../arm-none-eabi/lib/thumb/v7e-m/fpv4-sp/hard\libc_nano.a(lib_a-makebuf.o)
                                                  d:/martin/facu/arq 2/embeddedide/gcc-arm-embedded/bin/../lib/gcc/arm-none-eabi/6.3.1/../../../../arm-none-eabi/lib/thumb/v7e-m/fpv4-sp/hard\libc_nano.a(lib_a-wsetup.o)
__sread                                           d:/martin/facu/arq 2/embeddedide/gcc-arm-embedded/bin/../lib/gcc/arm-none-eabi/6.3.1/../../../../arm-none-eabi/lib/thumb/v7e-m/fpv4-sp/hard\libc_nano.a(lib_a-stdio.o)
                                                  d:/martin/facu/arq 2/embeddedide/gcc-arm-embedded/bin/../lib/gcc/arm-none-eabi/6.3.1/../../../../arm-none-eabi/lib/thumb/v7e-m/fpv4-sp/hard\libc_nano.a(lib_a-findfp.o)
__sseek                                           d:/martin/facu/arq 2/embeddedide/gcc-arm-embedded/bin/../lib/gcc/arm-none-eabi/6.3.1/../../../../arm-none-eabi/lib/thumb/v7e-m/fpv4-sp/hard\libc_nano.a(lib_a-stdio.o)
                                                  d:/martin/facu/arq 2/embeddedide/gcc-arm-embedded/bin/../lib/gcc/arm-none-eabi/6.3.1/../../../../arm-none-eabi/lib/thumb/v7e-m/fpv4-sp/hard\libc_nano.a(lib_a-findfp.o)
__subdf3                                          d:/martin/facu/arq 2/embeddedide/gcc-arm-embedded/bin/../lib/gcc/arm-none-eabi/6.3.1/thumb/v7e-m/fpv4-sp/hard\libgcc.a(_arm_addsubdf3.o)
__swbuf                                           d:/martin/facu/arq 2/embeddedide/gcc-arm-embedded/bin/../lib/gcc/arm-none-eabi/6.3.1/../../../../arm-none-eabi/lib/thumb/v7e-m/fpv4-sp/hard\libc_nano.a(lib_a-wbuf.o)
__swbuf_r                                         d:/martin/facu/arq 2/embeddedide/gcc-arm-embedded/bin/../lib/gcc/arm-none-eabi/6.3.1/../../../../arm-none-eabi/lib/thumb/v7e-m/fpv4-sp/hard\libc_nano.a(lib_a-wbuf.o)
                                                  d:/martin/facu/arq 2/embeddedide/gcc-arm-embedded/bin/../lib/gcc/arm-none-eabi/6.3.1/../../../../arm-none-eabi/lib/thumb/v7e-m/fpv4-sp/hard\libc_nano.a(lib_a-puts.o)
__swhatbuf_r                                      d:/martin/facu/arq 2/embeddedide/gcc-arm-embedded/bin/../lib/gcc/arm-none-eabi/6.3.1/../../../../arm-none-eabi/lib/thumb/v7e-m/fpv4-sp/hard\libc_nano.a(lib_a-makebuf.o)
__swrite                                          d:/martin/facu/arq 2/embeddedide/gcc-arm-embedded/bin/../lib/gcc/arm-none-eabi/6.3.1/../../../../arm-none-eabi/lib/thumb/v7e-m/fpv4-sp/hard\libc_nano.a(lib_a-stdio.o)
                                                  d:/martin/facu/arq 2/embeddedide/gcc-arm-embedded/bin/../lib/gcc/arm-none-eabi/6.3.1/../../../../arm-none-eabi/lib/thumb/v7e-m/fpv4-sp/hard\libc_nano.a(lib_a-findfp.o)
__swsetup_r                                       d:/martin/facu/arq 2/embeddedide/gcc-arm-embedded/bin/../lib/gcc/arm-none-eabi/6.3.1/../../../../arm-none-eabi/lib/thumb/v7e-m/fpv4-sp/hard\libc_nano.a(lib_a-wsetup.o)
                                                  d:/martin/facu/arq 2/embeddedide/gcc-arm-embedded/bin/../lib/gcc/arm-none-eabi/6.3.1/../../../../arm-none-eabi/lib/thumb/v7e-m/fpv4-sp/hard\libc_nano.a(lib_a-wbuf.o)
                                                  d:/martin/facu/arq 2/embeddedide/gcc-arm-embedded/bin/../lib/gcc/arm-none-eabi/6.3.1/../../../../arm-none-eabi/lib/thumb/v7e-m/fpv4-sp/hard\libc_nano.a(lib_a-puts.o)
__truncdfsf2                                      d:/martin/facu/arq 2/embeddedide/gcc-arm-embedded/bin/../lib/gcc/arm-none-eabi/6.3.1/thumb/v7e-m/fpv4-sp/hard\libgcc.a(_arm_truncdfsf2.o)
__udivmoddi4                                      d:/martin/facu/arq 2/embeddedide/gcc-arm-embedded/bin/../lib/gcc/arm-none-eabi/6.3.1/thumb/v7e-m/fpv4-sp/hard\libgcc.a(_udivmoddi4.o)
                                                  d:/martin/facu/arq 2/embeddedide/gcc-arm-embedded/bin/../lib/gcc/arm-none-eabi/6.3.1/thumb/v7e-m/fpv4-sp/hard\libgcc.a(_aeabi_uldivmod.o)
                                                  d:/martin/facu/arq 2/embeddedide/gcc-arm-embedded/bin/../lib/gcc/arm-none-eabi/6.3.1/thumb/v7e-m/fpv4-sp/hard\libgcc.a(_aeabi_ldivmod.o)
__valid_user_code_checksum                        app/out/libs/vendor_libs/lpc_startup/src/cr_startup_lpc43xx.o
_cleanup                                          d:/martin/facu/arq 2/embeddedide/gcc-arm-embedded/bin/../lib/gcc/arm-none-eabi/6.3.1/../../../../arm-none-eabi/lib/thumb/v7e-m/fpv4-sp/hard\libc_nano.a(lib_a-findfp.o)
_cleanup_r                                        d:/martin/facu/arq 2/embeddedide/gcc-arm-embedded/bin/../lib/gcc/arm-none-eabi/6.3.1/../../../../arm-none-eabi/lib/thumb/v7e-m/fpv4-sp/hard\libc_nano.a(lib_a-findfp.o)
                                                  d:/martin/facu/arq 2/embeddedide/gcc-arm-embedded/bin/../lib/gcc/arm-none-eabi/6.3.1/../../../../arm-none-eabi/lib/thumb/v7e-m/fpv4-sp/hard\libc_nano.a(lib_a-makebuf.o)
_close_r                                          app/out/libs/vendor_libs/lpc_board_ciaa_edu_4337/src/system.o
                                                  d:/martin/facu/arq 2/embeddedide/gcc-arm-embedded/bin/../lib/gcc/arm-none-eabi/6.3.1/../../../../arm-none-eabi/lib/thumb/v7e-m/fpv4-sp/hard\libc_nano.a(lib_a-stdio.o)
_execve_r                                         app/out/libs/vendor_libs/lpc_board_ciaa_edu_4337/src/system.o
_exit                                             app/out/libs/vendor_libs/lpc_board_ciaa_edu_4337/src/system.o
_fcntl_r                                          app/out/libs/vendor_libs/lpc_board_ciaa_edu_4337/src/system.o
_fflush_r                                         d:/martin/facu/arq 2/embeddedide/gcc-arm-embedded/bin/../lib/gcc/arm-none-eabi/6.3.1/../../../../arm-none-eabi/lib/thumb/v7e-m/fpv4-sp/hard\libc_nano.a(lib_a-fflush.o)
                                                  d:/martin/facu/arq 2/embeddedide/gcc-arm-embedded/bin/../lib/gcc/arm-none-eabi/6.3.1/../../../../arm-none-eabi/lib/thumb/v7e-m/fpv4-sp/hard\libc_nano.a(lib_a-findfp.o)
                                                  d:/martin/facu/arq 2/embeddedide/gcc-arm-embedded/bin/../lib/gcc/arm-none-eabi/6.3.1/../../../../arm-none-eabi/lib/thumb/v7e-m/fpv4-sp/hard\libc_nano.a(lib_a-wbuf.o)
_fork_r                                           app/out/libs/vendor_libs/lpc_board_ciaa_edu_4337/src/system.o
_free_r                                           d:/martin/facu/arq 2/embeddedide/gcc-arm-embedded/bin/../lib/gcc/arm-none-eabi/6.3.1/../../../../arm-none-eabi/lib/thumb/v7e-m/fpv4-sp/hard\libc_nano.a(lib_a-nano-freer.o)
                                                  d:/martin/facu/arq 2/embeddedide/gcc-arm-embedded/bin/../lib/gcc/arm-none-eabi/6.3.1/../../../../arm-none-eabi/lib/thumb/v7e-m/fpv4-sp/hard\libc_nano.a(lib_a-fflush.o)
                                                  d:/martin/facu/arq 2/embeddedide/gcc-arm-embedded/bin/../lib/gcc/arm-none-eabi/6.3.1/../../../../arm-none-eabi/lib/thumb/v7e-m/fpv4-sp/hard\libc_nano.a(lib_a-wsetup.o)
_fstat_r                                          app/out/libs/vendor_libs/lpc_board_ciaa_edu_4337/src/system.o
                                                  d:/martin/facu/arq 2/embeddedide/gcc-arm-embedded/bin/../lib/gcc/arm-none-eabi/6.3.1/../../../../arm-none-eabi/lib/thumb/v7e-m/fpv4-sp/hard\libc_nano.a(lib_a-makebuf.o)
_fwalk                                            d:/martin/facu/arq 2/embeddedide/gcc-arm-embedded/bin/../lib/gcc/arm-none-eabi/6.3.1/../../../../arm-none-eabi/lib/thumb/v7e-m/fpv4-sp/hard\libc_nano.a(lib_a-fwalk.o)
                                                  d:/martin/facu/arq 2/embeddedide/gcc-arm-embedded/bin/../lib/gcc/arm-none-eabi/6.3.1/../../../../arm-none-eabi/lib/thumb/v7e-m/fpv4-sp/hard\libc_nano.a(lib_a-findfp.o)
_fwalk_reent                                      d:/martin/facu/arq 2/embeddedide/gcc-arm-embedded/bin/../lib/gcc/arm-none-eabi/6.3.1/../../../../arm-none-eabi/lib/thumb/v7e-m/fpv4-sp/hard\libc_nano.a(lib_a-fwalk.o)
                                                  d:/martin/facu/arq 2/embeddedide/gcc-arm-embedded/bin/../lib/gcc/arm-none-eabi/6.3.1/../../../../arm-none-eabi/lib/thumb/v7e-m/fpv4-sp/hard\libc_nano.a(lib_a-findfp.o)
                                                  d:/martin/facu/arq 2/embeddedide/gcc-arm-embedded/bin/../lib/gcc/arm-none-eabi/6.3.1/../../../../arm-none-eabi/lib/thumb/v7e-m/fpv4-sp/hard\libc_nano.a(lib_a-fflush.o)
_getpid_r                                         app/out/libs/vendor_libs/lpc_board_ciaa_edu_4337/src/system.o
_gettimeofday_r                                   app/out/libs/vendor_libs/lpc_board_ciaa_edu_4337/src/system.o
_global_impure_ptr                                d:/martin/facu/arq 2/embeddedide/gcc-arm-embedded/bin/../lib/gcc/arm-none-eabi/6.3.1/../../../../arm-none-eabi/lib/thumb/v7e-m/fpv4-sp/hard\libc_nano.a(lib_a-impure.o)
                                                  d:/martin/facu/arq 2/embeddedide/gcc-arm-embedded/bin/../lib/gcc/arm-none-eabi/6.3.1/../../../../arm-none-eabi/lib/thumb/v7e-m/fpv4-sp/hard\libc_nano.a(lib_a-findfp.o)
                                                  d:/martin/facu/arq 2/embeddedide/gcc-arm-embedded/bin/../lib/gcc/arm-none-eabi/6.3.1/../../../../arm-none-eabi/lib/thumb/v7e-m/fpv4-sp/hard\libc_nano.a(lib_a-fflush.o)
_impure_ptr                                       d:/martin/facu/arq 2/embeddedide/gcc-arm-embedded/bin/../lib/gcc/arm-none-eabi/6.3.1/../../../../arm-none-eabi/lib/thumb/v7e-m/fpv4-sp/hard\libc_nano.a(lib_a-impure.o)
                                                  d:/martin/facu/arq 2/embeddedide/gcc-arm-embedded/bin/../lib/gcc/arm-none-eabi/6.3.1/../../../../arm-none-eabi/lib/thumb/v7e-m/fpv4-sp/hard\libc_nano.a(lib_a-findfp.o)
                                                  d:/martin/facu/arq 2/embeddedide/gcc-arm-embedded/bin/../lib/gcc/arm-none-eabi/6.3.1/../../../../arm-none-eabi/lib/thumb/v7e-m/fpv4-sp/hard\libc_nano.a(lib_a-fflush.o)
                                                  d:/martin/facu/arq 2/embeddedide/gcc-arm-embedded/bin/../lib/gcc/arm-none-eabi/6.3.1/../../../../arm-none-eabi/lib/thumb/v7e-m/fpv4-sp/hard\libc_nano.a(lib_a-wsetup.o)
                                                  d:/martin/facu/arq 2/embeddedide/gcc-arm-embedded/bin/../lib/gcc/arm-none-eabi/6.3.1/../../../../arm-none-eabi/lib/thumb/v7e-m/fpv4-sp/hard\libc_nano.a(lib_a-wbuf.o)
                                                  d:/martin/facu/arq 2/embeddedide/gcc-arm-embedded/bin/../lib/gcc/arm-none-eabi/6.3.1/../../../../arm-none-eabi/lib/thumb/v7e-m/fpv4-sp/hard\libc_nano.a(lib_a-puts.o)
_init                                             app/out/libs/vendor_libs/lpc_startup/src/cr_startup_lpc43xx.o
                                                  d:/martin/facu/arq 2/embeddedide/gcc-arm-embedded/bin/../lib/gcc/arm-none-eabi/6.3.1/../../../../arm-none-eabi/lib/thumb/v7e-m/fpv4-sp/hard\libc_nano.a(lib_a-init.o)
_isatty_r                                         app/out/libs/vendor_libs/lpc_board_ciaa_edu_4337/src/system.o
                                                  d:/martin/facu/arq 2/embeddedide/gcc-arm-embedded/bin/../lib/gcc/arm-none-eabi/6.3.1/../../../../arm-none-eabi/lib/thumb/v7e-m/fpv4-sp/hard\libc_nano.a(lib_a-makebuf.o)
_kill_r                                           app/out/libs/vendor_libs/lpc_board_ciaa_edu_4337/src/system.o
_link_r                                           app/out/libs/vendor_libs/lpc_board_ciaa_edu_4337/src/system.o
_lseek_r                                          app/out/libs/vendor_libs/lpc_board_ciaa_edu_4337/src/system.o
                                                  d:/martin/facu/arq 2/embeddedide/gcc-arm-embedded/bin/../lib/gcc/arm-none-eabi/6.3.1/../../../../arm-none-eabi/lib/thumb/v7e-m/fpv4-sp/hard\libc_nano.a(lib_a-stdio.o)
_malloc_r                                         d:/martin/facu/arq 2/embeddedide/gcc-arm-embedded/bin/../lib/gcc/arm-none-eabi/6.3.1/../../../../arm-none-eabi/lib/thumb/v7e-m/fpv4-sp/hard\libc_nano.a(lib_a-nano-mallocr.o)
                                                  d:/martin/facu/arq 2/embeddedide/gcc-arm-embedded/bin/../lib/gcc/arm-none-eabi/6.3.1/../../../../arm-none-eabi/lib/thumb/v7e-m/fpv4-sp/hard\libc_nano.a(lib_a-makebuf.o)
                                                  d:/martin/facu/arq 2/embeddedide/gcc-arm-embedded/bin/../lib/gcc/arm-none-eabi/6.3.1/../../../../arm-none-eabi/lib/thumb/v7e-m/fpv4-sp/hard\libc_nano.a(lib_a-findfp.o)
_mkdir_r                                          app/out/libs/vendor_libs/lpc_board_ciaa_edu_4337/src/system.o
_open_r                                           app/out/libs/vendor_libs/lpc_board_ciaa_edu_4337/src/system.o
_outbyte                                          app/out/libs/sapi/sapi_v0.5.2/abstract_modules/src/sapi_stdio.o
_puts_r                                           d:/martin/facu/arq 2/embeddedide/gcc-arm-embedded/bin/../lib/gcc/arm-none-eabi/6.3.1/../../../../arm-none-eabi/lib/thumb/v7e-m/fpv4-sp/hard\libc_nano.a(lib_a-puts.o)
_pvHeapStart                                      app/out/libs/vendor_libs/lpc_board_ciaa_edu_4337/src/system.o
_read_r                                           app/out/libs/vendor_libs/lpc_board_ciaa_edu_4337/src/system.o
                                                  d:/martin/facu/arq 2/embeddedide/gcc-arm-embedded/bin/../lib/gcc/arm-none-eabi/6.3.1/../../../../arm-none-eabi/lib/thumb/v7e-m/fpv4-sp/hard\libc_nano.a(lib_a-stdio.o)
_rename_r                                         app/out/libs/vendor_libs/lpc_board_ciaa_edu_4337/src/system.o
_sbrk_r                                           app/out/libs/vendor_libs/lpc_board_ciaa_edu_4337/src/system.o
                                                  d:/martin/facu/arq 2/embeddedide/gcc-arm-embedded/bin/../lib/gcc/arm-none-eabi/6.3.1/../../../../arm-none-eabi/lib/thumb/v7e-m/fpv4-sp/hard\libc_nano.a(lib_a-nano-mallocr.o)
_stat_r                                           app/out/libs/vendor_libs/lpc_board_ciaa_edu_4337/src/system.o
_times_r                                          app/out/libs/vendor_libs/lpc_board_ciaa_edu_4337/src/system.o
_unlink_r                                         app/out/libs/vendor_libs/lpc_board_ciaa_edu_4337/src/system.o
_vStackTop                                        app/out/libs/vendor_libs/lpc_startup/src/cr_startup_lpc43xx.o
_wait_r                                           app/out/libs/vendor_libs/lpc_board_ciaa_edu_4337/src/system.o
_write_r                                          app/out/libs/vendor_libs/lpc_board_ciaa_edu_4337/src/system.o
                                                  d:/martin/facu/arq 2/embeddedide/gcc-arm-embedded/bin/../lib/gcc/arm-none-eabi/6.3.1/../../../../arm-none-eabi/lib/thumb/v7e-m/fpv4-sp/hard\libc_nano.a(lib_a-stdio.o)
adcInit                                           app/out/libs/sapi/sapi_v0.5.2/soc/peripherals/src/sapi_adc.o
adcRead                                           app/out/libs/sapi/sapi_v0.5.2/soc/peripherals/src/sapi_adc.o
asciiKeypadKeys                                   app/out/app/src/driverTecladoMatricial.o
                                                  app/out/app/src/app.o
asd                                               app/out/app/src/driverDisplay7Seg.o
boardInit                                         app/out/libs/sapi/sapi_v0.5.2/board/src/sapi_board.o
                                                  app/out/app/src/app.o
bss_init                                          app/out/libs/vendor_libs/lpc_startup/src/cr_startup_lpc43xx.o
cdcUartInit                                       app/out/libs/sapi/sapi_v0.5.2/soc/peripherals/usb/device/src/cdc_uart.o
cdcUartLpcInit                                    app/out/libs/sapi/sapi_v0.5.2/soc/peripherals/usb/device/src/cdc_uart.o
                                                  app/out/libs/sapi/sapi_v0.5.2/soc/peripherals/usb/device/src/sapi_usb_device.o
cdcUartRxRead                                     app/out/libs/sapi/sapi_v0.5.2/soc/peripherals/usb/device/src/cdc_uart.o
cdcUartTxWrite                                    app/out/libs/sapi/sapi_v0.5.2/soc/peripherals/usb/device/src/cdc_uart.o
cdcUartWriteByte                                  app/out/libs/sapi/sapi_v0.5.2/soc/peripherals/usb/device/src/cdc_uart.o
charToIndex                                       app/out/app/src/driverDisplay7Seg.o
charsVec                                          app/out/app/src/driverDisplay7Seg.o
                                                  app/out/app/src/app.o
circularBufferEmptyBufferCallbackSet              app/out/libs/sapi/sapi_v0.5.2/abstract_modules/src/sapi_circularBuffer.o
circularBufferFullBufferCallbackSet               app/out/libs/sapi/sapi_v0.5.2/abstract_modules/src/sapi_circularBuffer.o
circularBufferRead                                app/out/libs/sapi/sapi_v0.5.2/abstract_modules/src/sapi_circularBuffer.o
circularBufferWrite                               app/out/libs/sapi/sapi_v0.5.2/abstract_modules/src/sapi_circularBuffer.o
circularBuffer_Init                               app/out/libs/sapi/sapi_v0.5.2/abstract_modules/src/sapi_circularBuffer.o
configurarTecladoMatricial                        app/out/app/src/driverTecladoMatricial.o
                                                  app/out/app/src/app.o
cyclesCounterInit                                 app/out/libs/sapi/sapi_v0.5.2/soc/core/src/sapi_cyclesCounter.o
                                                  app/out/libs/sapi/sapi_v0.5.2/board/src/sapi_board.o
cyclesCounterRead                                 app/out/libs/sapi/sapi_v0.5.2/soc/core/src/sapi_cyclesCounter.o
                                                  app/out/libs/sapi/sapi_v0.5.2/abstract_modules/src/sapi_delay.o
cyclesCounterReset                                app/out/libs/sapi/sapi_v0.5.2/soc/core/src/sapi_cyclesCounter.o
cyclesCounterToMs                                 app/out/libs/sapi/sapi_v0.5.2/soc/core/src/sapi_cyclesCounter.o
cyclesCounterToUs                                 app/out/libs/sapi/sapi_v0.5.2/soc/core/src/sapi_cyclesCounter.o
                                                  app/out/libs/sapi/sapi_v0.5.2/abstract_modules/src/sapi_delay.o
dacInit                                           app/out/libs/sapi/sapi_v0.5.2/soc/peripherals/src/sapi_dac.o
dacWrite                                          app/out/libs/sapi/sapi_v0.5.2/soc/peripherals/src/sapi_dac.o
data_init                                         app/out/libs/vendor_libs/lpc_startup/src/cr_startup_lpc43xx.o
delay                                             app/out/libs/sapi/sapi_v0.5.2/abstract_modules/src/sapi_delay.o
                                                  app/out/libs/sapi/sapi_v0.5.2/external_peripherals/src/sapi_lcd.o
                                                  app/out/libs/sapi/sapi_v0.5.2/external_peripherals/src/sapi_keypad.o
                                                  app/out/libs/sapi/sapi_v0.5.2/external_peripherals/src/sapi_imu_mpu9250.o
                                                  app/out/libs/sapi/sapi_v0.5.2/external_peripherals/src/sapi_dht11.o
                                                  app/out/libs/sapi/sapi_v0.5.2/external_peripherals/src/sapi_7_segment_display.o
                                                  app/out/app/src/driverTecladoMatricial.o
delayInaccurate                                   app/out/libs/sapi/sapi_v0.5.2/abstract_modules/src/sapi_delay.o
delayInaccurateUs                                 app/out/libs/sapi/sapi_v0.5.2/abstract_modules/src/sapi_delay.o
                                                  app/out/libs/sapi/sapi_v0.5.2/external_peripherals/src/sapi_lcd.o
delayInit                                         app/out/libs/sapi/sapi_v0.5.2/abstract_modules/src/sapi_delay.o
                                                  app/out/libs/sapi/sapi_v0.5.2/external_peripherals/src/sapi_esp8266.o
                                                  app/out/libs/sapi/sapi_v0.5.2/soc/peripherals/src/sapi_uart.o
                                                  app/out/app/src/driverDisplay7Seg.o
delayRead                                         app/out/libs/sapi/sapi_v0.5.2/abstract_modules/src/sapi_delay.o
                                                  app/out/libs/sapi/sapi_v0.5.2/external_peripherals/src/sapi_esp8266.o
                                                  app/out/libs/sapi/sapi_v0.5.2/soc/peripherals/src/sapi_uart.o
                                                  app/out/app/src/driverDisplay7Seg.o
delayUs                                           app/out/libs/sapi/sapi_v0.5.2/abstract_modules/src/sapi_delay.o
delayWrite                                        app/out/libs/sapi/sapi_v0.5.2/abstract_modules/src/sapi_delay.o
dht11Init                                         app/out/libs/sapi/sapi_v0.5.2/external_peripherals/src/sapi_dht11.o
dht11Read                                         app/out/libs/sapi/sapi_v0.5.2/external_peripherals/src/sapi_dht11.o
dht11_timeout                                     app/out/libs/sapi/sapi_v0.5.2/external_peripherals/src/sapi_dht11.o
dht11_timeout_max                                 app/out/libs/sapi/sapi_v0.5.2/external_peripherals/src/sapi_dht11.o
display7SegmentClear                              app/out/libs/sapi/sapi_v0.5.2/external_peripherals/src/sapi_7_segment_display.o
display7SegmentInit                               app/out/libs/sapi/sapi_v0.5.2/external_peripherals/src/sapi_7_segment_display.o
display7SegmentOutputs                            app/out/libs/sapi/sapi_v0.5.2/external_peripherals/src/sapi_7_segment_display.o
display7SegmentPinInit                            app/out/libs/sapi/sapi_v0.5.2/external_peripherals/src/sapi_7_segment_display.o
display7SegmentRefresh                            app/out/libs/sapi/sapi_v0.5.2/external_peripherals/src/sapi_7_segment_display.o
display7SegmentTestPins                           app/out/libs/sapi/sapi_v0.5.2/external_peripherals/src/sapi_7_segment_display.o
display7SegmentWrite                              app/out/libs/sapi/sapi_v0.5.2/external_peripherals/src/sapi_7_segment_display.o
display7SegmentWriteHex                           app/out/libs/sapi/sapi_v0.5.2/external_peripherals/src/sapi_7_segment_display.o
display7SegmentWriteIndex                         app/out/libs/sapi/sapi_v0.5.2/external_peripherals/src/sapi_7_segment_display.o
display7SegmentWriteInt                           app/out/libs/sapi/sapi_v0.5.2/external_peripherals/src/sapi_7_segment_display.o
display7SegmentosConfigurarPines                  app/out/app/src/driverDisplay7Seg.o
                                                  app/out/app/src/app.o
display7SegmentosEscribir                         app/out/app/src/driverDisplay7Seg.o
display7SegmentosEscribir4Digitos                 app/out/app/src/driverDisplay7Seg.o
                                                  app/out/app/src/app.o
display7SegmentosEscribirDigito                   app/out/app/src/driverDisplay7Seg.o
display7SegmentosPines                            app/out/app/src/driverDisplay7Seg.o
                                                  app/out/app/src/app.o
display7SegmentosPinesDigitos                     app/out/app/src/driverDisplay7Seg.o
                                                  app/out/app/src/app.o
display7SegmentosSalidas                          app/out/app/src/driverDisplay7Seg.o
                                                  app/out/app/src/app.o
esp8266GetConnectionId                            app/out/libs/sapi/sapi_v0.5.2/external_peripherals/src/sapi_esp8266.o
esp8266GetIpAddress                               app/out/libs/sapi/sapi_v0.5.2/external_peripherals/src/sapi_esp8266.o
esp8266GetWifiName                                app/out/libs/sapi/sapi_v0.5.2/external_peripherals/src/sapi_esp8266.o
esp8266GetWifiPass                                app/out/libs/sapi/sapi_v0.5.2/external_peripherals/src/sapi_esp8266.o
esp8266InitHttpServer                             app/out/libs/sapi/sapi_v0.5.2/external_peripherals/src/sapi_esp8266.o
esp8266ReadHttpServer                             app/out/libs/sapi/sapi_v0.5.2/external_peripherals/src/sapi_esp8266.o
esp8266WriteHttpServer                            app/out/libs/sapi/sapi_v0.5.2/external_peripherals/src/sapi_esp8266.o
estadoActual                                      app/out/app/src/app.o
fflush                                            d:/martin/facu/arq 2/embeddedide/gcc-arm-embedded/bin/../lib/gcc/arm-none-eabi/6.3.1/../../../../arm-none-eabi/lib/thumb/v7e-m/fpv4-sp/hard\libc_nano.a(lib_a-fflush.o)
find_IntfDesc                                     app/out/libs/sapi/sapi_v0.5.2/soc/peripherals/usb/device/src/sapi_usb_device.o
                                                  app/out/libs/sapi/sapi_v0.5.2/soc/peripherals/usb/device/src/cdc_uart.o
fpuInit                                           app/out/libs/vendor_libs/lpc_chip_43xx/src/fpu_init.o
                                                  app/out/libs/vendor_libs/lpc_board_ciaa_edu_4337/src/sysinit.o
g_pUsbApi                                         app/out/libs/sapi/sapi_v0.5.2/soc/peripherals/usb/device/src/sapi_usb_device.o
                                                  app/out/libs/sapi/sapi_v0.5.2/soc/peripherals/usb/device/src/usbd_keyboard.o
                                                  app/out/libs/sapi/sapi_v0.5.2/soc/peripherals/usb/device/src/cdc_uart.o
g_pfnVectors                                      app/out/libs/vendor_libs/lpc_startup/src/cr_startup_lpc43xx.o
                                                  app/out/libs/vendor_libs/lpc_board_ciaa_edu_4337/src/sysinit.o
getSlaveIndex                                     app/out/libs/vendor_libs/lpc_chip_43xx/src/i2c_18xx_43xx.o
gpioInit                                          app/out/libs/sapi/sapi_v0.5.2/soc/peripherals/src/sapi_gpio.o
                                                  app/out/libs/sapi/sapi_v0.5.2/external_peripherals/src/sapi_ultrasonic_hcsr04.o
                                                  app/out/libs/sapi/sapi_v0.5.2/external_peripherals/src/sapi_servo.o
                                                  app/out/libs/sapi/sapi_v0.5.2/external_peripherals/src/sapi_rgb.o
                                                  app/out/libs/sapi/sapi_v0.5.2/external_peripherals/src/sapi_lcd.o
                                                  app/out/libs/sapi/sapi_v0.5.2/external_peripherals/src/sapi_keypad.o
                                                  app/out/libs/sapi/sapi_v0.5.2/external_peripherals/src/sapi_dht11.o
                                                  app/out/libs/sapi/sapi_v0.5.2/external_peripherals/src/sapi_7_segment_display.o
                                                  app/out/libs/sapi/sapi_v0.5.2/board/src/sapi_board.o
